{"contracts/UP.sol":{"LSP0ERC725Account":{"abi":[{"inputs":[{"internalType":"address","name":"initialOwner","type":"address"}],"stateMutability":"payable","type":"constructor"},{"inputs":[],"name":"ERC725X_ContractDeploymentFailed","type":"error"},{"inputs":[],"name":"ERC725X_CreateOperationsRequireEmptyRecipientAddress","type":"error"},{"inputs":[],"name":"ERC725X_ExecuteParametersEmptyArray","type":"error"},{"inputs":[],"name":"ERC725X_ExecuteParametersLengthMismatch","type":"error"},{"inputs":[{"internalType":"uint256","name":"balance","type":"uint256"},{"internalType":"uint256","name":"value","type":"uint256"}],"name":"ERC725X_InsufficientBalance","type":"error"},{"inputs":[],"name":"ERC725X_MsgValueDisallowedInDelegateCall","type":"error"},{"inputs":[],"name":"ERC725X_MsgValueDisallowedInStaticCall","type":"error"},{"inputs":[],"name":"ERC725X_NoContractBytecodeProvided","type":"error"},{"inputs":[{"internalType":"uint256","name":"operationTypeProvided","type":"uint256"}],"name":"ERC725X_UnknownOperationType","type":"error"},{"inputs":[],"name":"ERC725Y_DataKeysValuesEmptyArray","type":"error"},{"inputs":[],"name":"ERC725Y_DataKeysValuesLengthMismatch","type":"error"},{"inputs":[{"internalType":"address","name":"caller","type":"address"}],"name":"LSP14CallerNotPendingOwner","type":"error"},{"inputs":[],"name":"LSP14CannotTransferOwnershipToSelf","type":"error"},{"inputs":[],"name":"LSP14MustAcceptOwnershipInSeparateTransaction","type":"error"},{"inputs":[{"internalType":"uint256","name":"renounceOwnershipStart","type":"uint256"},{"internalType":"uint256","name":"renounceOwnershipEnd","type":"uint256"}],"name":"LSP14NotInRenounceOwnershipInterval","type":"error"},{"inputs":[{"internalType":"bool","name":"postCall","type":"bool"},{"internalType":"bytes4","name":"returnedStatus","type":"bytes4"}],"name":"LSP20CallVerificationFailed","type":"error"},{"inputs":[{"internalType":"bool","name":"postCall","type":"bool"}],"name":"LSP20CallingVerifierFailed","type":"error"},{"inputs":[{"internalType":"address","name":"logicVerifier","type":"address"}],"name":"LSP20EOACannotVerifyCall","type":"error"},{"inputs":[{"internalType":"bytes4","name":"functionSelector","type":"bytes4"}],"name":"NoExtensionFoundForFunctionSelector","type":"error"},{"anonymous":false,"inputs":[{"indexed":true,"internalType":"uint256","name":"operationType","type":"uint256"},{"indexed":true,"internalType":"address","name":"contractAddress","type":"address"},{"indexed":false,"internalType":"uint256","name":"value","type":"uint256"},{"indexed":true,"internalType":"bytes32","name":"salt","type":"bytes32"}],"name":"ContractCreated","type":"event"},{"anonymous":false,"inputs":[{"indexed":true,"internalType":"bytes32","name":"dataKey","type":"bytes32"},{"indexed":false,"internalType":"bytes","name":"dataValue","type":"bytes"}],"name":"DataChanged","type":"event"},{"anonymous":false,"inputs":[{"indexed":true,"internalType":"uint256","name":"operationType","type":"uint256"},{"indexed":true,"internalType":"address","name":"target","type":"address"},{"indexed":false,"internalType":"uint256","name":"value","type":"uint256"},{"indexed":true,"internalType":"bytes4","name":"selector","type":"bytes4"}],"name":"Executed","type":"event"},{"anonymous":false,"inputs":[],"name":"OwnershipRenounced","type":"event"},{"anonymous":false,"inputs":[{"indexed":true,"internalType":"address","name":"previousOwner","type":"address"},{"indexed":true,"internalType":"address","name":"newOwner","type":"address"}],"name":"OwnershipTransferStarted","type":"event"},{"anonymous":false,"inputs":[{"indexed":true,"internalType":"address","name":"previousOwner","type":"address"},{"indexed":true,"internalType":"address","name":"newOwner","type":"address"}],"name":"OwnershipTransferred","type":"event"},{"anonymous":false,"inputs":[],"name":"RenounceOwnershipStarted","type":"event"},{"anonymous":false,"inputs":[{"indexed":true,"internalType":"address","name":"from","type":"address"},{"indexed":true,"internalType":"uint256","name":"value","type":"uint256"},{"indexed":true,"internalType":"bytes32","name":"typeId","type":"bytes32"},{"indexed":false,"internalType":"bytes","name":"receivedData","type":"bytes"},{"indexed":false,"internalType":"bytes","name":"returnedValue","type":"bytes"}],"name":"UniversalReceiver","type":"event"},{"stateMutability":"payable","type":"fallback"},{"inputs":[],"name":"RENOUNCE_OWNERSHIP_CONFIRMATION_DELAY","outputs":[{"internalType":"uint256","name":"","type":"uint256"}],"stateMutability":"view","type":"function"},{"inputs":[],"name":"RENOUNCE_OWNERSHIP_CONFIRMATION_PERIOD","outputs":[{"internalType":"uint256","name":"","type":"uint256"}],"stateMutability":"view","type":"function"},{"inputs":[],"name":"VERSION","outputs":[{"internalType":"string","name":"","type":"string"}],"stateMutability":"view","type":"function"},{"inputs":[],"name":"acceptOwnership","outputs":[],"stateMutability":"nonpayable","type":"function"},{"inputs":[{"internalType":"bytes[]","name":"data","type":"bytes[]"}],"name":"batchCalls","outputs":[{"internalType":"bytes[]","name":"results","type":"bytes[]"}],"stateMutability":"nonpayable","type":"function"},{"inputs":[{"internalType":"uint256","name":"operationType","type":"uint256"},{"internalType":"address","name":"target","type":"address"},{"internalType":"uint256","name":"value","type":"uint256"},{"internalType":"bytes","name":"data","type":"bytes"}],"name":"execute","outputs":[{"internalType":"bytes","name":"","type":"bytes"}],"stateMutability":"payable","type":"function"},{"inputs":[{"internalType":"uint256[]","name":"operationsType","type":"uint256[]"},{"internalType":"address[]","name":"targets","type":"address[]"},{"internalType":"uint256[]","name":"values","type":"uint256[]"},{"internalType":"bytes[]","name":"datas","type":"bytes[]"}],"name":"executeBatch","outputs":[{"internalType":"bytes[]","name":"","type":"bytes[]"}],"stateMutability":"payable","type":"function"},{"inputs":[{"internalType":"bytes32","name":"dataKey","type":"bytes32"}],"name":"getData","outputs":[{"internalType":"bytes","name":"dataValue","type":"bytes"}],"stateMutability":"view","type":"function"},{"inputs":[{"internalType":"bytes32[]","name":"dataKeys","type":"bytes32[]"}],"name":"getDataBatch","outputs":[{"internalType":"bytes[]","name":"dataValues","type":"bytes[]"}],"stateMutability":"view","type":"function"},{"inputs":[{"internalType":"bytes32","name":"dataHash","type":"bytes32"},{"internalType":"bytes","name":"signature","type":"bytes"}],"name":"isValidSignature","outputs":[{"internalType":"bytes4","name":"returnedStatus","type":"bytes4"}],"stateMutability":"view","type":"function"},{"inputs":[],"name":"owner","outputs":[{"internalType":"address","name":"","type":"address"}],"stateMutability":"view","type":"function"},{"inputs":[],"name":"pendingOwner","outputs":[{"internalType":"address","name":"","type":"address"}],"stateMutability":"view","type":"function"},{"inputs":[],"name":"renounceOwnership","outputs":[],"stateMutability":"nonpayable","type":"function"},{"inputs":[{"internalType":"bytes32","name":"dataKey","type":"bytes32"},{"internalType":"bytes","name":"dataValue","type":"bytes"}],"name":"setData","outputs":[],"stateMutability":"payable","type":"function"},{"inputs":[{"internalType":"bytes32[]","name":"dataKeys","type":"bytes32[]"},{"internalType":"bytes[]","name":"dataValues","type":"bytes[]"}],"name":"setDataBatch","outputs":[],"stateMutability":"payable","type":"function"},{"inputs":[{"internalType":"bytes4","name":"interfaceId","type":"bytes4"}],"name":"supportsInterface","outputs":[{"internalType":"bool","name":"","type":"bool"}],"stateMutability":"view","type":"function"},{"inputs":[{"internalType":"address","name":"pendingNewOwner","type":"address"}],"name":"transferOwnership","outputs":[],"stateMutability":"nonpayable","type":"function"},{"inputs":[{"internalType":"bytes32","name":"typeId","type":"bytes32"},{"internalType":"bytes","name":"receivedData","type":"bytes"}],"name":"universalReceiver","outputs":[{"internalType":"bytes","name":"returnedValues","type":"bytes"}],"stateMutability":"payable","type":"function"},{"stateMutability":"payable","type":"receive"}],"evm":{"bytecode":{"linkReferences":{},"object":"6080604052604051620034883803806200348883398101604081905262000026916200012d565b3415620000ad577f9c4705229491d365fb5434052e12a386d6771d976bea61070a8c694e8affea3d60001b34336001600160a01b03167f9c3ba68eb5742b8e3961aea0afc7371a71bf433c8a67a831803b64c064a178c2604051620000a4906040808252600090820181905260606020830181905282015260800190565b60405180910390a45b620000b881620000bf565b506200015f565b6000546001600160a01b038281169116146200012a57600080546040516001600160a01b03808516939216917f8be0079c531659141344cd1fd0a4f28419497f9722a3daafe3b4186f6b6457e091a3600080546001600160a01b0319166001600160a01b0383161790555b50565b6000602082840312156200014057600080fd5b81516001600160a01b03811681146200015857600080fd5b9392505050565b613319806200016f6000396000f3fe60806040526004361061010d5760003560e01c806379ba509711610095578063dedff9c611610064578063dedff9c614610380578063e30c3978146103a0578063ead3fbdf146101da578063f2fde38b146103be578063ffa1ad74146103de57610146565b806379ba5097146103135780637f23690c146103285780638da5cb5b1461033b578063979024211461036d57610146565b806344c028fe116100dc57806344c028fe1461028b57806354f6127f146102ab5780636963d438146102cb5780636bb56a14146102eb578063715018a6146102fe57610146565b806301bfba61146101da57806301ffc9a7146102025780631626ba7e14610232578063318584521461026b57610146565b36610146573415610144576101426000805160206132c483398151915260001b60405180602001604052806000815250610410565b505b005b600036606060048210156101c25734156101ad576101ab6000805160206132c483398151915260001b84848080601f01602080910402602001604051908101604052809392919081815260200183838082843760009201919091525061041092505050565b505b506040805160208101909152600081526101cf565b6101cc838361069d565b90505b915050805190602001f35b3480156101e657600080fd5b506101ef60c881565b6040519081526020015b60405180910390f35b34801561020e57600080fd5b5061022261021d366004612850565b61084e565b60405190151581526020016101f9565b34801561023e57600080fd5b5061025261024d366004612930565b6108ee565b6040516001600160e01b031990911681526020016101f9565b61027e610279366004612a95565b610aa0565b6040516101f99190612bec565b61029e610299366004612c4e565b610b88565b6040516101f99190612ca2565b3480156102b757600080fd5b5061029e6102c6366004612cb5565b610c47565b3480156102d757600080fd5b5061027e6102e6366004612cce565b610c52565b61029e6102f9366004612930565b610410565b34801561030a57600080fd5b50610144610dad565b34801561031f57600080fd5b50610144610efa565b610144610336366004612930565b611067565b34801561034757600080fd5b506000546001600160a01b03165b6040516001600160a01b0390911681526020016101f9565b61014461037b366004612d42565b611126565b34801561038c57600080fd5b5061027e61039b366004612d9b565b6112a3565b3480156103ac57600080fd5b506003546001600160a01b0316610355565b3480156103ca57600080fd5b506101446103d9366004612dcf565b61134d565b3480156103ea57600080fd5b5061029e604051806040016040528060068152602001650302e31342e360d41b81525081565b6060341580159061042f57506000805160206132c48339815191528314155b15610488576104866000805160206132c483398151915260001b6000368080601f01602080910402602001604051908101604052809392919081815260200183838082843760009201919091525061041092505050565b505b60006104b37f0cfc51aec37c55a4d0b1a65c6255c4bf2fbdf6277f3cc0730c45b828b6db8b476114f9565b9050606060148251106105645760006104cb83612dea565b60601c90506104e181635122dded60e11b61159b565b1561056257604051635122dded60e11b81526001600160a01b0382169063a245bbda9061051890339034908b908b90600401612e21565b6000604051808303816000875af1158015610537573d6000803e3d6000fd5b505050506040513d6000823e601f3d908101601f1916820160405261055f9190810190612e4e565b91505b505b600061057d690cfc51aec37c55a4d0b160b01b87611624565b9050600061058a826114f9565b90506060601482511061063b5760006105a283612dea565b60601c90506105b881635122dded60e11b61159b565b1561063957604051635122dded60e11b81526001600160a01b0382169063a245bbda906105ef90339034908e908e90600401612e21565b6000604051808303816000875af115801561060e573d6000803e3d6000fd5b505050506040513d6000823e601f3d908101601f191682016040526106369190810190612e4e565b91505b505b838160405160200161064e929190612ebb565b60405160208183030381529060405295508734336001600160a01b03166000805160206132a48339815191528a8a60405161068a929190612ebb565b60405180910390a4505050505092915050565b60606000806106b76000356001600160e01b031916611670565b91509150346000141580156106ca575080155b15610722576107206000805160206132c483398151915260001b86868080601f01602080910402602001604051908101604052809392919081815260200183838082843760009201919091525061041092505050565b505b6000356001600160e01b03191615801561074357506001600160a01b038216155b15610761576040518060200160405280600081525092505050610848565b6001600160a01b03821661079b5760405163bb370b2b60e01b81526001600160e01b03196000351660048201526024015b60405180910390fd5b600080836001600160a01b0316836107b45760006107b6565b345b888833346040516020016107cd9493929190612ee0565b60408051601f19818403018152908290526107e791612f0b565b60006040518083038185875af1925050503d8060008114610824576040519150601f19603f3d011682016040523d82523d6000602084013e610829565b606091505b5091509150811561083f57935061084892505050565b80518060208301fd5b92915050565b60006001600160e01b03198216630b135d3f60e11b148061087f57506001600160e01b031982166324871b3d60e01b145b8061089a57506001600160e01b03198216631aed5a8560e21b145b806108b557506001600160e01b031982166394be599960e01b145b806108d057506001600160e01b03198216631a0eb6a560e01b145b806108df57506108df82611720565b80610848575061084882611745565b6000806109036000546001600160a01b031690565b90506001600160a01b0381163b15610a2057600080826001600160a01b0316631626ba7e60e01b878760405160240161093d929190612f27565b60408051601f198184030181529181526020820180516001600160e01b03166001600160e01b031990941693909317909252905161097b9190612f0b565b600060405180830381855afa9150503d80600081146109b6576040519150601f19603f3d011682016040523d82523d6000602084013e6109bb565b606091505b509150915060008280156109d0575081516020145b80156109f757508151630b135d3f60e11b906109f59084016020908101908501612f40565b145b905080610a0c576001600160e01b0319610a15565b630b135d3f60e11b5b945050505050610848565b600080610a2d8686611783565b90925090506000816004811115610a4657610a46612f59565b14610a5f57506001600160e01b03199250610848915050565b826001600160a01b0316826001600160a01b031614610a86576001600160e01b0319610a8f565b630b135d3f60e11b5b9350505050610848565b5092915050565b60603415610b07576040516001600160e01b03196000351660208201526000805160206132c483398151915290349033906000805160206132a48339815191529060240160408051601f1981840301815290829052610afe91612f6f565b60405180910390a45b6000546001600160a01b031633819003610b2f57610b27868686866117c8565b915050610b80565b6000610b3a82611925565b90506000610b4a888888886117c8565b90508115610b7b57610b7b8382604051602001610b679190612bec565b604051602081830303815290604052611a75565b925050505b949350505050565b60603415610bef576040516001600160e01b03196000351660208201526000805160206132c483398151915290349033906000805160206132a48339815191529060240160408051601f1981840301815290829052610be691612f6f565b60405180910390a45b6000546001600160a01b031633819003610c0f57610b2786868686611b92565b6000610c1a82611925565b90506000610c2a88888888611b92565b90508115610b7b57610b7b8382604051602001610b679190612ca2565b6060610848826114f9565b6060816001600160401b03811115610c6c57610c6c61286d565b604051908082528060200260200182016040528015610c9f57816020015b6060815260200190600190039081610c8a5790505b50905060005b82811015610a995760008030868685818110610cc357610cc3612f99565b9050602002810190610cd59190612faf565b604051610ce3929190612ff5565b600060405180830381855af49150503d8060008114610d1e576040519150601f19603f3d011682016040523d82523d6000602084013e610d23565b606091505b509150915081610d8557805115610d3d5780518082602001fd5b60405162461bcd60e51b815260206004820152601960248201527f4c5350303a20626174636843616c6c73207265766572746564000000000000006044820152606401610792565b80848481518110610d9857610d98612f99565b60209081029190910101525050600101610ca5565b6000546001600160a01b031633819003610e50576000546001600160a01b0316610dd5611c9d565b6000546001600160a01b0316610e4c57604080516001600160a01b0384166020820152600091810191909152610e4c907fa4e59c931d14f7c8a7a35027f92ee40b5f2886b9fdcdb78f30bc5ecce5a2f814906060015b60408051601f198184030181529190526001600160a01b0384169190611d90565b5050565b6000610e5b82611925565b90506000610e716000546001600160a01b031690565b9050610e7b611c9d565b6000546001600160a01b0316610ed557604080516001600160a01b0385166020820152600091810191909152610ed5907fa4e59c931d14f7c8a7a35027f92ee40b5f2886b9fdcdb78f30bc5ecce5a2f81490606001610e2b565b8115610ef457610ef48360405180602001604052806000815250611a75565b50505b50565b600354600160a01b900460ff1615610f2557604051635758dd0760e01b815260040160405180910390fd5b600080546003546001600160a01b0391821692911690338214610f7057610f4b82611925565b9050610f5682611e24565b600380546001600160a01b03191690556000600255610f78565b610f78611e92565b604080516001600160a01b038086166020830152841691810191909152610fe0907fa4e59c931d14f7c8a7a35027f92ee40b5f2886b9fdcdb78f30bc5ecce5a2f814906060015b60408051601f198184030181529190526001600160a01b0386169190611d90565b604080516001600160a01b038086166020830152841691810191909152611048907fceca317f109c43507871523e82dc2a3cc64dfa18f12da0b6db14f6e23f995538906060015b60408051601f198184030181529190526001600160a01b0385169190611d90565b8015610ef457610ef48260405180602001604052806000815250611a75565b34156110cc576040516001600160e01b03196000351660208201526000805160206132c483398151915290349033906000805160206132a48339815191529060240160408051601f19818403018152908290526110c391612f6f565b60405180910390a45b6000546001600160a01b0316338190036110ea57610ef48383611edf565b60006110f582611925565b90506111018484611edf565b8015611120576111208260405180602001604052806000815250611a75565b50505050565b341561118b576040516001600160e01b03196000351660208201526000805160206132c483398151915290349033906000805160206132a48339815191529060240160408051601f198184030181529082905261118291612f6f565b60405180910390a45b80518251146111ad57604051633bcc897960e01b815260040160405180910390fd5b81516000036111cf576040516397da5f9560e01b815260040160405180910390fd5b6000546001600160a01b0316338190036112335760005b83518110156111205761122b84828151811061120457611204612f99565b602002602001015184838151811061121e5761121e612f99565b6020026020010151611edf565b6001016111e6565b600061123e82611925565b905060005b84518110156112835761127b85828151811061126157611261612f99565b602002602001015185838151811061121e5761121e612f99565b600101611243565b508015611120576111208260405180602001604052806000815250611a75565b606081516001600160401b038111156112be576112be61286d565b6040519080825280602002602001820160405280156112f157816020015b60608152602001906001900390816112dc5790505b50905060005b82518110156113475761132283828151811061131557611315612f99565b60200260200101516114f9565b82828151811061133457611334612f99565b60209081029190910101526001016112f7565b50919050565b6000546001600160a01b031633819003611419576003805460ff60a01b1916600160a01b17905561137d82611f34565b816001600160a01b0316816001600160a01b03167f38d16b8cac22d99fc7c124b9cd0de2d3fa1faef420bfe791d8c362d765e2270060405160405180910390a3604080516001600160a01b038084166020830152841691810191909152611408907fe17117c9d2665d1dbeb479ed8058bbebde3c50ac50e2e65619f60006caac692690606001611027565b6003805460ff60a01b191690555050565b600061142482611925565b6003805460ff60a01b1916600160a01b179055905061144283611f34565b826001600160a01b0316826001600160a01b03167f38d16b8cac22d99fc7c124b9cd0de2d3fa1faef420bfe791d8c362d765e2270060405160405180910390a3604080516001600160a01b0380851660208301528516918101919091526114cd907fe17117c9d2665d1dbeb479ed8058bbebde3c50ac50e2e65619f60006caac692690606001610fbf565b6003805460ff60a01b191690558015610ef457610ef48260405180602001604052806000815250611a75565b600081815260016020526040902080546060919061151690613005565b80601f016020809104026020016040519081016040528092919081815260200182805461154290613005565b801561158f5780601f106115645761010080835404028352916020019161158f565b820191906000526020600020905b81548152906001019060200180831161157257829003601f168201915b50505050509050919050565b604080516001600160e01b03198316602480830191909152825180830390910181526044909101909152602080820180516001600160e01b03166301ffc9a760e01b178152825160009392849283928392918391908a617530fa92503d9150600051905082801561160d575060208210155b80156116195750600081115b979650505050505050565b604080516001600160b01b0319841660208201526000602a82018190526001600160601b03198416602c83015291829101604051602081830303815290604052905080610b8090613039565b60008080611695696773c5a04a6d4300884b60b11b6001600160e01b03198616611624565b905060006116a2826114f9565b90506014815110156116bb575060009485945092505050565b805160150361170857806014815181106116d7576116d7612f99565b01602001516001600160f81b031916600160f81b03611708576116f981612dea565b60601c95600195509350505050565b61171181612dea565b60601c95600095509350505050565b60006001600160e01b0319821663a918fa6b60e01b1480610848575061084882611f84565b6000806117586301ffc9a760e01b611670565b5090506001600160a01b0381166117725750600092915050565b61177c818461159b565b9392505050565b60008082516041036117b95760208301516040840151606085015160001a6117ad87828585611fa9565b945094505050506117c1565b506000905060025b9250929050565b6060835185511415806117e95750825184511415806117e957508151835114155b1561180757604051633ff55f4d60e01b815260040160405180910390fd5b84516000036118295760405163e9ad2b5f60e01b815260040160405180910390fd5b600085516001600160401b038111156118445761184461286d565b60405190808252806020026020018201604052801561187757816020015b60608152602001906001900390816118625790505b50905060005b865181101561191b576118f687828151811061189b5761189b612f99565b60200260200101518783815181106118b5576118b5612f99565b60200260200101518784815181106118cf576118cf612f99565b60200260200101518785815181106118e9576118e9612f99565b6020026020010151611b92565b82828151811061190857611908612f99565b602090810291909101015260010161187d565b5095945050505050565b6000816001600160a01b03163b60000361195d57604051630c39230160e01b81526001600160a01b0383166004820152602401610792565b6040516337a4a3c560e21b81526001600160a01b0383169063de928f1490611994903390309082903490600090369060040161305d565b6020604051808303816000875af19250505080156119cf575060408051601f3d908101601f191682019092526119cc918101906130ba565b60015b611a0e573d8080156119fd576040519150601f19603f3d011682016040523d82523d6000602084013e611a02565b606091505b5061134760008261206d565b6001600160e81b0319811662de928f60e81b14611a5157604051639d6741e360e01b8152600060048201526001600160e01b031982166024820152604401610792565b8060031a60f81b6001600160f81b031916600160f81b14915050919050565b919050565b816001600160a01b031663d3fc45d333303334600036604051602001611aa0969594939291906130d7565b60405160208183030381529060405280519060200120836040518363ffffffff1660e01b8152600401611ad4929190612f27565b6020604051808303816000875af1925050508015611b0f575060408051601f3d908101601f19168201909252611b0c918101906130ba565b60015b611b4e573d808015611b3d576040519150601f19603f3d011682016040523d82523d6000602084013e611b42565b606091505b50610ef460018261206d565b6001600160e01b0319811663d3fc45d360e01b14610ef457604051639d6741e360e01b8152600160048201526001600160e01b031982166024820152604401610792565b606084611bab57611ba484848461209a565b9050610b80565b60018503611be5576001600160a01b03841615611bdb57604051631820c12560e11b815260040160405180910390fd5b611ba483836121c4565b60028503611c1f576001600160a01b03841615611c1557604051631820c12560e11b815260040160405180910390fd5b611ba483836122c0565b60038503611c50578215611c46576040516339795e3560e11b815260040160405180910390fd5b611ba484836123a5565b60048503611c81578215611c7757604051635ac8313560e01b815260040160405180910390fd5b611ba484836124a2565b604051631d60ecef60e21b815260048101869052602401610792565b6002544390600090611cb19060c89061313d565b90506000611cc060c88361313d565b905080831180611cd05750600254155b15611d18576002839055600380546001600160a01b03191690556040517f81b7f830f1f0084db6497c486cbe6974c86488dcc4e3738eab94ab6d6b1653e790600090a1505050565b81831015611d4357604051630d8404a160e11b81526004810183905260248101829052604401610792565b611d4d6000611e24565b60006002819055600380546001600160a01b03191690556040517fd1f66c3d2bc1993a86be5e3d33709d98f0442381befcedd29f578b9b2506b1ce9190a1505050565b611daa6001600160a01b038416631aed5a8560e21b61159b565b15610ef457604051631aed5a8560e21b81526001600160a01b03841690636bb56a1490611ddd9085908590600401612f27565b6000604051808303816000875af1158015611dfc573d6000803e3d6000fd5b505050506040513d6000823e601f3d908101601f191682016040526111209190810190612e4e565b6000546001600160a01b03828116911614610ef757600080546040516001600160a01b03808516939216917f8be0079c531659141344cd1fd0a4f28419497f9722a3daafe3b4186f6b6457e091a3600080546001600160a01b0383166001600160a01b031990911617905550565b6003546001600160a01b03163314611ebf576040516308a3c8a560e31b8152336004820152602401610792565b611ec833611e24565b600380546001600160a01b03191690556000600255565b6000828152600160205260409020611ef7828261319e565b50817fece574603820d07bc9b91f2a932baadf4628aabcb8afba49776529c14a6104b282604051611f289190612ca2565b60405180910390a25050565b306001600160a01b03821603611f5d57604051631c0a54df60e31b815260040160405180910390fd5b600380546001600160a01b0319166001600160a01b03929092169190911790556000600255565b60006001600160e01b031982166318a6a9a560e21b1480610848575061084882612553565b6000807f7fffffffffffffffffffffffffffffff5d576e7357a4501ddfe92f46681b20a0831115611fe05750600090506003612064565b6040805160008082526020820180845289905260ff881692820192909252606081018690526080810185905260019060a0016020604051602081039080840390855afa158015612034573d6000803e3d6000fd5b5050604051601f1901519150506001600160a01b03811661205d57600060019250925050612064565b9150600090505b94509492505050565b80511561207d5780518082602001fd5b604051638c6a8ae360e01b81528215156004820152602401610792565b6060824710156120c6576040516301bf351f60e31b815247600482015260248101849052604401610792565b6120cf8261325d565b6001600160e01b031916846001600160a01b031660007f4810874456b8e6487bd861375cf6abd8e1c8bb5858c8ce36a86a04dabfac199e8660405161211691815260200190565b60405180910390a4600080856001600160a01b0316858560405161213a9190612f0b565b60006040518083038185875af1925050503d8060008114612177576040519150601f19603f3d011682016040523d82523d6000602084013e61217c565b606091505b50915091506121ba82826040518060400160405280601681526020017522a9219b991aac1d102ab735b737bbb71022b93937b960511b815250612588565b9695505050505050565b6060824710156121f0576040516301bf351f60e31b815247600482015260248101849052604401610792565b81516000036122125760405163b81cd8d960e01b815260040160405180910390fd5b600082516020840185f090506001600160a01b03811661224557604051630b07489b60e01b815260040160405180910390fd5b6000801b816001600160a01b031660017fa1fb700aaee2ae4a2ff6f91ce7eba292f89c2f5488b8ec4c5c5c8150692595c38760405161228691815260200190565b60405180910390a46040516001600160601b0319606083901b16602082015260340160405160208183030381529060405291505092915050565b606081516000036122e45760405163b81cd8d960e01b815260040160405180910390fd5b60006122fd83602085516122f89190613290565b6125a1565b9050600061231a846000602087516123159190613290565b6125ff565b9050600061232986848461270c565b905082816001600160a01b031660027fa1fb700aaee2ae4a2ff6f91ce7eba292f89c2f5488b8ec4c5c5c8150692595c38960405161236991815260200190565b60405180910390a46040516001600160601b0319606083901b166020820152603401604051602081830303815290604052935050505092915050565b60606123b08261325d565b6001600160e01b031916836001600160a01b031660037f4810874456b8e6487bd861375cf6abd8e1c8bb5858c8ce36a86a04dabfac199e60006040516123f891815260200190565b60405180910390a4600080846001600160a01b03168460405161241b9190612f0b565b600060405180830381855afa9150503d8060008114612456576040519150601f19603f3d011682016040523d82523d6000602084013e61245b565b606091505b509150915061249982826040518060400160405280601681526020017522a9219b991aac1d102ab735b737bbb71022b93937b960511b815250612588565b95945050505050565b60606124ad8261325d565b6001600160e01b031916836001600160a01b031660047f4810874456b8e6487bd861375cf6abd8e1c8bb5858c8ce36a86a04dabfac199e60006040516124f591815260200190565b60405180910390a4600080846001600160a01b0316846040516125189190612f0b565b600060405180830381855af49150503d8060008114612456576040519150601f19603f3d011682016040523d82523d6000602084013e61245b565b60006001600160e01b03198216631d516b2b60e21b148061084857506301ffc9a760e01b6001600160e01b0319831614610848565b6060831561259757508161177c565b61177c8383612810565b60006125ae82602061313d565b835110156125f65760405162461bcd60e51b8152602060048201526015602482015274746f427974657333325f6f75744f66426f756e647360581b6044820152606401610792565b50016020015190565b60608161260d81601f61313d565b101561264c5760405162461bcd60e51b815260206004820152600e60248201526d736c6963655f6f766572666c6f7760901b6044820152606401610792565b612656828461313d565b8451101561269a5760405162461bcd60e51b8152602060048201526011602482015270736c6963655f6f75744f66426f756e647360781b6044820152606401610792565b6060821580156126b95760405191506000825260208201604052612703565b6040519150601f8416801560200281840101858101878315602002848b0101015b818310156126f25780518352602092830192016126da565b5050858452601f01601f1916604052505b50949350505050565b60008347101561275e5760405162461bcd60e51b815260206004820152601d60248201527f437265617465323a20696e73756666696369656e742062616c616e63650000006044820152606401610792565b81516000036127af5760405162461bcd60e51b815260206004820181905260248201527f437265617465323a2062797465636f6465206c656e677468206973207a65726f6044820152606401610792565b8282516020840186f590506001600160a01b03811661177c5760405162461bcd60e51b815260206004820152601960248201527f437265617465323a204661696c6564206f6e206465706c6f79000000000000006044820152606401610792565b8151156128205781518083602001fd5b8060405162461bcd60e51b81526004016107929190612ca2565b6001600160e01b031981168114610ef757600080fd5b60006020828403121561286257600080fd5b813561177c8161283a565b634e487b7160e01b600052604160045260246000fd5b604051601f8201601f191681016001600160401b03811182821017156128ab576128ab61286d565b604052919050565b60006001600160401b038211156128cc576128cc61286d565b50601f01601f191660200190565b600082601f8301126128eb57600080fd5b81356128fe6128f9826128b3565b612883565b81815284602083860101111561291357600080fd5b816020850160208301376000918101602001919091529392505050565b6000806040838503121561294357600080fd5b8235915060208301356001600160401b0381111561296057600080fd5b61296c858286016128da565b9150509250929050565b60006001600160401b0382111561298f5761298f61286d565b5060051b60200190565b600082601f8301126129aa57600080fd5b813560206129ba6128f983612976565b82815260059290921b840181019181810190868411156129d957600080fd5b8286015b848110156129f457803583529183019183016129dd565b509695505050505050565b80356001600160a01b0381168114611a7057600080fd5b600082601f830112612a2757600080fd5b81356020612a376128f983612976565b82815260059290921b84018101918181019086841115612a5657600080fd5b8286015b848110156129f45780356001600160401b03811115612a795760008081fd5b612a878986838b01016128da565b845250918301918301612a5a565b60008060008060808587031215612aab57600080fd5b84356001600160401b0380821115612ac257600080fd5b612ace88838901612999565b9550602091508187013581811115612ae557600080fd5b8701601f81018913612af657600080fd5b8035612b046128f982612976565b81815260059190911b8201840190848101908b831115612b2357600080fd5b928501925b82841015612b4857612b39846129ff565b82529285019290850190612b28565b97505050506040870135915080821115612b6157600080fd5b612b6d88838901612999565b93506060870135915080821115612b8357600080fd5b50612b9087828801612a16565b91505092959194509250565b60005b83811015612bb7578181015183820152602001612b9f565b50506000910152565b60008151808452612bd8816020860160208601612b9c565b601f01601f19169290920160200192915050565b6000602080830181845280855180835260408601915060408160051b870101925083870160005b82811015612c4157603f19888603018452612c2f858351612bc0565b94509285019290850190600101612c13565b5092979650505050505050565b60008060008060808587031215612c6457600080fd5b84359350612c74602086016129ff565b92506040850135915060608501356001600160401b03811115612c9657600080fd5b612b90878288016128da565b60208152600061177c6020830184612bc0565b600060208284031215612cc757600080fd5b5035919050565b60008060208385031215612ce157600080fd5b82356001600160401b0380821115612cf857600080fd5b818501915085601f830112612d0c57600080fd5b813581811115612d1b57600080fd5b8660208260051b8501011115612d3057600080fd5b60209290920196919550909350505050565b60008060408385031215612d5557600080fd5b82356001600160401b0380821115612d6c57600080fd5b612d7886838701612999565b93506020850135915080821115612d8e57600080fd5b5061296c85828601612a16565b600060208284031215612dad57600080fd5b81356001600160401b03811115612dc357600080fd5b610b8084828501612999565b600060208284031215612de157600080fd5b61177c826129ff565b805160208201516001600160601b03198082169291906014831015612e195780818460140360031b1b83161693505b505050919050565b60018060a01b03851681528360208201528260408201526080606082015260006121ba6080830184612bc0565b600060208284031215612e6057600080fd5b81516001600160401b03811115612e7657600080fd5b8201601f81018413612e8757600080fd5b8051612e956128f9826128b3565b818152856020838501011115612eaa57600080fd5b612499826020830160208601612b9c565b604081526000612ece6040830185612bc0565b82810360208401526124998185612bc0565b8385823760609290921b6001600160601b031916919092019081526014810191909152603401919050565b60008251612f1d818460208701612b9c565b9190910192915050565b828152604060208201526000610b806040830184612bc0565b600060208284031215612f5257600080fd5b5051919050565b634e487b7160e01b600052602160045260246000fd5b604081526000612f826040830184612bc0565b828103602093840152600081529190910192915050565b634e487b7160e01b600052603260045260246000fd5b6000808335601e19843603018112612fc657600080fd5b8301803591506001600160401b03821115612fe057600080fd5b6020019150368190038213156117c157600080fd5b8183823760009101908152919050565b600181811c9082168061301957607f821691505b60208210810361134757634e487b7160e01b600052602260045260246000fd5b805160208083015191908110156113475760001960209190910360031b1b16919050565b6001600160a01b0387811682528681166020830152851660408201526060810184905260a06080820181905281018290526000828460c0840137600060c0848401015260c0601f19601f8501168301019050979650505050505050565b6000602082840312156130cc57600080fd5b815161177c8161283a565b60006bffffffffffffffffffffffff19808960601b168352808860601b166014840152808760601b1660288401525084603c8301528284605c8401375060009101605c0190815295945050505050565b634e487b7160e01b600052601160045260246000fd5b8082018082111561084857610848613127565b601f821115610ef457600081815260208120601f850160051c810160208610156131775750805b601f850160051c820191505b8181101561319657828155600101613183565b505050505050565b81516001600160401b038111156131b7576131b761286d565b6131cb816131c58454613005565b84613150565b602080601f83116001811461320057600084156131e85750858301515b600019600386901b1c1916600185901b178555613196565b600085815260208120601f198616915b8281101561322f57888601518255948401946001909101908401613210565b508582101561324d5787850151600019600388901b60f8161c191681555b5050505050600190811b01905550565b805160208201516001600160e01b03198082169291906004831015612e195760049290920360031b82901b161692915050565b818103818111156108485761084861312756fe9c3ba68eb5742b8e3961aea0afc7371a71bf433c8a67a831803b64c064a178c29c4705229491d365fb5434052e12a386d6771d976bea61070a8c694e8affea3da26469706673582212205aef3ca820f3692934d2b6cb89557c1af07b17bcf51aa369bb790a151ce30de664736f6c63430008130033","opcodes":"PUSH1 0x80 PUSH1 0x40 MSTORE PUSH1 0x40 MLOAD PUSH3 0x3488 CODESIZE SUB DUP1 PUSH3 0x3488 DUP4 CODECOPY DUP2 ADD PUSH1 0x40 DUP2 SWAP1 MSTORE PUSH3 0x26 SWAP2 PUSH3 0x12D JUMP JUMPDEST CALLVALUE ISZERO PUSH3 0xAD JUMPI PUSH32 0x9C4705229491D365FB5434052E12A386D6771D976BEA61070A8C694E8AFFEA3D PUSH1 0x0 SHL CALLVALUE CALLER PUSH1 0x1 PUSH1 0x1 PUSH1 0xA0 SHL SUB AND PUSH32 0x9C3BA68EB5742B8E3961AEA0AFC7371A71BF433C8A67A831803B64C064A178C2 PUSH1 0x40 MLOAD PUSH3 0xA4 SWAP1 PUSH1 0x40 DUP1 DUP3 MSTORE PUSH1 0x0 SWAP1 DUP3 ADD DUP2 SWAP1 MSTORE PUSH1 0x60 PUSH1 0x20 DUP4 ADD DUP2 SWAP1 MSTORE DUP3 ADD MSTORE PUSH1 0x80 ADD SWAP1 JUMP JUMPDEST PUSH1 0x40 MLOAD DUP1 SWAP2 SUB SWAP1 LOG4 JUMPDEST PUSH3 0xB8 DUP2 PUSH3 0xBF JUMP JUMPDEST POP PUSH3 0x15F JUMP JUMPDEST PUSH1 0x0 SLOAD PUSH1 0x1 PUSH1 0x1 PUSH1 0xA0 SHL SUB DUP3 DUP2 AND SWAP2 AND EQ PUSH3 0x12A JUMPI PUSH1 0x0 DUP1 SLOAD PUSH1 0x40 MLOAD PUSH1 0x1 PUSH1 0x1 PUSH1 0xA0 SHL SUB DUP1 DUP6 AND SWAP4 SWAP3 AND SWAP2 PUSH32 0x8BE0079C531659141344CD1FD0A4F28419497F9722A3DAAFE3B4186F6B6457E0 SWAP2 LOG3 PUSH1 0x0 DUP1 SLOAD PUSH1 0x1 PUSH1 0x1 PUSH1 0xA0 SHL SUB NOT AND PUSH1 0x1 PUSH1 0x1 PUSH1 0xA0 SHL SUB DUP4 AND OR SWAP1 SSTORE JUMPDEST POP JUMP JUMPDEST PUSH1 0x0 PUSH1 0x20 DUP3 DUP5 SUB SLT ISZERO PUSH3 0x140 JUMPI PUSH1 0x0 DUP1 REVERT JUMPDEST DUP2 MLOAD PUSH1 0x1 PUSH1 0x1 PUSH1 0xA0 SHL SUB DUP2 AND DUP2 EQ PUSH3 0x158 JUMPI PUSH1 0x0 DUP1 REVERT JUMPDEST SWAP4 SWAP3 POP POP POP JUMP JUMPDEST PUSH2 0x3319 DUP1 PUSH3 0x16F PUSH1 0x0 CODECOPY PUSH1 0x0 RETURN INVALID PUSH1 0x80 PUSH1 0x40 MSTORE PUSH1 0x4 CALLDATASIZE LT PUSH2 0x10D JUMPI PUSH1 0x0 CALLDATALOAD PUSH1 0xE0 SHR DUP1 PUSH4 0x79BA5097 GT PUSH2 0x95 JUMPI DUP1 PUSH4 0xDEDFF9C6 GT PUSH2 0x64 JUMPI DUP1 PUSH4 0xDEDFF9C6 EQ PUSH2 0x380 JUMPI DUP1 PUSH4 0xE30C3978 EQ PUSH2 0x3A0 JUMPI DUP1 PUSH4 0xEAD3FBDF EQ PUSH2 0x1DA JUMPI DUP1 PUSH4 0xF2FDE38B EQ PUSH2 0x3BE JUMPI DUP1 PUSH4 0xFFA1AD74 EQ PUSH2 0x3DE JUMPI PUSH2 0x146 JUMP JUMPDEST DUP1 PUSH4 0x79BA5097 EQ PUSH2 0x313 JUMPI DUP1 PUSH4 0x7F23690C EQ PUSH2 0x328 JUMPI DUP1 PUSH4 0x8DA5CB5B EQ PUSH2 0x33B JUMPI DUP1 PUSH4 0x97902421 EQ PUSH2 0x36D JUMPI PUSH2 0x146 JUMP JUMPDEST DUP1 PUSH4 0x44C028FE GT PUSH2 0xDC JUMPI DUP1 PUSH4 0x44C028FE EQ PUSH2 0x28B JUMPI DUP1 PUSH4 0x54F6127F EQ PUSH2 0x2AB JUMPI DUP1 PUSH4 0x6963D438 EQ PUSH2 0x2CB JUMPI DUP1 PUSH4 0x6BB56A14 EQ PUSH2 0x2EB JUMPI DUP1 PUSH4 0x715018A6 EQ PUSH2 0x2FE JUMPI PUSH2 0x146 JUMP JUMPDEST DUP1 PUSH4 0x1BFBA61 EQ PUSH2 0x1DA JUMPI DUP1 PUSH4 0x1FFC9A7 EQ PUSH2 0x202 JUMPI DUP1 PUSH4 0x1626BA7E EQ PUSH2 0x232 JUMPI DUP1 PUSH4 0x31858452 EQ PUSH2 0x26B JUMPI PUSH2 0x146 JUMP JUMPDEST CALLDATASIZE PUSH2 0x146 JUMPI CALLVALUE ISZERO PUSH2 0x144 JUMPI PUSH2 0x142 PUSH1 0x0 DUP1 MLOAD PUSH1 0x20 PUSH2 0x32C4 DUP4 CODECOPY DUP2 MLOAD SWAP2 MSTORE PUSH1 0x0 SHL PUSH1 0x40 MLOAD DUP1 PUSH1 0x20 ADD PUSH1 0x40 MSTORE DUP1 PUSH1 0x0 DUP2 MSTORE POP PUSH2 0x410 JUMP JUMPDEST POP JUMPDEST STOP JUMPDEST PUSH1 0x0 CALLDATASIZE PUSH1 0x60 PUSH1 0x4 DUP3 LT ISZERO PUSH2 0x1C2 JUMPI CALLVALUE ISZERO PUSH2 0x1AD JUMPI PUSH2 0x1AB PUSH1 0x0 DUP1 MLOAD PUSH1 0x20 PUSH2 0x32C4 DUP4 CODECOPY DUP2 MLOAD SWAP2 MSTORE PUSH1 0x0 SHL DUP5 DUP5 DUP1 DUP1 PUSH1 0x1F ADD PUSH1 0x20 DUP1 SWAP2 DIV MUL PUSH1 0x20 ADD PUSH1 0x40 MLOAD SWAP1 DUP2 ADD PUSH1 0x40 MSTORE DUP1 SWAP4 SWAP3 SWAP2 SWAP1 DUP2 DUP2 MSTORE PUSH1 0x20 ADD DUP4 DUP4 DUP1 DUP3 DUP5 CALLDATACOPY PUSH1 0x0 SWAP3 ADD SWAP2 SWAP1 SWAP2 MSTORE POP PUSH2 0x410 SWAP3 POP POP POP JUMP JUMPDEST POP JUMPDEST POP PUSH1 0x40 DUP1 MLOAD PUSH1 0x20 DUP2 ADD SWAP1 SWAP2 MSTORE PUSH1 0x0 DUP2 MSTORE PUSH2 0x1CF JUMP JUMPDEST PUSH2 0x1CC DUP4 DUP4 PUSH2 0x69D JUMP JUMPDEST SWAP1 POP JUMPDEST SWAP2 POP POP DUP1 MLOAD SWAP1 PUSH1 0x20 ADD RETURN JUMPDEST CALLVALUE DUP1 ISZERO PUSH2 0x1E6 JUMPI PUSH1 0x0 DUP1 REVERT JUMPDEST POP PUSH2 0x1EF PUSH1 0xC8 DUP2 JUMP JUMPDEST PUSH1 0x40 MLOAD SWAP1 DUP2 MSTORE PUSH1 0x20 ADD JUMPDEST PUSH1 0x40 MLOAD DUP1 SWAP2 SUB SWAP1 RETURN JUMPDEST CALLVALUE DUP1 ISZERO PUSH2 0x20E JUMPI PUSH1 0x0 DUP1 REVERT JUMPDEST POP PUSH2 0x222 PUSH2 0x21D CALLDATASIZE PUSH1 0x4 PUSH2 0x2850 JUMP JUMPDEST PUSH2 0x84E JUMP JUMPDEST PUSH1 0x40 MLOAD SWAP1 ISZERO ISZERO DUP2 MSTORE PUSH1 0x20 ADD PUSH2 0x1F9 JUMP JUMPDEST CALLVALUE DUP1 ISZERO PUSH2 0x23E JUMPI PUSH1 0x0 DUP1 REVERT JUMPDEST POP PUSH2 0x252 PUSH2 0x24D CALLDATASIZE PUSH1 0x4 PUSH2 0x2930 JUMP JUMPDEST PUSH2 0x8EE JUMP JUMPDEST PUSH1 0x40 MLOAD PUSH1 0x1 PUSH1 0x1 PUSH1 0xE0 SHL SUB NOT SWAP1 SWAP2 AND DUP2 MSTORE PUSH1 0x20 ADD PUSH2 0x1F9 JUMP JUMPDEST PUSH2 0x27E PUSH2 0x279 CALLDATASIZE PUSH1 0x4 PUSH2 0x2A95 JUMP JUMPDEST PUSH2 0xAA0 JUMP JUMPDEST PUSH1 0x40 MLOAD PUSH2 0x1F9 SWAP2 SWAP1 PUSH2 0x2BEC JUMP JUMPDEST PUSH2 0x29E PUSH2 0x299 CALLDATASIZE PUSH1 0x4 PUSH2 0x2C4E JUMP JUMPDEST PUSH2 0xB88 JUMP JUMPDEST PUSH1 0x40 MLOAD PUSH2 0x1F9 SWAP2 SWAP1 PUSH2 0x2CA2 JUMP JUMPDEST CALLVALUE DUP1 ISZERO PUSH2 0x2B7 JUMPI PUSH1 0x0 DUP1 REVERT JUMPDEST POP PUSH2 0x29E PUSH2 0x2C6 CALLDATASIZE PUSH1 0x4 PUSH2 0x2CB5 JUMP JUMPDEST PUSH2 0xC47 JUMP JUMPDEST CALLVALUE DUP1 ISZERO PUSH2 0x2D7 JUMPI PUSH1 0x0 DUP1 REVERT JUMPDEST POP PUSH2 0x27E PUSH2 0x2E6 CALLDATASIZE PUSH1 0x4 PUSH2 0x2CCE JUMP JUMPDEST PUSH2 0xC52 JUMP JUMPDEST PUSH2 0x29E PUSH2 0x2F9 CALLDATASIZE PUSH1 0x4 PUSH2 0x2930 JUMP JUMPDEST PUSH2 0x410 JUMP JUMPDEST CALLVALUE DUP1 ISZERO PUSH2 0x30A JUMPI PUSH1 0x0 DUP1 REVERT JUMPDEST POP PUSH2 0x144 PUSH2 0xDAD JUMP JUMPDEST CALLVALUE DUP1 ISZERO PUSH2 0x31F JUMPI PUSH1 0x0 DUP1 REVERT JUMPDEST POP PUSH2 0x144 PUSH2 0xEFA JUMP JUMPDEST PUSH2 0x144 PUSH2 0x336 CALLDATASIZE PUSH1 0x4 PUSH2 0x2930 JUMP JUMPDEST PUSH2 0x1067 JUMP JUMPDEST CALLVALUE DUP1 ISZERO PUSH2 0x347 JUMPI PUSH1 0x0 DUP1 REVERT JUMPDEST POP PUSH1 0x0 SLOAD PUSH1 0x1 PUSH1 0x1 PUSH1 0xA0 SHL SUB AND JUMPDEST PUSH1 0x40 MLOAD PUSH1 0x1 PUSH1 0x1 PUSH1 0xA0 SHL SUB SWAP1 SWAP2 AND DUP2 MSTORE PUSH1 0x20 ADD PUSH2 0x1F9 JUMP JUMPDEST PUSH2 0x144 PUSH2 0x37B CALLDATASIZE PUSH1 0x4 PUSH2 0x2D42 JUMP JUMPDEST PUSH2 0x1126 JUMP JUMPDEST CALLVALUE DUP1 ISZERO PUSH2 0x38C JUMPI PUSH1 0x0 DUP1 REVERT JUMPDEST POP PUSH2 0x27E PUSH2 0x39B CALLDATASIZE PUSH1 0x4 PUSH2 0x2D9B JUMP JUMPDEST PUSH2 0x12A3 JUMP JUMPDEST CALLVALUE DUP1 ISZERO PUSH2 0x3AC JUMPI PUSH1 0x0 DUP1 REVERT JUMPDEST POP PUSH1 0x3 SLOAD PUSH1 0x1 PUSH1 0x1 PUSH1 0xA0 SHL SUB AND PUSH2 0x355 JUMP JUMPDEST CALLVALUE DUP1 ISZERO PUSH2 0x3CA JUMPI PUSH1 0x0 DUP1 REVERT JUMPDEST POP PUSH2 0x144 PUSH2 0x3D9 CALLDATASIZE PUSH1 0x4 PUSH2 0x2DCF JUMP JUMPDEST PUSH2 0x134D JUMP JUMPDEST CALLVALUE DUP1 ISZERO PUSH2 0x3EA JUMPI PUSH1 0x0 DUP1 REVERT JUMPDEST POP PUSH2 0x29E PUSH1 0x40 MLOAD DUP1 PUSH1 0x40 ADD PUSH1 0x40 MSTORE DUP1 PUSH1 0x6 DUP2 MSTORE PUSH1 0x20 ADD PUSH6 0x302E31342E3 PUSH1 0xD4 SHL DUP2 MSTORE POP DUP2 JUMP JUMPDEST PUSH1 0x60 CALLVALUE ISZERO DUP1 ISZERO SWAP1 PUSH2 0x42F JUMPI POP PUSH1 0x0 DUP1 MLOAD PUSH1 0x20 PUSH2 0x32C4 DUP4 CODECOPY DUP2 MLOAD SWAP2 MSTORE DUP4 EQ ISZERO JUMPDEST ISZERO PUSH2 0x488 JUMPI PUSH2 0x486 PUSH1 0x0 DUP1 MLOAD PUSH1 0x20 PUSH2 0x32C4 DUP4 CODECOPY DUP2 MLOAD SWAP2 MSTORE PUSH1 0x0 SHL PUSH1 0x0 CALLDATASIZE DUP1 DUP1 PUSH1 0x1F ADD PUSH1 0x20 DUP1 SWAP2 DIV MUL PUSH1 0x20 ADD PUSH1 0x40 MLOAD SWAP1 DUP2 ADD PUSH1 0x40 MSTORE DUP1 SWAP4 SWAP3 SWAP2 SWAP1 DUP2 DUP2 MSTORE PUSH1 0x20 ADD DUP4 DUP4 DUP1 DUP3 DUP5 CALLDATACOPY PUSH1 0x0 SWAP3 ADD SWAP2 SWAP1 SWAP2 MSTORE POP PUSH2 0x410 SWAP3 POP POP POP JUMP JUMPDEST POP JUMPDEST PUSH1 0x0 PUSH2 0x4B3 PUSH32 0xCFC51AEC37C55A4D0B1A65C6255C4BF2FBDF6277F3CC0730C45B828B6DB8B47 PUSH2 0x14F9 JUMP JUMPDEST SWAP1 POP PUSH1 0x60 PUSH1 0x14 DUP3 MLOAD LT PUSH2 0x564 JUMPI PUSH1 0x0 PUSH2 0x4CB DUP4 PUSH2 0x2DEA JUMP JUMPDEST PUSH1 0x60 SHR SWAP1 POP PUSH2 0x4E1 DUP2 PUSH4 0x5122DDED PUSH1 0xE1 SHL PUSH2 0x159B JUMP JUMPDEST ISZERO PUSH2 0x562 JUMPI PUSH1 0x40 MLOAD PUSH4 0x5122DDED PUSH1 0xE1 SHL DUP2 MSTORE PUSH1 0x1 PUSH1 0x1 PUSH1 0xA0 SHL SUB DUP3 AND SWAP1 PUSH4 0xA245BBDA SWAP1 PUSH2 0x518 SWAP1 CALLER SWAP1 CALLVALUE SWAP1 DUP12 SWAP1 DUP12 SWAP1 PUSH1 0x4 ADD PUSH2 0x2E21 JUMP JUMPDEST PUSH1 0x0 PUSH1 0x40 MLOAD DUP1 DUP4 SUB DUP2 PUSH1 0x0 DUP8 GAS CALL ISZERO DUP1 ISZERO PUSH2 0x537 JUMPI RETURNDATASIZE PUSH1 0x0 DUP1 RETURNDATACOPY RETURNDATASIZE PUSH1 0x0 REVERT JUMPDEST POP POP POP POP PUSH1 0x40 MLOAD RETURNDATASIZE PUSH1 0x0 DUP3 RETURNDATACOPY PUSH1 0x1F RETURNDATASIZE SWAP1 DUP2 ADD PUSH1 0x1F NOT AND DUP3 ADD PUSH1 0x40 MSTORE PUSH2 0x55F SWAP2 SWAP1 DUP2 ADD SWAP1 PUSH2 0x2E4E JUMP JUMPDEST SWAP2 POP JUMPDEST POP JUMPDEST PUSH1 0x0 PUSH2 0x57D PUSH10 0xCFC51AEC37C55A4D0B1 PUSH1 0xB0 SHL DUP8 PUSH2 0x1624 JUMP JUMPDEST SWAP1 POP PUSH1 0x0 PUSH2 0x58A DUP3 PUSH2 0x14F9 JUMP JUMPDEST SWAP1 POP PUSH1 0x60 PUSH1 0x14 DUP3 MLOAD LT PUSH2 0x63B JUMPI PUSH1 0x0 PUSH2 0x5A2 DUP4 PUSH2 0x2DEA JUMP JUMPDEST PUSH1 0x60 SHR SWAP1 POP PUSH2 0x5B8 DUP2 PUSH4 0x5122DDED PUSH1 0xE1 SHL PUSH2 0x159B JUMP JUMPDEST ISZERO PUSH2 0x639 JUMPI PUSH1 0x40 MLOAD PUSH4 0x5122DDED PUSH1 0xE1 SHL DUP2 MSTORE PUSH1 0x1 PUSH1 0x1 PUSH1 0xA0 SHL SUB DUP3 AND SWAP1 PUSH4 0xA245BBDA SWAP1 PUSH2 0x5EF SWAP1 CALLER SWAP1 CALLVALUE SWAP1 DUP15 SWAP1 DUP15 SWAP1 PUSH1 0x4 ADD PUSH2 0x2E21 JUMP JUMPDEST PUSH1 0x0 PUSH1 0x40 MLOAD DUP1 DUP4 SUB DUP2 PUSH1 0x0 DUP8 GAS CALL ISZERO DUP1 ISZERO PUSH2 0x60E JUMPI RETURNDATASIZE PUSH1 0x0 DUP1 RETURNDATACOPY RETURNDATASIZE PUSH1 0x0 REVERT JUMPDEST POP POP POP POP PUSH1 0x40 MLOAD RETURNDATASIZE PUSH1 0x0 DUP3 RETURNDATACOPY PUSH1 0x1F RETURNDATASIZE SWAP1 DUP2 ADD PUSH1 0x1F NOT AND DUP3 ADD PUSH1 0x40 MSTORE PUSH2 0x636 SWAP2 SWAP1 DUP2 ADD SWAP1 PUSH2 0x2E4E JUMP JUMPDEST SWAP2 POP JUMPDEST POP JUMPDEST DUP4 DUP2 PUSH1 0x40 MLOAD PUSH1 0x20 ADD PUSH2 0x64E SWAP3 SWAP2 SWAP1 PUSH2 0x2EBB JUMP JUMPDEST PUSH1 0x40 MLOAD PUSH1 0x20 DUP2 DUP4 SUB SUB DUP2 MSTORE SWAP1 PUSH1 0x40 MSTORE SWAP6 POP DUP8 CALLVALUE CALLER PUSH1 0x1 PUSH1 0x1 PUSH1 0xA0 SHL SUB AND PUSH1 0x0 DUP1 MLOAD PUSH1 0x20 PUSH2 0x32A4 DUP4 CODECOPY DUP2 MLOAD SWAP2 MSTORE DUP11 DUP11 PUSH1 0x40 MLOAD PUSH2 0x68A SWAP3 SWAP2 SWAP1 PUSH2 0x2EBB JUMP JUMPDEST PUSH1 0x40 MLOAD DUP1 SWAP2 SUB SWAP1 LOG4 POP POP POP POP POP SWAP3 SWAP2 POP POP JUMP JUMPDEST PUSH1 0x60 PUSH1 0x0 DUP1 PUSH2 0x6B7 PUSH1 0x0 CALLDATALOAD PUSH1 0x1 PUSH1 0x1 PUSH1 0xE0 SHL SUB NOT AND PUSH2 0x1670 JUMP JUMPDEST SWAP2 POP SWAP2 POP CALLVALUE PUSH1 0x0 EQ ISZERO DUP1 ISZERO PUSH2 0x6CA JUMPI POP DUP1 ISZERO JUMPDEST ISZERO PUSH2 0x722 JUMPI PUSH2 0x720 PUSH1 0x0 DUP1 MLOAD PUSH1 0x20 PUSH2 0x32C4 DUP4 CODECOPY DUP2 MLOAD SWAP2 MSTORE PUSH1 0x0 SHL DUP7 DUP7 DUP1 DUP1 PUSH1 0x1F ADD PUSH1 0x20 DUP1 SWAP2 DIV MUL PUSH1 0x20 ADD PUSH1 0x40 MLOAD SWAP1 DUP2 ADD PUSH1 0x40 MSTORE DUP1 SWAP4 SWAP3 SWAP2 SWAP1 DUP2 DUP2 MSTORE PUSH1 0x20 ADD DUP4 DUP4 DUP1 DUP3 DUP5 CALLDATACOPY PUSH1 0x0 SWAP3 ADD SWAP2 SWAP1 SWAP2 MSTORE POP PUSH2 0x410 SWAP3 POP POP POP JUMP JUMPDEST POP JUMPDEST PUSH1 0x0 CALLDATALOAD PUSH1 0x1 PUSH1 0x1 PUSH1 0xE0 SHL SUB NOT AND ISZERO DUP1 ISZERO PUSH2 0x743 JUMPI POP PUSH1 0x1 PUSH1 0x1 PUSH1 0xA0 SHL SUB DUP3 AND ISZERO JUMPDEST ISZERO PUSH2 0x761 JUMPI PUSH1 0x40 MLOAD DUP1 PUSH1 0x20 ADD PUSH1 0x40 MSTORE DUP1 PUSH1 0x0 DUP2 MSTORE POP SWAP3 POP POP POP PUSH2 0x848 JUMP JUMPDEST PUSH1 0x1 PUSH1 0x1 PUSH1 0xA0 SHL SUB DUP3 AND PUSH2 0x79B JUMPI PUSH1 0x40 MLOAD PUSH4 0xBB370B2B PUSH1 0xE0 SHL DUP2 MSTORE PUSH1 0x1 PUSH1 0x1 PUSH1 0xE0 SHL SUB NOT PUSH1 0x0 CALLDATALOAD AND PUSH1 0x4 DUP3 ADD MSTORE PUSH1 0x24 ADD JUMPDEST PUSH1 0x40 MLOAD DUP1 SWAP2 SUB SWAP1 REVERT JUMPDEST PUSH1 0x0 DUP1 DUP4 PUSH1 0x1 PUSH1 0x1 PUSH1 0xA0 SHL SUB AND DUP4 PUSH2 0x7B4 JUMPI PUSH1 0x0 PUSH2 0x7B6 JUMP JUMPDEST CALLVALUE JUMPDEST DUP9 DUP9 CALLER CALLVALUE PUSH1 0x40 MLOAD PUSH1 0x20 ADD PUSH2 0x7CD SWAP5 SWAP4 SWAP3 SWAP2 SWAP1 PUSH2 0x2EE0 JUMP JUMPDEST PUSH1 0x40 DUP1 MLOAD PUSH1 0x1F NOT DUP2 DUP5 SUB ADD DUP2 MSTORE SWAP1 DUP3 SWAP1 MSTORE PUSH2 0x7E7 SWAP2 PUSH2 0x2F0B JUMP JUMPDEST PUSH1 0x0 PUSH1 0x40 MLOAD DUP1 DUP4 SUB DUP2 DUP6 DUP8 GAS CALL SWAP3 POP POP POP RETURNDATASIZE DUP1 PUSH1 0x0 DUP2 EQ PUSH2 0x824 JUMPI PUSH1 0x40 MLOAD SWAP2 POP PUSH1 0x1F NOT PUSH1 0x3F RETURNDATASIZE ADD AND DUP3 ADD PUSH1 0x40 MSTORE RETURNDATASIZE DUP3 MSTORE RETURNDATASIZE PUSH1 0x0 PUSH1 0x20 DUP5 ADD RETURNDATACOPY PUSH2 0x829 JUMP JUMPDEST PUSH1 0x60 SWAP2 POP JUMPDEST POP SWAP2 POP SWAP2 POP DUP2 ISZERO PUSH2 0x83F JUMPI SWAP4 POP PUSH2 0x848 SWAP3 POP POP POP JUMP JUMPDEST DUP1 MLOAD DUP1 PUSH1 0x20 DUP4 ADD REVERT JUMPDEST SWAP3 SWAP2 POP POP JUMP JUMPDEST PUSH1 0x0 PUSH1 0x1 PUSH1 0x1 PUSH1 0xE0 SHL SUB NOT DUP3 AND PUSH4 0xB135D3F PUSH1 0xE1 SHL EQ DUP1 PUSH2 0x87F JUMPI POP PUSH1 0x1 PUSH1 0x1 PUSH1 0xE0 SHL SUB NOT DUP3 AND PUSH4 0x24871B3D PUSH1 0xE0 SHL EQ JUMPDEST DUP1 PUSH2 0x89A JUMPI POP PUSH1 0x1 PUSH1 0x1 PUSH1 0xE0 SHL SUB NOT DUP3 AND PUSH4 0x1AED5A85 PUSH1 0xE2 SHL EQ JUMPDEST DUP1 PUSH2 0x8B5 JUMPI POP PUSH1 0x1 PUSH1 0x1 PUSH1 0xE0 SHL SUB NOT DUP3 AND PUSH4 0x94BE5999 PUSH1 0xE0 SHL EQ JUMPDEST DUP1 PUSH2 0x8D0 JUMPI POP PUSH1 0x1 PUSH1 0x1 PUSH1 0xE0 SHL SUB NOT DUP3 AND PUSH4 0x1A0EB6A5 PUSH1 0xE0 SHL EQ JUMPDEST DUP1 PUSH2 0x8DF JUMPI POP PUSH2 0x8DF DUP3 PUSH2 0x1720 JUMP JUMPDEST DUP1 PUSH2 0x848 JUMPI POP PUSH2 0x848 DUP3 PUSH2 0x1745 JUMP JUMPDEST PUSH1 0x0 DUP1 PUSH2 0x903 PUSH1 0x0 SLOAD PUSH1 0x1 PUSH1 0x1 PUSH1 0xA0 SHL SUB AND SWAP1 JUMP JUMPDEST SWAP1 POP PUSH1 0x1 PUSH1 0x1 PUSH1 0xA0 SHL SUB DUP2 AND EXTCODESIZE ISZERO PUSH2 0xA20 JUMPI PUSH1 0x0 DUP1 DUP3 PUSH1 0x1 PUSH1 0x1 PUSH1 0xA0 SHL SUB AND PUSH4 0x1626BA7E PUSH1 0xE0 SHL DUP8 DUP8 PUSH1 0x40 MLOAD PUSH1 0x24 ADD PUSH2 0x93D SWAP3 SWAP2 SWAP1 PUSH2 0x2F27 JUMP JUMPDEST PUSH1 0x40 DUP1 MLOAD PUSH1 0x1F NOT DUP2 DUP5 SUB ADD DUP2 MSTORE SWAP2 DUP2 MSTORE PUSH1 0x20 DUP3 ADD DUP1 MLOAD PUSH1 0x1 PUSH1 0x1 PUSH1 0xE0 SHL SUB AND PUSH1 0x1 PUSH1 0x1 PUSH1 0xE0 SHL SUB NOT SWAP1 SWAP5 AND SWAP4 SWAP1 SWAP4 OR SWAP1 SWAP3 MSTORE SWAP1 MLOAD PUSH2 0x97B SWAP2 SWAP1 PUSH2 0x2F0B JUMP JUMPDEST PUSH1 0x0 PUSH1 0x40 MLOAD DUP1 DUP4 SUB DUP2 DUP6 GAS STATICCALL SWAP2 POP POP RETURNDATASIZE DUP1 PUSH1 0x0 DUP2 EQ PUSH2 0x9B6 JUMPI PUSH1 0x40 MLOAD SWAP2 POP PUSH1 0x1F NOT PUSH1 0x3F RETURNDATASIZE ADD AND DUP3 ADD PUSH1 0x40 MSTORE RETURNDATASIZE DUP3 MSTORE RETURNDATASIZE PUSH1 0x0 PUSH1 0x20 DUP5 ADD RETURNDATACOPY PUSH2 0x9BB JUMP JUMPDEST PUSH1 0x60 SWAP2 POP JUMPDEST POP SWAP2 POP SWAP2 POP PUSH1 0x0 DUP3 DUP1 ISZERO PUSH2 0x9D0 JUMPI POP DUP2 MLOAD PUSH1 0x20 EQ JUMPDEST DUP1 ISZERO PUSH2 0x9F7 JUMPI POP DUP2 MLOAD PUSH4 0xB135D3F PUSH1 0xE1 SHL SWAP1 PUSH2 0x9F5 SWAP1 DUP5 ADD PUSH1 0x20 SWAP1 DUP2 ADD SWAP1 DUP6 ADD PUSH2 0x2F40 JUMP JUMPDEST EQ JUMPDEST SWAP1 POP DUP1 PUSH2 0xA0C JUMPI PUSH1 0x1 PUSH1 0x1 PUSH1 0xE0 SHL SUB NOT PUSH2 0xA15 JUMP JUMPDEST PUSH4 0xB135D3F PUSH1 0xE1 SHL JUMPDEST SWAP5 POP POP POP POP POP PUSH2 0x848 JUMP JUMPDEST PUSH1 0x0 DUP1 PUSH2 0xA2D DUP7 DUP7 PUSH2 0x1783 JUMP JUMPDEST SWAP1 SWAP3 POP SWAP1 POP PUSH1 0x0 DUP2 PUSH1 0x4 DUP2 GT ISZERO PUSH2 0xA46 JUMPI PUSH2 0xA46 PUSH2 0x2F59 JUMP JUMPDEST EQ PUSH2 0xA5F JUMPI POP PUSH1 0x1 PUSH1 0x1 PUSH1 0xE0 SHL SUB NOT SWAP3 POP PUSH2 0x848 SWAP2 POP POP JUMP JUMPDEST DUP3 PUSH1 0x1 PUSH1 0x1 PUSH1 0xA0 SHL SUB AND DUP3 PUSH1 0x1 PUSH1 0x1 PUSH1 0xA0 SHL SUB AND EQ PUSH2 0xA86 JUMPI PUSH1 0x1 PUSH1 0x1 PUSH1 0xE0 SHL SUB NOT PUSH2 0xA8F JUMP JUMPDEST PUSH4 0xB135D3F PUSH1 0xE1 SHL JUMPDEST SWAP4 POP POP POP POP PUSH2 0x848 JUMP JUMPDEST POP SWAP3 SWAP2 POP POP JUMP JUMPDEST PUSH1 0x60 CALLVALUE ISZERO PUSH2 0xB07 JUMPI PUSH1 0x40 MLOAD PUSH1 0x1 PUSH1 0x1 PUSH1 0xE0 SHL SUB NOT PUSH1 0x0 CALLDATALOAD AND PUSH1 0x20 DUP3 ADD MSTORE PUSH1 0x0 DUP1 MLOAD PUSH1 0x20 PUSH2 0x32C4 DUP4 CODECOPY DUP2 MLOAD SWAP2 MSTORE SWAP1 CALLVALUE SWAP1 CALLER SWAP1 PUSH1 0x0 DUP1 MLOAD PUSH1 0x20 PUSH2 0x32A4 DUP4 CODECOPY DUP2 MLOAD SWAP2 MSTORE SWAP1 PUSH1 0x24 ADD PUSH1 0x40 DUP1 MLOAD PUSH1 0x1F NOT DUP2 DUP5 SUB ADD DUP2 MSTORE SWAP1 DUP3 SWAP1 MSTORE PUSH2 0xAFE SWAP2 PUSH2 0x2F6F JUMP JUMPDEST PUSH1 0x40 MLOAD DUP1 SWAP2 SUB SWAP1 LOG4 JUMPDEST PUSH1 0x0 SLOAD PUSH1 0x1 PUSH1 0x1 PUSH1 0xA0 SHL SUB AND CALLER DUP2 SWAP1 SUB PUSH2 0xB2F JUMPI PUSH2 0xB27 DUP7 DUP7 DUP7 DUP7 PUSH2 0x17C8 JUMP JUMPDEST SWAP2 POP POP PUSH2 0xB80 JUMP JUMPDEST PUSH1 0x0 PUSH2 0xB3A DUP3 PUSH2 0x1925 JUMP JUMPDEST SWAP1 POP PUSH1 0x0 PUSH2 0xB4A DUP9 DUP9 DUP9 DUP9 PUSH2 0x17C8 JUMP JUMPDEST SWAP1 POP DUP2 ISZERO PUSH2 0xB7B JUMPI PUSH2 0xB7B DUP4 DUP3 PUSH1 0x40 MLOAD PUSH1 0x20 ADD PUSH2 0xB67 SWAP2 SWAP1 PUSH2 0x2BEC JUMP JUMPDEST PUSH1 0x40 MLOAD PUSH1 0x20 DUP2 DUP4 SUB SUB DUP2 MSTORE SWAP1 PUSH1 0x40 MSTORE PUSH2 0x1A75 JUMP JUMPDEST SWAP3 POP POP POP JUMPDEST SWAP5 SWAP4 POP POP POP POP JUMP JUMPDEST PUSH1 0x60 CALLVALUE ISZERO PUSH2 0xBEF JUMPI PUSH1 0x40 MLOAD PUSH1 0x1 PUSH1 0x1 PUSH1 0xE0 SHL SUB NOT PUSH1 0x0 CALLDATALOAD AND PUSH1 0x20 DUP3 ADD MSTORE PUSH1 0x0 DUP1 MLOAD PUSH1 0x20 PUSH2 0x32C4 DUP4 CODECOPY DUP2 MLOAD SWAP2 MSTORE SWAP1 CALLVALUE SWAP1 CALLER SWAP1 PUSH1 0x0 DUP1 MLOAD PUSH1 0x20 PUSH2 0x32A4 DUP4 CODECOPY DUP2 MLOAD SWAP2 MSTORE SWAP1 PUSH1 0x24 ADD PUSH1 0x40 DUP1 MLOAD PUSH1 0x1F NOT DUP2 DUP5 SUB ADD DUP2 MSTORE SWAP1 DUP3 SWAP1 MSTORE PUSH2 0xBE6 SWAP2 PUSH2 0x2F6F JUMP JUMPDEST PUSH1 0x40 MLOAD DUP1 SWAP2 SUB SWAP1 LOG4 JUMPDEST PUSH1 0x0 SLOAD PUSH1 0x1 PUSH1 0x1 PUSH1 0xA0 SHL SUB AND CALLER DUP2 SWAP1 SUB PUSH2 0xC0F JUMPI PUSH2 0xB27 DUP7 DUP7 DUP7 DUP7 PUSH2 0x1B92 JUMP JUMPDEST PUSH1 0x0 PUSH2 0xC1A DUP3 PUSH2 0x1925 JUMP JUMPDEST SWAP1 POP PUSH1 0x0 PUSH2 0xC2A DUP9 DUP9 DUP9 DUP9 PUSH2 0x1B92 JUMP JUMPDEST SWAP1 POP DUP2 ISZERO PUSH2 0xB7B JUMPI PUSH2 0xB7B DUP4 DUP3 PUSH1 0x40 MLOAD PUSH1 0x20 ADD PUSH2 0xB67 SWAP2 SWAP1 PUSH2 0x2CA2 JUMP JUMPDEST PUSH1 0x60 PUSH2 0x848 DUP3 PUSH2 0x14F9 JUMP JUMPDEST PUSH1 0x60 DUP2 PUSH1 0x1 PUSH1 0x1 PUSH1 0x40 SHL SUB DUP2 GT ISZERO PUSH2 0xC6C JUMPI PUSH2 0xC6C PUSH2 0x286D JUMP JUMPDEST PUSH1 0x40 MLOAD SWAP1 DUP1 DUP3 MSTORE DUP1 PUSH1 0x20 MUL PUSH1 0x20 ADD DUP3 ADD PUSH1 0x40 MSTORE DUP1 ISZERO PUSH2 0xC9F JUMPI DUP2 PUSH1 0x20 ADD JUMPDEST PUSH1 0x60 DUP2 MSTORE PUSH1 0x20 ADD SWAP1 PUSH1 0x1 SWAP1 SUB SWAP1 DUP2 PUSH2 0xC8A JUMPI SWAP1 POP JUMPDEST POP SWAP1 POP PUSH1 0x0 JUMPDEST DUP3 DUP2 LT ISZERO PUSH2 0xA99 JUMPI PUSH1 0x0 DUP1 ADDRESS DUP7 DUP7 DUP6 DUP2 DUP2 LT PUSH2 0xCC3 JUMPI PUSH2 0xCC3 PUSH2 0x2F99 JUMP JUMPDEST SWAP1 POP PUSH1 0x20 MUL DUP2 ADD SWAP1 PUSH2 0xCD5 SWAP2 SWAP1 PUSH2 0x2FAF JUMP JUMPDEST PUSH1 0x40 MLOAD PUSH2 0xCE3 SWAP3 SWAP2 SWAP1 PUSH2 0x2FF5 JUMP JUMPDEST PUSH1 0x0 PUSH1 0x40 MLOAD DUP1 DUP4 SUB DUP2 DUP6 GAS DELEGATECALL SWAP2 POP POP RETURNDATASIZE DUP1 PUSH1 0x0 DUP2 EQ PUSH2 0xD1E JUMPI PUSH1 0x40 MLOAD SWAP2 POP PUSH1 0x1F NOT PUSH1 0x3F RETURNDATASIZE ADD AND DUP3 ADD PUSH1 0x40 MSTORE RETURNDATASIZE DUP3 MSTORE RETURNDATASIZE PUSH1 0x0 PUSH1 0x20 DUP5 ADD RETURNDATACOPY PUSH2 0xD23 JUMP JUMPDEST PUSH1 0x60 SWAP2 POP JUMPDEST POP SWAP2 POP SWAP2 POP DUP2 PUSH2 0xD85 JUMPI DUP1 MLOAD ISZERO PUSH2 0xD3D JUMPI DUP1 MLOAD DUP1 DUP3 PUSH1 0x20 ADD REVERT JUMPDEST PUSH1 0x40 MLOAD PUSH3 0x461BCD PUSH1 0xE5 SHL DUP2 MSTORE PUSH1 0x20 PUSH1 0x4 DUP3 ADD MSTORE PUSH1 0x19 PUSH1 0x24 DUP3 ADD MSTORE PUSH32 0x4C5350303A20626174636843616C6C7320726576657274656400000000000000 PUSH1 0x44 DUP3 ADD MSTORE PUSH1 0x64 ADD PUSH2 0x792 JUMP JUMPDEST DUP1 DUP5 DUP5 DUP2 MLOAD DUP2 LT PUSH2 0xD98 JUMPI PUSH2 0xD98 PUSH2 0x2F99 JUMP JUMPDEST PUSH1 0x20 SWAP1 DUP2 MUL SWAP2 SWAP1 SWAP2 ADD ADD MSTORE POP POP PUSH1 0x1 ADD PUSH2 0xCA5 JUMP JUMPDEST PUSH1 0x0 SLOAD PUSH1 0x1 PUSH1 0x1 PUSH1 0xA0 SHL SUB AND CALLER DUP2 SWAP1 SUB PUSH2 0xE50 JUMPI PUSH1 0x0 SLOAD PUSH1 0x1 PUSH1 0x1 PUSH1 0xA0 SHL SUB AND PUSH2 0xDD5 PUSH2 0x1C9D JUMP JUMPDEST PUSH1 0x0 SLOAD PUSH1 0x1 PUSH1 0x1 PUSH1 0xA0 SHL SUB AND PUSH2 0xE4C JUMPI PUSH1 0x40 DUP1 MLOAD PUSH1 0x1 PUSH1 0x1 PUSH1 0xA0 SHL SUB DUP5 AND PUSH1 0x20 DUP3 ADD MSTORE PUSH1 0x0 SWAP2 DUP2 ADD SWAP2 SWAP1 SWAP2 MSTORE PUSH2 0xE4C SWAP1 PUSH32 0xA4E59C931D14F7C8A7A35027F92EE40B5F2886B9FDCDB78F30BC5ECCE5A2F814 SWAP1 PUSH1 0x60 ADD JUMPDEST PUSH1 0x40 DUP1 MLOAD PUSH1 0x1F NOT DUP2 DUP5 SUB ADD DUP2 MSTORE SWAP2 SWAP1 MSTORE PUSH1 0x1 PUSH1 0x1 PUSH1 0xA0 SHL SUB DUP5 AND SWAP2 SWAP1 PUSH2 0x1D90 JUMP JUMPDEST POP POP JUMP JUMPDEST PUSH1 0x0 PUSH2 0xE5B DUP3 PUSH2 0x1925 JUMP JUMPDEST SWAP1 POP PUSH1 0x0 PUSH2 0xE71 PUSH1 0x0 SLOAD PUSH1 0x1 PUSH1 0x1 PUSH1 0xA0 SHL SUB AND SWAP1 JUMP JUMPDEST SWAP1 POP PUSH2 0xE7B PUSH2 0x1C9D JUMP JUMPDEST PUSH1 0x0 SLOAD PUSH1 0x1 PUSH1 0x1 PUSH1 0xA0 SHL SUB AND PUSH2 0xED5 JUMPI PUSH1 0x40 DUP1 MLOAD PUSH1 0x1 PUSH1 0x1 PUSH1 0xA0 SHL SUB DUP6 AND PUSH1 0x20 DUP3 ADD MSTORE PUSH1 0x0 SWAP2 DUP2 ADD SWAP2 SWAP1 SWAP2 MSTORE PUSH2 0xED5 SWAP1 PUSH32 0xA4E59C931D14F7C8A7A35027F92EE40B5F2886B9FDCDB78F30BC5ECCE5A2F814 SWAP1 PUSH1 0x60 ADD PUSH2 0xE2B JUMP JUMPDEST DUP2 ISZERO PUSH2 0xEF4 JUMPI PUSH2 0xEF4 DUP4 PUSH1 0x40 MLOAD DUP1 PUSH1 0x20 ADD PUSH1 0x40 MSTORE DUP1 PUSH1 0x0 DUP2 MSTORE POP PUSH2 0x1A75 JUMP JUMPDEST POP POP JUMPDEST POP JUMP JUMPDEST PUSH1 0x3 SLOAD PUSH1 0x1 PUSH1 0xA0 SHL SWAP1 DIV PUSH1 0xFF AND ISZERO PUSH2 0xF25 JUMPI PUSH1 0x40 MLOAD PUSH4 0x5758DD07 PUSH1 0xE0 SHL DUP2 MSTORE PUSH1 0x4 ADD PUSH1 0x40 MLOAD DUP1 SWAP2 SUB SWAP1 REVERT JUMPDEST PUSH1 0x0 DUP1 SLOAD PUSH1 0x3 SLOAD PUSH1 0x1 PUSH1 0x1 PUSH1 0xA0 SHL SUB SWAP2 DUP3 AND SWAP3 SWAP2 AND SWAP1 CALLER DUP3 EQ PUSH2 0xF70 JUMPI PUSH2 0xF4B DUP3 PUSH2 0x1925 JUMP JUMPDEST SWAP1 POP PUSH2 0xF56 DUP3 PUSH2 0x1E24 JUMP JUMPDEST PUSH1 0x3 DUP1 SLOAD PUSH1 0x1 PUSH1 0x1 PUSH1 0xA0 SHL SUB NOT AND SWAP1 SSTORE PUSH1 0x0 PUSH1 0x2 SSTORE PUSH2 0xF78 JUMP JUMPDEST PUSH2 0xF78 PUSH2 0x1E92 JUMP JUMPDEST PUSH1 0x40 DUP1 MLOAD PUSH1 0x1 PUSH1 0x1 PUSH1 0xA0 SHL SUB DUP1 DUP7 AND PUSH1 0x20 DUP4 ADD MSTORE DUP5 AND SWAP2 DUP2 ADD SWAP2 SWAP1 SWAP2 MSTORE PUSH2 0xFE0 SWAP1 PUSH32 0xA4E59C931D14F7C8A7A35027F92EE40B5F2886B9FDCDB78F30BC5ECCE5A2F814 SWAP1 PUSH1 0x60 ADD JUMPDEST PUSH1 0x40 DUP1 MLOAD PUSH1 0x1F NOT DUP2 DUP5 SUB ADD DUP2 MSTORE SWAP2 SWAP1 MSTORE PUSH1 0x1 PUSH1 0x1 PUSH1 0xA0 SHL SUB DUP7 AND SWAP2 SWAP1 PUSH2 0x1D90 JUMP JUMPDEST PUSH1 0x40 DUP1 MLOAD PUSH1 0x1 PUSH1 0x1 PUSH1 0xA0 SHL SUB DUP1 DUP7 AND PUSH1 0x20 DUP4 ADD MSTORE DUP5 AND SWAP2 DUP2 ADD SWAP2 SWAP1 SWAP2 MSTORE PUSH2 0x1048 SWAP1 PUSH32 0xCECA317F109C43507871523E82DC2A3CC64DFA18F12DA0B6DB14F6E23F995538 SWAP1 PUSH1 0x60 ADD JUMPDEST PUSH1 0x40 DUP1 MLOAD PUSH1 0x1F NOT DUP2 DUP5 SUB ADD DUP2 MSTORE SWAP2 SWAP1 MSTORE PUSH1 0x1 PUSH1 0x1 PUSH1 0xA0 SHL SUB DUP6 AND SWAP2 SWAP1 PUSH2 0x1D90 JUMP JUMPDEST DUP1 ISZERO PUSH2 0xEF4 JUMPI PUSH2 0xEF4 DUP3 PUSH1 0x40 MLOAD DUP1 PUSH1 0x20 ADD PUSH1 0x40 MSTORE DUP1 PUSH1 0x0 DUP2 MSTORE POP PUSH2 0x1A75 JUMP JUMPDEST CALLVALUE ISZERO PUSH2 0x10CC JUMPI PUSH1 0x40 MLOAD PUSH1 0x1 PUSH1 0x1 PUSH1 0xE0 SHL SUB NOT PUSH1 0x0 CALLDATALOAD AND PUSH1 0x20 DUP3 ADD MSTORE PUSH1 0x0 DUP1 MLOAD PUSH1 0x20 PUSH2 0x32C4 DUP4 CODECOPY DUP2 MLOAD SWAP2 MSTORE SWAP1 CALLVALUE SWAP1 CALLER SWAP1 PUSH1 0x0 DUP1 MLOAD PUSH1 0x20 PUSH2 0x32A4 DUP4 CODECOPY DUP2 MLOAD SWAP2 MSTORE SWAP1 PUSH1 0x24 ADD PUSH1 0x40 DUP1 MLOAD PUSH1 0x1F NOT DUP2 DUP5 SUB ADD DUP2 MSTORE SWAP1 DUP3 SWAP1 MSTORE PUSH2 0x10C3 SWAP2 PUSH2 0x2F6F JUMP JUMPDEST PUSH1 0x40 MLOAD DUP1 SWAP2 SUB SWAP1 LOG4 JUMPDEST PUSH1 0x0 SLOAD PUSH1 0x1 PUSH1 0x1 PUSH1 0xA0 SHL SUB AND CALLER DUP2 SWAP1 SUB PUSH2 0x10EA JUMPI PUSH2 0xEF4 DUP4 DUP4 PUSH2 0x1EDF JUMP JUMPDEST PUSH1 0x0 PUSH2 0x10F5 DUP3 PUSH2 0x1925 JUMP JUMPDEST SWAP1 POP PUSH2 0x1101 DUP5 DUP5 PUSH2 0x1EDF JUMP JUMPDEST DUP1 ISZERO PUSH2 0x1120 JUMPI PUSH2 0x1120 DUP3 PUSH1 0x40 MLOAD DUP1 PUSH1 0x20 ADD PUSH1 0x40 MSTORE DUP1 PUSH1 0x0 DUP2 MSTORE POP PUSH2 0x1A75 JUMP JUMPDEST POP POP POP POP JUMP JUMPDEST CALLVALUE ISZERO PUSH2 0x118B JUMPI PUSH1 0x40 MLOAD PUSH1 0x1 PUSH1 0x1 PUSH1 0xE0 SHL SUB NOT PUSH1 0x0 CALLDATALOAD AND PUSH1 0x20 DUP3 ADD MSTORE PUSH1 0x0 DUP1 MLOAD PUSH1 0x20 PUSH2 0x32C4 DUP4 CODECOPY DUP2 MLOAD SWAP2 MSTORE SWAP1 CALLVALUE SWAP1 CALLER SWAP1 PUSH1 0x0 DUP1 MLOAD PUSH1 0x20 PUSH2 0x32A4 DUP4 CODECOPY DUP2 MLOAD SWAP2 MSTORE SWAP1 PUSH1 0x24 ADD PUSH1 0x40 DUP1 MLOAD PUSH1 0x1F NOT DUP2 DUP5 SUB ADD DUP2 MSTORE SWAP1 DUP3 SWAP1 MSTORE PUSH2 0x1182 SWAP2 PUSH2 0x2F6F JUMP JUMPDEST PUSH1 0x40 MLOAD DUP1 SWAP2 SUB SWAP1 LOG4 JUMPDEST DUP1 MLOAD DUP3 MLOAD EQ PUSH2 0x11AD JUMPI PUSH1 0x40 MLOAD PUSH4 0x3BCC8979 PUSH1 0xE0 SHL DUP2 MSTORE PUSH1 0x4 ADD PUSH1 0x40 MLOAD DUP1 SWAP2 SUB SWAP1 REVERT JUMPDEST DUP2 MLOAD PUSH1 0x0 SUB PUSH2 0x11CF JUMPI PUSH1 0x40 MLOAD PUSH4 0x97DA5F95 PUSH1 0xE0 SHL DUP2 MSTORE PUSH1 0x4 ADD PUSH1 0x40 MLOAD DUP1 SWAP2 SUB SWAP1 REVERT JUMPDEST PUSH1 0x0 SLOAD PUSH1 0x1 PUSH1 0x1 PUSH1 0xA0 SHL SUB AND CALLER DUP2 SWAP1 SUB PUSH2 0x1233 JUMPI PUSH1 0x0 JUMPDEST DUP4 MLOAD DUP2 LT ISZERO PUSH2 0x1120 JUMPI PUSH2 0x122B DUP5 DUP3 DUP2 MLOAD DUP2 LT PUSH2 0x1204 JUMPI PUSH2 0x1204 PUSH2 0x2F99 JUMP JUMPDEST PUSH1 0x20 MUL PUSH1 0x20 ADD ADD MLOAD DUP5 DUP4 DUP2 MLOAD DUP2 LT PUSH2 0x121E JUMPI PUSH2 0x121E PUSH2 0x2F99 JUMP JUMPDEST PUSH1 0x20 MUL PUSH1 0x20 ADD ADD MLOAD PUSH2 0x1EDF JUMP JUMPDEST PUSH1 0x1 ADD PUSH2 0x11E6 JUMP JUMPDEST PUSH1 0x0 PUSH2 0x123E DUP3 PUSH2 0x1925 JUMP JUMPDEST SWAP1 POP PUSH1 0x0 JUMPDEST DUP5 MLOAD DUP2 LT ISZERO PUSH2 0x1283 JUMPI PUSH2 0x127B DUP6 DUP3 DUP2 MLOAD DUP2 LT PUSH2 0x1261 JUMPI PUSH2 0x1261 PUSH2 0x2F99 JUMP JUMPDEST PUSH1 0x20 MUL PUSH1 0x20 ADD ADD MLOAD DUP6 DUP4 DUP2 MLOAD DUP2 LT PUSH2 0x121E JUMPI PUSH2 0x121E PUSH2 0x2F99 JUMP JUMPDEST PUSH1 0x1 ADD PUSH2 0x1243 JUMP JUMPDEST POP DUP1 ISZERO PUSH2 0x1120 JUMPI PUSH2 0x1120 DUP3 PUSH1 0x40 MLOAD DUP1 PUSH1 0x20 ADD PUSH1 0x40 MSTORE DUP1 PUSH1 0x0 DUP2 MSTORE POP PUSH2 0x1A75 JUMP JUMPDEST PUSH1 0x60 DUP2 MLOAD PUSH1 0x1 PUSH1 0x1 PUSH1 0x40 SHL SUB DUP2 GT ISZERO PUSH2 0x12BE JUMPI PUSH2 0x12BE PUSH2 0x286D JUMP JUMPDEST PUSH1 0x40 MLOAD SWAP1 DUP1 DUP3 MSTORE DUP1 PUSH1 0x20 MUL PUSH1 0x20 ADD DUP3 ADD PUSH1 0x40 MSTORE DUP1 ISZERO PUSH2 0x12F1 JUMPI DUP2 PUSH1 0x20 ADD JUMPDEST PUSH1 0x60 DUP2 MSTORE PUSH1 0x20 ADD SWAP1 PUSH1 0x1 SWAP1 SUB SWAP1 DUP2 PUSH2 0x12DC JUMPI SWAP1 POP JUMPDEST POP SWAP1 POP PUSH1 0x0 JUMPDEST DUP3 MLOAD DUP2 LT ISZERO PUSH2 0x1347 JUMPI PUSH2 0x1322 DUP4 DUP3 DUP2 MLOAD DUP2 LT PUSH2 0x1315 JUMPI PUSH2 0x1315 PUSH2 0x2F99 JUMP JUMPDEST PUSH1 0x20 MUL PUSH1 0x20 ADD ADD MLOAD PUSH2 0x14F9 JUMP JUMPDEST DUP3 DUP3 DUP2 MLOAD DUP2 LT PUSH2 0x1334 JUMPI PUSH2 0x1334 PUSH2 0x2F99 JUMP JUMPDEST PUSH1 0x20 SWAP1 DUP2 MUL SWAP2 SWAP1 SWAP2 ADD ADD MSTORE PUSH1 0x1 ADD PUSH2 0x12F7 JUMP JUMPDEST POP SWAP2 SWAP1 POP JUMP JUMPDEST PUSH1 0x0 SLOAD PUSH1 0x1 PUSH1 0x1 PUSH1 0xA0 SHL SUB AND CALLER DUP2 SWAP1 SUB PUSH2 0x1419 JUMPI PUSH1 0x3 DUP1 SLOAD PUSH1 0xFF PUSH1 0xA0 SHL NOT AND PUSH1 0x1 PUSH1 0xA0 SHL OR SWAP1 SSTORE PUSH2 0x137D DUP3 PUSH2 0x1F34 JUMP JUMPDEST DUP2 PUSH1 0x1 PUSH1 0x1 PUSH1 0xA0 SHL SUB AND DUP2 PUSH1 0x1 PUSH1 0x1 PUSH1 0xA0 SHL SUB AND PUSH32 0x38D16B8CAC22D99FC7C124B9CD0DE2D3FA1FAEF420BFE791D8C362D765E22700 PUSH1 0x40 MLOAD PUSH1 0x40 MLOAD DUP1 SWAP2 SUB SWAP1 LOG3 PUSH1 0x40 DUP1 MLOAD PUSH1 0x1 PUSH1 0x1 PUSH1 0xA0 SHL SUB DUP1 DUP5 AND PUSH1 0x20 DUP4 ADD MSTORE DUP5 AND SWAP2 DUP2 ADD SWAP2 SWAP1 SWAP2 MSTORE PUSH2 0x1408 SWAP1 PUSH32 0xE17117C9D2665D1DBEB479ED8058BBEBDE3C50AC50E2E65619F60006CAAC6926 SWAP1 PUSH1 0x60 ADD PUSH2 0x1027 JUMP JUMPDEST PUSH1 0x3 DUP1 SLOAD PUSH1 0xFF PUSH1 0xA0 SHL NOT AND SWAP1 SSTORE POP POP JUMP JUMPDEST PUSH1 0x0 PUSH2 0x1424 DUP3 PUSH2 0x1925 JUMP JUMPDEST PUSH1 0x3 DUP1 SLOAD PUSH1 0xFF PUSH1 0xA0 SHL NOT AND PUSH1 0x1 PUSH1 0xA0 SHL OR SWAP1 SSTORE SWAP1 POP PUSH2 0x1442 DUP4 PUSH2 0x1F34 JUMP JUMPDEST DUP3 PUSH1 0x1 PUSH1 0x1 PUSH1 0xA0 SHL SUB AND DUP3 PUSH1 0x1 PUSH1 0x1 PUSH1 0xA0 SHL SUB AND PUSH32 0x38D16B8CAC22D99FC7C124B9CD0DE2D3FA1FAEF420BFE791D8C362D765E22700 PUSH1 0x40 MLOAD PUSH1 0x40 MLOAD DUP1 SWAP2 SUB SWAP1 LOG3 PUSH1 0x40 DUP1 MLOAD PUSH1 0x1 PUSH1 0x1 PUSH1 0xA0 SHL SUB DUP1 DUP6 AND PUSH1 0x20 DUP4 ADD MSTORE DUP6 AND SWAP2 DUP2 ADD SWAP2 SWAP1 SWAP2 MSTORE PUSH2 0x14CD SWAP1 PUSH32 0xE17117C9D2665D1DBEB479ED8058BBEBDE3C50AC50E2E65619F60006CAAC6926 SWAP1 PUSH1 0x60 ADD PUSH2 0xFBF JUMP JUMPDEST PUSH1 0x3 DUP1 SLOAD PUSH1 0xFF PUSH1 0xA0 SHL NOT AND SWAP1 SSTORE DUP1 ISZERO PUSH2 0xEF4 JUMPI PUSH2 0xEF4 DUP3 PUSH1 0x40 MLOAD DUP1 PUSH1 0x20 ADD PUSH1 0x40 MSTORE DUP1 PUSH1 0x0 DUP2 MSTORE POP PUSH2 0x1A75 JUMP JUMPDEST PUSH1 0x0 DUP2 DUP2 MSTORE PUSH1 0x1 PUSH1 0x20 MSTORE PUSH1 0x40 SWAP1 KECCAK256 DUP1 SLOAD PUSH1 0x60 SWAP2 SWAP1 PUSH2 0x1516 SWAP1 PUSH2 0x3005 JUMP JUMPDEST DUP1 PUSH1 0x1F ADD PUSH1 0x20 DUP1 SWAP2 DIV MUL PUSH1 0x20 ADD PUSH1 0x40 MLOAD SWAP1 DUP2 ADD PUSH1 0x40 MSTORE DUP1 SWAP3 SWAP2 SWAP1 DUP2 DUP2 MSTORE PUSH1 0x20 ADD DUP3 DUP1 SLOAD PUSH2 0x1542 SWAP1 PUSH2 0x3005 JUMP JUMPDEST DUP1 ISZERO PUSH2 0x158F JUMPI DUP1 PUSH1 0x1F LT PUSH2 0x1564 JUMPI PUSH2 0x100 DUP1 DUP4 SLOAD DIV MUL DUP4 MSTORE SWAP2 PUSH1 0x20 ADD SWAP2 PUSH2 0x158F JUMP JUMPDEST DUP3 ADD SWAP2 SWAP1 PUSH1 0x0 MSTORE PUSH1 0x20 PUSH1 0x0 KECCAK256 SWAP1 JUMPDEST DUP2 SLOAD DUP2 MSTORE SWAP1 PUSH1 0x1 ADD SWAP1 PUSH1 0x20 ADD DUP1 DUP4 GT PUSH2 0x1572 JUMPI DUP3 SWAP1 SUB PUSH1 0x1F AND DUP3 ADD SWAP2 JUMPDEST POP POP POP POP POP SWAP1 POP SWAP2 SWAP1 POP JUMP JUMPDEST PUSH1 0x40 DUP1 MLOAD PUSH1 0x1 PUSH1 0x1 PUSH1 0xE0 SHL SUB NOT DUP4 AND PUSH1 0x24 DUP1 DUP4 ADD SWAP2 SWAP1 SWAP2 MSTORE DUP3 MLOAD DUP1 DUP4 SUB SWAP1 SWAP2 ADD DUP2 MSTORE PUSH1 0x44 SWAP1 SWAP2 ADD SWAP1 SWAP2 MSTORE PUSH1 0x20 DUP1 DUP3 ADD DUP1 MLOAD PUSH1 0x1 PUSH1 0x1 PUSH1 0xE0 SHL SUB AND PUSH4 0x1FFC9A7 PUSH1 0xE0 SHL OR DUP2 MSTORE DUP3 MLOAD PUSH1 0x0 SWAP4 SWAP3 DUP5 SWAP3 DUP4 SWAP3 DUP4 SWAP3 SWAP2 DUP4 SWAP2 SWAP1 DUP11 PUSH2 0x7530 STATICCALL SWAP3 POP RETURNDATASIZE SWAP2 POP PUSH1 0x0 MLOAD SWAP1 POP DUP3 DUP1 ISZERO PUSH2 0x160D JUMPI POP PUSH1 0x20 DUP3 LT ISZERO JUMPDEST DUP1 ISZERO PUSH2 0x1619 JUMPI POP PUSH1 0x0 DUP2 GT JUMPDEST SWAP8 SWAP7 POP POP POP POP POP POP POP JUMP JUMPDEST PUSH1 0x40 DUP1 MLOAD PUSH1 0x1 PUSH1 0x1 PUSH1 0xB0 SHL SUB NOT DUP5 AND PUSH1 0x20 DUP3 ADD MSTORE PUSH1 0x0 PUSH1 0x2A DUP3 ADD DUP2 SWAP1 MSTORE PUSH1 0x1 PUSH1 0x1 PUSH1 0x60 SHL SUB NOT DUP5 AND PUSH1 0x2C DUP4 ADD MSTORE SWAP2 DUP3 SWAP2 ADD PUSH1 0x40 MLOAD PUSH1 0x20 DUP2 DUP4 SUB SUB DUP2 MSTORE SWAP1 PUSH1 0x40 MSTORE SWAP1 POP DUP1 PUSH2 0xB80 SWAP1 PUSH2 0x3039 JUMP JUMPDEST PUSH1 0x0 DUP1 DUP1 PUSH2 0x1695 PUSH10 0x6773C5A04A6D4300884B PUSH1 0xB1 SHL PUSH1 0x1 PUSH1 0x1 PUSH1 0xE0 SHL SUB NOT DUP7 AND PUSH2 0x1624 JUMP JUMPDEST SWAP1 POP PUSH1 0x0 PUSH2 0x16A2 DUP3 PUSH2 0x14F9 JUMP JUMPDEST SWAP1 POP PUSH1 0x14 DUP2 MLOAD LT ISZERO PUSH2 0x16BB JUMPI POP PUSH1 0x0 SWAP5 DUP6 SWAP5 POP SWAP3 POP POP POP JUMP JUMPDEST DUP1 MLOAD PUSH1 0x15 SUB PUSH2 0x1708 JUMPI DUP1 PUSH1 0x14 DUP2 MLOAD DUP2 LT PUSH2 0x16D7 JUMPI PUSH2 0x16D7 PUSH2 0x2F99 JUMP JUMPDEST ADD PUSH1 0x20 ADD MLOAD PUSH1 0x1 PUSH1 0x1 PUSH1 0xF8 SHL SUB NOT AND PUSH1 0x1 PUSH1 0xF8 SHL SUB PUSH2 0x1708 JUMPI PUSH2 0x16F9 DUP2 PUSH2 0x2DEA JUMP JUMPDEST PUSH1 0x60 SHR SWAP6 PUSH1 0x1 SWAP6 POP SWAP4 POP POP POP POP JUMP JUMPDEST PUSH2 0x1711 DUP2 PUSH2 0x2DEA JUMP JUMPDEST PUSH1 0x60 SHR SWAP6 PUSH1 0x0 SWAP6 POP SWAP4 POP POP POP POP JUMP JUMPDEST PUSH1 0x0 PUSH1 0x1 PUSH1 0x1 PUSH1 0xE0 SHL SUB NOT DUP3 AND PUSH4 0xA918FA6B PUSH1 0xE0 SHL EQ DUP1 PUSH2 0x848 JUMPI POP PUSH2 0x848 DUP3 PUSH2 0x1F84 JUMP JUMPDEST PUSH1 0x0 DUP1 PUSH2 0x1758 PUSH4 0x1FFC9A7 PUSH1 0xE0 SHL PUSH2 0x1670 JUMP JUMPDEST POP SWAP1 POP PUSH1 0x1 PUSH1 0x1 PUSH1 0xA0 SHL SUB DUP2 AND PUSH2 0x1772 JUMPI POP PUSH1 0x0 SWAP3 SWAP2 POP POP JUMP JUMPDEST PUSH2 0x177C DUP2 DUP5 PUSH2 0x159B JUMP JUMPDEST SWAP4 SWAP3 POP POP POP JUMP JUMPDEST PUSH1 0x0 DUP1 DUP3 MLOAD PUSH1 0x41 SUB PUSH2 0x17B9 JUMPI PUSH1 0x20 DUP4 ADD MLOAD PUSH1 0x40 DUP5 ADD MLOAD PUSH1 0x60 DUP6 ADD MLOAD PUSH1 0x0 BYTE PUSH2 0x17AD DUP8 DUP3 DUP6 DUP6 PUSH2 0x1FA9 JUMP JUMPDEST SWAP5 POP SWAP5 POP POP POP POP PUSH2 0x17C1 JUMP JUMPDEST POP PUSH1 0x0 SWAP1 POP PUSH1 0x2 JUMPDEST SWAP3 POP SWAP3 SWAP1 POP JUMP JUMPDEST PUSH1 0x60 DUP4 MLOAD DUP6 MLOAD EQ ISZERO DUP1 PUSH2 0x17E9 JUMPI POP DUP3 MLOAD DUP5 MLOAD EQ ISZERO DUP1 PUSH2 0x17E9 JUMPI POP DUP2 MLOAD DUP4 MLOAD EQ ISZERO JUMPDEST ISZERO PUSH2 0x1807 JUMPI PUSH1 0x40 MLOAD PUSH4 0x3FF55F4D PUSH1 0xE0 SHL DUP2 MSTORE PUSH1 0x4 ADD PUSH1 0x40 MLOAD DUP1 SWAP2 SUB SWAP1 REVERT JUMPDEST DUP5 MLOAD PUSH1 0x0 SUB PUSH2 0x1829 JUMPI PUSH1 0x40 MLOAD PUSH4 0xE9AD2B5F PUSH1 0xE0 SHL DUP2 MSTORE PUSH1 0x4 ADD PUSH1 0x40 MLOAD DUP1 SWAP2 SUB SWAP1 REVERT JUMPDEST PUSH1 0x0 DUP6 MLOAD PUSH1 0x1 PUSH1 0x1 PUSH1 0x40 SHL SUB DUP2 GT ISZERO PUSH2 0x1844 JUMPI PUSH2 0x1844 PUSH2 0x286D JUMP JUMPDEST PUSH1 0x40 MLOAD SWAP1 DUP1 DUP3 MSTORE DUP1 PUSH1 0x20 MUL PUSH1 0x20 ADD DUP3 ADD PUSH1 0x40 MSTORE DUP1 ISZERO PUSH2 0x1877 JUMPI DUP2 PUSH1 0x20 ADD JUMPDEST PUSH1 0x60 DUP2 MSTORE PUSH1 0x20 ADD SWAP1 PUSH1 0x1 SWAP1 SUB SWAP1 DUP2 PUSH2 0x1862 JUMPI SWAP1 POP JUMPDEST POP SWAP1 POP PUSH1 0x0 JUMPDEST DUP7 MLOAD DUP2 LT ISZERO PUSH2 0x191B JUMPI PUSH2 0x18F6 DUP8 DUP3 DUP2 MLOAD DUP2 LT PUSH2 0x189B JUMPI PUSH2 0x189B PUSH2 0x2F99 JUMP JUMPDEST PUSH1 0x20 MUL PUSH1 0x20 ADD ADD MLOAD DUP8 DUP4 DUP2 MLOAD DUP2 LT PUSH2 0x18B5 JUMPI PUSH2 0x18B5 PUSH2 0x2F99 JUMP JUMPDEST PUSH1 0x20 MUL PUSH1 0x20 ADD ADD MLOAD DUP8 DUP5 DUP2 MLOAD DUP2 LT PUSH2 0x18CF JUMPI PUSH2 0x18CF PUSH2 0x2F99 JUMP JUMPDEST PUSH1 0x20 MUL PUSH1 0x20 ADD ADD MLOAD DUP8 DUP6 DUP2 MLOAD DUP2 LT PUSH2 0x18E9 JUMPI PUSH2 0x18E9 PUSH2 0x2F99 JUMP JUMPDEST PUSH1 0x20 MUL PUSH1 0x20 ADD ADD MLOAD PUSH2 0x1B92 JUMP JUMPDEST DUP3 DUP3 DUP2 MLOAD DUP2 LT PUSH2 0x1908 JUMPI PUSH2 0x1908 PUSH2 0x2F99 JUMP JUMPDEST PUSH1 0x20 SWAP1 DUP2 MUL SWAP2 SWAP1 SWAP2 ADD ADD MSTORE PUSH1 0x1 ADD PUSH2 0x187D JUMP JUMPDEST POP SWAP6 SWAP5 POP POP POP POP POP JUMP JUMPDEST PUSH1 0x0 DUP2 PUSH1 0x1 PUSH1 0x1 PUSH1 0xA0 SHL SUB AND EXTCODESIZE PUSH1 0x0 SUB PUSH2 0x195D JUMPI PUSH1 0x40 MLOAD PUSH4 0xC392301 PUSH1 0xE0 SHL DUP2 MSTORE PUSH1 0x1 PUSH1 0x1 PUSH1 0xA0 SHL SUB DUP4 AND PUSH1 0x4 DUP3 ADD MSTORE PUSH1 0x24 ADD PUSH2 0x792 JUMP JUMPDEST PUSH1 0x40 MLOAD PUSH4 0x37A4A3C5 PUSH1 0xE2 SHL DUP2 MSTORE PUSH1 0x1 PUSH1 0x1 PUSH1 0xA0 SHL SUB DUP4 AND SWAP1 PUSH4 0xDE928F14 SWAP1 PUSH2 0x1994 SWAP1 CALLER SWAP1 ADDRESS SWAP1 DUP3 SWAP1 CALLVALUE SWAP1 PUSH1 0x0 SWAP1 CALLDATASIZE SWAP1 PUSH1 0x4 ADD PUSH2 0x305D JUMP JUMPDEST PUSH1 0x20 PUSH1 0x40 MLOAD DUP1 DUP4 SUB DUP2 PUSH1 0x0 DUP8 GAS CALL SWAP3 POP POP POP DUP1 ISZERO PUSH2 0x19CF JUMPI POP PUSH1 0x40 DUP1 MLOAD PUSH1 0x1F RETURNDATASIZE SWAP1 DUP2 ADD PUSH1 0x1F NOT AND DUP3 ADD SWAP1 SWAP3 MSTORE PUSH2 0x19CC SWAP2 DUP2 ADD SWAP1 PUSH2 0x30BA JUMP JUMPDEST PUSH1 0x1 JUMPDEST PUSH2 0x1A0E JUMPI RETURNDATASIZE DUP1 DUP1 ISZERO PUSH2 0x19FD JUMPI PUSH1 0x40 MLOAD SWAP2 POP PUSH1 0x1F NOT PUSH1 0x3F RETURNDATASIZE ADD AND DUP3 ADD PUSH1 0x40 MSTORE RETURNDATASIZE DUP3 MSTORE RETURNDATASIZE PUSH1 0x0 PUSH1 0x20 DUP5 ADD RETURNDATACOPY PUSH2 0x1A02 JUMP JUMPDEST PUSH1 0x60 SWAP2 POP JUMPDEST POP PUSH2 0x1347 PUSH1 0x0 DUP3 PUSH2 0x206D JUMP JUMPDEST PUSH1 0x1 PUSH1 0x1 PUSH1 0xE8 SHL SUB NOT DUP2 AND PUSH3 0xDE928F PUSH1 0xE8 SHL EQ PUSH2 0x1A51 JUMPI PUSH1 0x40 MLOAD PUSH4 0x9D6741E3 PUSH1 0xE0 SHL DUP2 MSTORE PUSH1 0x0 PUSH1 0x4 DUP3 ADD MSTORE PUSH1 0x1 PUSH1 0x1 PUSH1 0xE0 SHL SUB NOT DUP3 AND PUSH1 0x24 DUP3 ADD MSTORE PUSH1 0x44 ADD PUSH2 0x792 JUMP JUMPDEST DUP1 PUSH1 0x3 BYTE PUSH1 0xF8 SHL PUSH1 0x1 PUSH1 0x1 PUSH1 0xF8 SHL SUB NOT AND PUSH1 0x1 PUSH1 0xF8 SHL EQ SWAP2 POP POP SWAP2 SWAP1 POP JUMP JUMPDEST SWAP2 SWAP1 POP JUMP JUMPDEST DUP2 PUSH1 0x1 PUSH1 0x1 PUSH1 0xA0 SHL SUB AND PUSH4 0xD3FC45D3 CALLER ADDRESS CALLER CALLVALUE PUSH1 0x0 CALLDATASIZE PUSH1 0x40 MLOAD PUSH1 0x20 ADD PUSH2 0x1AA0 SWAP7 SWAP6 SWAP5 SWAP4 SWAP3 SWAP2 SWAP1 PUSH2 0x30D7 JUMP JUMPDEST PUSH1 0x40 MLOAD PUSH1 0x20 DUP2 DUP4 SUB SUB DUP2 MSTORE SWAP1 PUSH1 0x40 MSTORE DUP1 MLOAD SWAP1 PUSH1 0x20 ADD KECCAK256 DUP4 PUSH1 0x40 MLOAD DUP4 PUSH4 0xFFFFFFFF AND PUSH1 0xE0 SHL DUP2 MSTORE PUSH1 0x4 ADD PUSH2 0x1AD4 SWAP3 SWAP2 SWAP1 PUSH2 0x2F27 JUMP JUMPDEST PUSH1 0x20 PUSH1 0x40 MLOAD DUP1 DUP4 SUB DUP2 PUSH1 0x0 DUP8 GAS CALL SWAP3 POP POP POP DUP1 ISZERO PUSH2 0x1B0F JUMPI POP PUSH1 0x40 DUP1 MLOAD PUSH1 0x1F RETURNDATASIZE SWAP1 DUP2 ADD PUSH1 0x1F NOT AND DUP3 ADD SWAP1 SWAP3 MSTORE PUSH2 0x1B0C SWAP2 DUP2 ADD SWAP1 PUSH2 0x30BA JUMP JUMPDEST PUSH1 0x1 JUMPDEST PUSH2 0x1B4E JUMPI RETURNDATASIZE DUP1 DUP1 ISZERO PUSH2 0x1B3D JUMPI PUSH1 0x40 MLOAD SWAP2 POP PUSH1 0x1F NOT PUSH1 0x3F RETURNDATASIZE ADD AND DUP3 ADD PUSH1 0x40 MSTORE RETURNDATASIZE DUP3 MSTORE RETURNDATASIZE PUSH1 0x0 PUSH1 0x20 DUP5 ADD RETURNDATACOPY PUSH2 0x1B42 JUMP JUMPDEST PUSH1 0x60 SWAP2 POP JUMPDEST POP PUSH2 0xEF4 PUSH1 0x1 DUP3 PUSH2 0x206D JUMP JUMPDEST PUSH1 0x1 PUSH1 0x1 PUSH1 0xE0 SHL SUB NOT DUP2 AND PUSH4 0xD3FC45D3 PUSH1 0xE0 SHL EQ PUSH2 0xEF4 JUMPI PUSH1 0x40 MLOAD PUSH4 0x9D6741E3 PUSH1 0xE0 SHL DUP2 MSTORE PUSH1 0x1 PUSH1 0x4 DUP3 ADD MSTORE PUSH1 0x1 PUSH1 0x1 PUSH1 0xE0 SHL SUB NOT DUP3 AND PUSH1 0x24 DUP3 ADD MSTORE PUSH1 0x44 ADD PUSH2 0x792 JUMP JUMPDEST PUSH1 0x60 DUP5 PUSH2 0x1BAB JUMPI PUSH2 0x1BA4 DUP5 DUP5 DUP5 PUSH2 0x209A JUMP JUMPDEST SWAP1 POP PUSH2 0xB80 JUMP JUMPDEST PUSH1 0x1 DUP6 SUB PUSH2 0x1BE5 JUMPI PUSH1 0x1 PUSH1 0x1 PUSH1 0xA0 SHL SUB DUP5 AND ISZERO PUSH2 0x1BDB JUMPI PUSH1 0x40 MLOAD PUSH4 0x1820C125 PUSH1 0xE1 SHL DUP2 MSTORE PUSH1 0x4 ADD PUSH1 0x40 MLOAD DUP1 SWAP2 SUB SWAP1 REVERT JUMPDEST PUSH2 0x1BA4 DUP4 DUP4 PUSH2 0x21C4 JUMP JUMPDEST PUSH1 0x2 DUP6 SUB PUSH2 0x1C1F JUMPI PUSH1 0x1 PUSH1 0x1 PUSH1 0xA0 SHL SUB DUP5 AND ISZERO PUSH2 0x1C15 JUMPI PUSH1 0x40 MLOAD PUSH4 0x1820C125 PUSH1 0xE1 SHL DUP2 MSTORE PUSH1 0x4 ADD PUSH1 0x40 MLOAD DUP1 SWAP2 SUB SWAP1 REVERT JUMPDEST PUSH2 0x1BA4 DUP4 DUP4 PUSH2 0x22C0 JUMP JUMPDEST PUSH1 0x3 DUP6 SUB PUSH2 0x1C50 JUMPI DUP3 ISZERO PUSH2 0x1C46 JUMPI PUSH1 0x40 MLOAD PUSH4 0x39795E35 PUSH1 0xE1 SHL DUP2 MSTORE PUSH1 0x4 ADD PUSH1 0x40 MLOAD DUP1 SWAP2 SUB SWAP1 REVERT JUMPDEST PUSH2 0x1BA4 DUP5 DUP4 PUSH2 0x23A5 JUMP JUMPDEST PUSH1 0x4 DUP6 SUB PUSH2 0x1C81 JUMPI DUP3 ISZERO PUSH2 0x1C77 JUMPI PUSH1 0x40 MLOAD PUSH4 0x5AC83135 PUSH1 0xE0 SHL DUP2 MSTORE PUSH1 0x4 ADD PUSH1 0x40 MLOAD DUP1 SWAP2 SUB SWAP1 REVERT JUMPDEST PUSH2 0x1BA4 DUP5 DUP4 PUSH2 0x24A2 JUMP JUMPDEST PUSH1 0x40 MLOAD PUSH4 0x1D60ECEF PUSH1 0xE2 SHL DUP2 MSTORE PUSH1 0x4 DUP2 ADD DUP7 SWAP1 MSTORE PUSH1 0x24 ADD PUSH2 0x792 JUMP JUMPDEST PUSH1 0x2 SLOAD NUMBER SWAP1 PUSH1 0x0 SWAP1 PUSH2 0x1CB1 SWAP1 PUSH1 0xC8 SWAP1 PUSH2 0x313D JUMP JUMPDEST SWAP1 POP PUSH1 0x0 PUSH2 0x1CC0 PUSH1 0xC8 DUP4 PUSH2 0x313D JUMP JUMPDEST SWAP1 POP DUP1 DUP4 GT DUP1 PUSH2 0x1CD0 JUMPI POP PUSH1 0x2 SLOAD ISZERO JUMPDEST ISZERO PUSH2 0x1D18 JUMPI PUSH1 0x2 DUP4 SWAP1 SSTORE PUSH1 0x3 DUP1 SLOAD PUSH1 0x1 PUSH1 0x1 PUSH1 0xA0 SHL SUB NOT AND SWAP1 SSTORE PUSH1 0x40 MLOAD PUSH32 0x81B7F830F1F0084DB6497C486CBE6974C86488DCC4E3738EAB94AB6D6B1653E7 SWAP1 PUSH1 0x0 SWAP1 LOG1 POP POP POP JUMP JUMPDEST DUP2 DUP4 LT ISZERO PUSH2 0x1D43 JUMPI PUSH1 0x40 MLOAD PUSH4 0xD8404A1 PUSH1 0xE1 SHL DUP2 MSTORE PUSH1 0x4 DUP2 ADD DUP4 SWAP1 MSTORE PUSH1 0x24 DUP2 ADD DUP3 SWAP1 MSTORE PUSH1 0x44 ADD PUSH2 0x792 JUMP JUMPDEST PUSH2 0x1D4D PUSH1 0x0 PUSH2 0x1E24 JUMP JUMPDEST PUSH1 0x0 PUSH1 0x2 DUP2 SWAP1 SSTORE PUSH1 0x3 DUP1 SLOAD PUSH1 0x1 PUSH1 0x1 PUSH1 0xA0 SHL SUB NOT AND SWAP1 SSTORE PUSH1 0x40 MLOAD PUSH32 0xD1F66C3D2BC1993A86BE5E3D33709D98F0442381BEFCEDD29F578B9B2506B1CE SWAP2 SWAP1 LOG1 POP POP POP JUMP JUMPDEST PUSH2 0x1DAA PUSH1 0x1 PUSH1 0x1 PUSH1 0xA0 SHL SUB DUP5 AND PUSH4 0x1AED5A85 PUSH1 0xE2 SHL PUSH2 0x159B JUMP JUMPDEST ISZERO PUSH2 0xEF4 JUMPI PUSH1 0x40 MLOAD PUSH4 0x1AED5A85 PUSH1 0xE2 SHL DUP2 MSTORE PUSH1 0x1 PUSH1 0x1 PUSH1 0xA0 SHL SUB DUP5 AND SWAP1 PUSH4 0x6BB56A14 SWAP1 PUSH2 0x1DDD SWAP1 DUP6 SWAP1 DUP6 SWAP1 PUSH1 0x4 ADD PUSH2 0x2F27 JUMP JUMPDEST PUSH1 0x0 PUSH1 0x40 MLOAD DUP1 DUP4 SUB DUP2 PUSH1 0x0 DUP8 GAS CALL ISZERO DUP1 ISZERO PUSH2 0x1DFC JUMPI RETURNDATASIZE PUSH1 0x0 DUP1 RETURNDATACOPY RETURNDATASIZE PUSH1 0x0 REVERT JUMPDEST POP POP POP POP PUSH1 0x40 MLOAD RETURNDATASIZE PUSH1 0x0 DUP3 RETURNDATACOPY PUSH1 0x1F RETURNDATASIZE SWAP1 DUP2 ADD PUSH1 0x1F NOT AND DUP3 ADD PUSH1 0x40 MSTORE PUSH2 0x1120 SWAP2 SWAP1 DUP2 ADD SWAP1 PUSH2 0x2E4E JUMP JUMPDEST PUSH1 0x0 SLOAD PUSH1 0x1 PUSH1 0x1 PUSH1 0xA0 SHL SUB DUP3 DUP2 AND SWAP2 AND EQ PUSH2 0xEF7 JUMPI PUSH1 0x0 DUP1 SLOAD PUSH1 0x40 MLOAD PUSH1 0x1 PUSH1 0x1 PUSH1 0xA0 SHL SUB DUP1 DUP6 AND SWAP4 SWAP3 AND SWAP2 PUSH32 0x8BE0079C531659141344CD1FD0A4F28419497F9722A3DAAFE3B4186F6B6457E0 SWAP2 LOG3 PUSH1 0x0 DUP1 SLOAD PUSH1 0x1 PUSH1 0x1 PUSH1 0xA0 SHL SUB DUP4 AND PUSH1 0x1 PUSH1 0x1 PUSH1 0xA0 SHL SUB NOT SWAP1 SWAP2 AND OR SWAP1 SSTORE POP JUMP JUMPDEST PUSH1 0x3 SLOAD PUSH1 0x1 PUSH1 0x1 PUSH1 0xA0 SHL SUB AND CALLER EQ PUSH2 0x1EBF JUMPI PUSH1 0x40 MLOAD PUSH4 0x8A3C8A5 PUSH1 0xE3 SHL DUP2 MSTORE CALLER PUSH1 0x4 DUP3 ADD MSTORE PUSH1 0x24 ADD PUSH2 0x792 JUMP JUMPDEST PUSH2 0x1EC8 CALLER PUSH2 0x1E24 JUMP JUMPDEST PUSH1 0x3 DUP1 SLOAD PUSH1 0x1 PUSH1 0x1 PUSH1 0xA0 SHL SUB NOT AND SWAP1 SSTORE PUSH1 0x0 PUSH1 0x2 SSTORE JUMP JUMPDEST PUSH1 0x0 DUP3 DUP2 MSTORE PUSH1 0x1 PUSH1 0x20 MSTORE PUSH1 0x40 SWAP1 KECCAK256 PUSH2 0x1EF7 DUP3 DUP3 PUSH2 0x319E JUMP JUMPDEST POP DUP2 PUSH32 0xECE574603820D07BC9B91F2A932BAADF4628AABCB8AFBA49776529C14A6104B2 DUP3 PUSH1 0x40 MLOAD PUSH2 0x1F28 SWAP2 SWAP1 PUSH2 0x2CA2 JUMP JUMPDEST PUSH1 0x40 MLOAD DUP1 SWAP2 SUB SWAP1 LOG2 POP POP JUMP JUMPDEST ADDRESS PUSH1 0x1 PUSH1 0x1 PUSH1 0xA0 SHL SUB DUP3 AND SUB PUSH2 0x1F5D JUMPI PUSH1 0x40 MLOAD PUSH4 0x1C0A54DF PUSH1 0xE3 SHL DUP2 MSTORE PUSH1 0x4 ADD PUSH1 0x40 MLOAD DUP1 SWAP2 SUB SWAP1 REVERT JUMPDEST PUSH1 0x3 DUP1 SLOAD PUSH1 0x1 PUSH1 0x1 PUSH1 0xA0 SHL SUB NOT AND PUSH1 0x1 PUSH1 0x1 PUSH1 0xA0 SHL SUB SWAP3 SWAP1 SWAP3 AND SWAP2 SWAP1 SWAP2 OR SWAP1 SSTORE PUSH1 0x0 PUSH1 0x2 SSTORE JUMP JUMPDEST PUSH1 0x0 PUSH1 0x1 PUSH1 0x1 PUSH1 0xE0 SHL SUB NOT DUP3 AND PUSH4 0x18A6A9A5 PUSH1 0xE2 SHL EQ DUP1 PUSH2 0x848 JUMPI POP PUSH2 0x848 DUP3 PUSH2 0x2553 JUMP JUMPDEST PUSH1 0x0 DUP1 PUSH32 0x7FFFFFFFFFFFFFFFFFFFFFFFFFFFFFFF5D576E7357A4501DDFE92F46681B20A0 DUP4 GT ISZERO PUSH2 0x1FE0 JUMPI POP PUSH1 0x0 SWAP1 POP PUSH1 0x3 PUSH2 0x2064 JUMP JUMPDEST PUSH1 0x40 DUP1 MLOAD PUSH1 0x0 DUP1 DUP3 MSTORE PUSH1 0x20 DUP3 ADD DUP1 DUP5 MSTORE DUP10 SWAP1 MSTORE PUSH1 0xFF DUP9 AND SWAP3 DUP3 ADD SWAP3 SWAP1 SWAP3 MSTORE PUSH1 0x60 DUP2 ADD DUP7 SWAP1 MSTORE PUSH1 0x80 DUP2 ADD DUP6 SWAP1 MSTORE PUSH1 0x1 SWAP1 PUSH1 0xA0 ADD PUSH1 0x20 PUSH1 0x40 MLOAD PUSH1 0x20 DUP2 SUB SWAP1 DUP1 DUP5 SUB SWAP1 DUP6 GAS STATICCALL ISZERO DUP1 ISZERO PUSH2 0x2034 JUMPI RETURNDATASIZE PUSH1 0x0 DUP1 RETURNDATACOPY RETURNDATASIZE PUSH1 0x0 REVERT JUMPDEST POP POP PUSH1 0x40 MLOAD PUSH1 0x1F NOT ADD MLOAD SWAP2 POP POP PUSH1 0x1 PUSH1 0x1 PUSH1 0xA0 SHL SUB DUP2 AND PUSH2 0x205D JUMPI PUSH1 0x0 PUSH1 0x1 SWAP3 POP SWAP3 POP POP PUSH2 0x2064 JUMP JUMPDEST SWAP2 POP PUSH1 0x0 SWAP1 POP JUMPDEST SWAP5 POP SWAP5 SWAP3 POP POP POP JUMP JUMPDEST DUP1 MLOAD ISZERO PUSH2 0x207D JUMPI DUP1 MLOAD DUP1 DUP3 PUSH1 0x20 ADD REVERT JUMPDEST PUSH1 0x40 MLOAD PUSH4 0x8C6A8AE3 PUSH1 0xE0 SHL DUP2 MSTORE DUP3 ISZERO ISZERO PUSH1 0x4 DUP3 ADD MSTORE PUSH1 0x24 ADD PUSH2 0x792 JUMP JUMPDEST PUSH1 0x60 DUP3 SELFBALANCE LT ISZERO PUSH2 0x20C6 JUMPI PUSH1 0x40 MLOAD PUSH4 0x1BF351F PUSH1 0xE3 SHL DUP2 MSTORE SELFBALANCE PUSH1 0x4 DUP3 ADD MSTORE PUSH1 0x24 DUP2 ADD DUP5 SWAP1 MSTORE PUSH1 0x44 ADD PUSH2 0x792 JUMP JUMPDEST PUSH2 0x20CF DUP3 PUSH2 0x325D JUMP JUMPDEST PUSH1 0x1 PUSH1 0x1 PUSH1 0xE0 SHL SUB NOT AND DUP5 PUSH1 0x1 PUSH1 0x1 PUSH1 0xA0 SHL SUB AND PUSH1 0x0 PUSH32 0x4810874456B8E6487BD861375CF6ABD8E1C8BB5858C8CE36A86A04DABFAC199E DUP7 PUSH1 0x40 MLOAD PUSH2 0x2116 SWAP2 DUP2 MSTORE PUSH1 0x20 ADD SWAP1 JUMP JUMPDEST PUSH1 0x40 MLOAD DUP1 SWAP2 SUB SWAP1 LOG4 PUSH1 0x0 DUP1 DUP6 PUSH1 0x1 PUSH1 0x1 PUSH1 0xA0 SHL SUB AND DUP6 DUP6 PUSH1 0x40 MLOAD PUSH2 0x213A SWAP2 SWAP1 PUSH2 0x2F0B JUMP JUMPDEST PUSH1 0x0 PUSH1 0x40 MLOAD DUP1 DUP4 SUB DUP2 DUP6 DUP8 GAS CALL SWAP3 POP POP POP RETURNDATASIZE DUP1 PUSH1 0x0 DUP2 EQ PUSH2 0x2177 JUMPI PUSH1 0x40 MLOAD SWAP2 POP PUSH1 0x1F NOT PUSH1 0x3F RETURNDATASIZE ADD AND DUP3 ADD PUSH1 0x40 MSTORE RETURNDATASIZE DUP3 MSTORE RETURNDATASIZE PUSH1 0x0 PUSH1 0x20 DUP5 ADD RETURNDATACOPY PUSH2 0x217C JUMP JUMPDEST PUSH1 0x60 SWAP2 POP JUMPDEST POP SWAP2 POP SWAP2 POP PUSH2 0x21BA DUP3 DUP3 PUSH1 0x40 MLOAD DUP1 PUSH1 0x40 ADD PUSH1 0x40 MSTORE DUP1 PUSH1 0x16 DUP2 MSTORE PUSH1 0x20 ADD PUSH22 0x22A9219B991AAC1D102AB735B737BBB71022B93937B9 PUSH1 0x51 SHL DUP2 MSTORE POP PUSH2 0x2588 JUMP JUMPDEST SWAP7 SWAP6 POP POP POP POP POP POP JUMP JUMPDEST PUSH1 0x60 DUP3 SELFBALANCE LT ISZERO PUSH2 0x21F0 JUMPI PUSH1 0x40 MLOAD PUSH4 0x1BF351F PUSH1 0xE3 SHL DUP2 MSTORE SELFBALANCE PUSH1 0x4 DUP3 ADD MSTORE PUSH1 0x24 DUP2 ADD DUP5 SWAP1 MSTORE PUSH1 0x44 ADD PUSH2 0x792 JUMP JUMPDEST DUP2 MLOAD PUSH1 0x0 SUB PUSH2 0x2212 JUMPI PUSH1 0x40 MLOAD PUSH4 0xB81CD8D9 PUSH1 0xE0 SHL DUP2 MSTORE PUSH1 0x4 ADD PUSH1 0x40 MLOAD DUP1 SWAP2 SUB SWAP1 REVERT JUMPDEST PUSH1 0x0 DUP3 MLOAD PUSH1 0x20 DUP5 ADD DUP6 CREATE SWAP1 POP PUSH1 0x1 PUSH1 0x1 PUSH1 0xA0 SHL SUB DUP2 AND PUSH2 0x2245 JUMPI PUSH1 0x40 MLOAD PUSH4 0xB07489B PUSH1 0xE0 SHL DUP2 MSTORE PUSH1 0x4 ADD PUSH1 0x40 MLOAD DUP1 SWAP2 SUB SWAP1 REVERT JUMPDEST PUSH1 0x0 DUP1 SHL DUP2 PUSH1 0x1 PUSH1 0x1 PUSH1 0xA0 SHL SUB AND PUSH1 0x1 PUSH32 0xA1FB700AAEE2AE4A2FF6F91CE7EBA292F89C2F5488B8EC4C5C5C8150692595C3 DUP8 PUSH1 0x40 MLOAD PUSH2 0x2286 SWAP2 DUP2 MSTORE PUSH1 0x20 ADD SWAP1 JUMP JUMPDEST PUSH1 0x40 MLOAD DUP1 SWAP2 SUB SWAP1 LOG4 PUSH1 0x40 MLOAD PUSH1 0x1 PUSH1 0x1 PUSH1 0x60 SHL SUB NOT PUSH1 0x60 DUP4 SWAP1 SHL AND PUSH1 0x20 DUP3 ADD MSTORE PUSH1 0x34 ADD PUSH1 0x40 MLOAD PUSH1 0x20 DUP2 DUP4 SUB SUB DUP2 MSTORE SWAP1 PUSH1 0x40 MSTORE SWAP2 POP POP SWAP3 SWAP2 POP POP JUMP JUMPDEST PUSH1 0x60 DUP2 MLOAD PUSH1 0x0 SUB PUSH2 0x22E4 JUMPI PUSH1 0x40 MLOAD PUSH4 0xB81CD8D9 PUSH1 0xE0 SHL DUP2 MSTORE PUSH1 0x4 ADD PUSH1 0x40 MLOAD DUP1 SWAP2 SUB SWAP1 REVERT JUMPDEST PUSH1 0x0 PUSH2 0x22FD DUP4 PUSH1 0x20 DUP6 MLOAD PUSH2 0x22F8 SWAP2 SWAP1 PUSH2 0x3290 JUMP JUMPDEST PUSH2 0x25A1 JUMP JUMPDEST SWAP1 POP PUSH1 0x0 PUSH2 0x231A DUP5 PUSH1 0x0 PUSH1 0x20 DUP8 MLOAD PUSH2 0x2315 SWAP2 SWAP1 PUSH2 0x3290 JUMP JUMPDEST PUSH2 0x25FF JUMP JUMPDEST SWAP1 POP PUSH1 0x0 PUSH2 0x2329 DUP7 DUP5 DUP5 PUSH2 0x270C JUMP JUMPDEST SWAP1 POP DUP3 DUP2 PUSH1 0x1 PUSH1 0x1 PUSH1 0xA0 SHL SUB AND PUSH1 0x2 PUSH32 0xA1FB700AAEE2AE4A2FF6F91CE7EBA292F89C2F5488B8EC4C5C5C8150692595C3 DUP10 PUSH1 0x40 MLOAD PUSH2 0x2369 SWAP2 DUP2 MSTORE PUSH1 0x20 ADD SWAP1 JUMP JUMPDEST PUSH1 0x40 MLOAD DUP1 SWAP2 SUB SWAP1 LOG4 PUSH1 0x40 MLOAD PUSH1 0x1 PUSH1 0x1 PUSH1 0x60 SHL SUB NOT PUSH1 0x60 DUP4 SWAP1 SHL AND PUSH1 0x20 DUP3 ADD MSTORE PUSH1 0x34 ADD PUSH1 0x40 MLOAD PUSH1 0x20 DUP2 DUP4 SUB SUB DUP2 MSTORE SWAP1 PUSH1 0x40 MSTORE SWAP4 POP POP POP POP SWAP3 SWAP2 POP POP JUMP JUMPDEST PUSH1 0x60 PUSH2 0x23B0 DUP3 PUSH2 0x325D JUMP JUMPDEST PUSH1 0x1 PUSH1 0x1 PUSH1 0xE0 SHL SUB NOT AND DUP4 PUSH1 0x1 PUSH1 0x1 PUSH1 0xA0 SHL SUB AND PUSH1 0x3 PUSH32 0x4810874456B8E6487BD861375CF6ABD8E1C8BB5858C8CE36A86A04DABFAC199E PUSH1 0x0 PUSH1 0x40 MLOAD PUSH2 0x23F8 SWAP2 DUP2 MSTORE PUSH1 0x20 ADD SWAP1 JUMP JUMPDEST PUSH1 0x40 MLOAD DUP1 SWAP2 SUB SWAP1 LOG4 PUSH1 0x0 DUP1 DUP5 PUSH1 0x1 PUSH1 0x1 PUSH1 0xA0 SHL SUB AND DUP5 PUSH1 0x40 MLOAD PUSH2 0x241B SWAP2 SWAP1 PUSH2 0x2F0B JUMP JUMPDEST PUSH1 0x0 PUSH1 0x40 MLOAD DUP1 DUP4 SUB DUP2 DUP6 GAS STATICCALL SWAP2 POP POP RETURNDATASIZE DUP1 PUSH1 0x0 DUP2 EQ PUSH2 0x2456 JUMPI PUSH1 0x40 MLOAD SWAP2 POP PUSH1 0x1F NOT PUSH1 0x3F RETURNDATASIZE ADD AND DUP3 ADD PUSH1 0x40 MSTORE RETURNDATASIZE DUP3 MSTORE RETURNDATASIZE PUSH1 0x0 PUSH1 0x20 DUP5 ADD RETURNDATACOPY PUSH2 0x245B JUMP JUMPDEST PUSH1 0x60 SWAP2 POP JUMPDEST POP SWAP2 POP SWAP2 POP PUSH2 0x2499 DUP3 DUP3 PUSH1 0x40 MLOAD DUP1 PUSH1 0x40 ADD PUSH1 0x40 MSTORE DUP1 PUSH1 0x16 DUP2 MSTORE PUSH1 0x20 ADD PUSH22 0x22A9219B991AAC1D102AB735B737BBB71022B93937B9 PUSH1 0x51 SHL DUP2 MSTORE POP PUSH2 0x2588 JUMP JUMPDEST SWAP6 SWAP5 POP POP POP POP POP JUMP JUMPDEST PUSH1 0x60 PUSH2 0x24AD DUP3 PUSH2 0x325D JUMP JUMPDEST PUSH1 0x1 PUSH1 0x1 PUSH1 0xE0 SHL SUB NOT AND DUP4 PUSH1 0x1 PUSH1 0x1 PUSH1 0xA0 SHL SUB AND PUSH1 0x4 PUSH32 0x4810874456B8E6487BD861375CF6ABD8E1C8BB5858C8CE36A86A04DABFAC199E PUSH1 0x0 PUSH1 0x40 MLOAD PUSH2 0x24F5 SWAP2 DUP2 MSTORE PUSH1 0x20 ADD SWAP1 JUMP JUMPDEST PUSH1 0x40 MLOAD DUP1 SWAP2 SUB SWAP1 LOG4 PUSH1 0x0 DUP1 DUP5 PUSH1 0x1 PUSH1 0x1 PUSH1 0xA0 SHL SUB AND DUP5 PUSH1 0x40 MLOAD PUSH2 0x2518 SWAP2 SWAP1 PUSH2 0x2F0B JUMP JUMPDEST PUSH1 0x0 PUSH1 0x40 MLOAD DUP1 DUP4 SUB DUP2 DUP6 GAS DELEGATECALL SWAP2 POP POP RETURNDATASIZE DUP1 PUSH1 0x0 DUP2 EQ PUSH2 0x2456 JUMPI PUSH1 0x40 MLOAD SWAP2 POP PUSH1 0x1F NOT PUSH1 0x3F RETURNDATASIZE ADD AND DUP3 ADD PUSH1 0x40 MSTORE RETURNDATASIZE DUP3 MSTORE RETURNDATASIZE PUSH1 0x0 PUSH1 0x20 DUP5 ADD RETURNDATACOPY PUSH2 0x245B JUMP JUMPDEST PUSH1 0x0 PUSH1 0x1 PUSH1 0x1 PUSH1 0xE0 SHL SUB NOT DUP3 AND PUSH4 0x1D516B2B PUSH1 0xE2 SHL EQ DUP1 PUSH2 0x848 JUMPI POP PUSH4 0x1FFC9A7 PUSH1 0xE0 SHL PUSH1 0x1 PUSH1 0x1 PUSH1 0xE0 SHL SUB NOT DUP4 AND EQ PUSH2 0x848 JUMP JUMPDEST PUSH1 0x60 DUP4 ISZERO PUSH2 0x2597 JUMPI POP DUP2 PUSH2 0x177C JUMP JUMPDEST PUSH2 0x177C DUP4 DUP4 PUSH2 0x2810 JUMP JUMPDEST PUSH1 0x0 PUSH2 0x25AE DUP3 PUSH1 0x20 PUSH2 0x313D JUMP JUMPDEST DUP4 MLOAD LT ISZERO PUSH2 0x25F6 JUMPI PUSH1 0x40 MLOAD PUSH3 0x461BCD PUSH1 0xE5 SHL DUP2 MSTORE PUSH1 0x20 PUSH1 0x4 DUP3 ADD MSTORE PUSH1 0x15 PUSH1 0x24 DUP3 ADD MSTORE PUSH21 0x746F427974657333325F6F75744F66426F756E6473 PUSH1 0x58 SHL PUSH1 0x44 DUP3 ADD MSTORE PUSH1 0x64 ADD PUSH2 0x792 JUMP JUMPDEST POP ADD PUSH1 0x20 ADD MLOAD SWAP1 JUMP JUMPDEST PUSH1 0x60 DUP2 PUSH2 0x260D DUP2 PUSH1 0x1F PUSH2 0x313D JUMP JUMPDEST LT ISZERO PUSH2 0x264C JUMPI PUSH1 0x40 MLOAD PUSH3 0x461BCD PUSH1 0xE5 SHL DUP2 MSTORE PUSH1 0x20 PUSH1 0x4 DUP3 ADD MSTORE PUSH1 0xE PUSH1 0x24 DUP3 ADD MSTORE PUSH14 0x736C6963655F6F766572666C6F77 PUSH1 0x90 SHL PUSH1 0x44 DUP3 ADD MSTORE PUSH1 0x64 ADD PUSH2 0x792 JUMP JUMPDEST PUSH2 0x2656 DUP3 DUP5 PUSH2 0x313D JUMP JUMPDEST DUP5 MLOAD LT ISZERO PUSH2 0x269A JUMPI PUSH1 0x40 MLOAD PUSH3 0x461BCD PUSH1 0xE5 SHL DUP2 MSTORE PUSH1 0x20 PUSH1 0x4 DUP3 ADD MSTORE PUSH1 0x11 PUSH1 0x24 DUP3 ADD MSTORE PUSH17 0x736C6963655F6F75744F66426F756E6473 PUSH1 0x78 SHL PUSH1 0x44 DUP3 ADD MSTORE PUSH1 0x64 ADD PUSH2 0x792 JUMP JUMPDEST PUSH1 0x60 DUP3 ISZERO DUP1 ISZERO PUSH2 0x26B9 JUMPI PUSH1 0x40 MLOAD SWAP2 POP PUSH1 0x0 DUP3 MSTORE PUSH1 0x20 DUP3 ADD PUSH1 0x40 MSTORE PUSH2 0x2703 JUMP JUMPDEST PUSH1 0x40 MLOAD SWAP2 POP PUSH1 0x1F DUP5 AND DUP1 ISZERO PUSH1 0x20 MUL DUP2 DUP5 ADD ADD DUP6 DUP2 ADD DUP8 DUP4 ISZERO PUSH1 0x20 MUL DUP5 DUP12 ADD ADD ADD JUMPDEST DUP2 DUP4 LT ISZERO PUSH2 0x26F2 JUMPI DUP1 MLOAD DUP4 MSTORE PUSH1 0x20 SWAP3 DUP4 ADD SWAP3 ADD PUSH2 0x26DA JUMP JUMPDEST POP POP DUP6 DUP5 MSTORE PUSH1 0x1F ADD PUSH1 0x1F NOT AND PUSH1 0x40 MSTORE POP JUMPDEST POP SWAP5 SWAP4 POP POP POP POP JUMP JUMPDEST PUSH1 0x0 DUP4 SELFBALANCE LT ISZERO PUSH2 0x275E JUMPI PUSH1 0x40 MLOAD PUSH3 0x461BCD PUSH1 0xE5 SHL DUP2 MSTORE PUSH1 0x20 PUSH1 0x4 DUP3 ADD MSTORE PUSH1 0x1D PUSH1 0x24 DUP3 ADD MSTORE PUSH32 0x437265617465323A20696E73756666696369656E742062616C616E6365000000 PUSH1 0x44 DUP3 ADD MSTORE PUSH1 0x64 ADD PUSH2 0x792 JUMP JUMPDEST DUP2 MLOAD PUSH1 0x0 SUB PUSH2 0x27AF JUMPI PUSH1 0x40 MLOAD PUSH3 0x461BCD PUSH1 0xE5 SHL DUP2 MSTORE PUSH1 0x20 PUSH1 0x4 DUP3 ADD DUP2 SWAP1 MSTORE PUSH1 0x24 DUP3 ADD MSTORE PUSH32 0x437265617465323A2062797465636F6465206C656E677468206973207A65726F PUSH1 0x44 DUP3 ADD MSTORE PUSH1 0x64 ADD PUSH2 0x792 JUMP JUMPDEST DUP3 DUP3 MLOAD PUSH1 0x20 DUP5 ADD DUP7 CREATE2 SWAP1 POP PUSH1 0x1 PUSH1 0x1 PUSH1 0xA0 SHL SUB DUP2 AND PUSH2 0x177C JUMPI PUSH1 0x40 MLOAD PUSH3 0x461BCD PUSH1 0xE5 SHL DUP2 MSTORE PUSH1 0x20 PUSH1 0x4 DUP3 ADD MSTORE PUSH1 0x19 PUSH1 0x24 DUP3 ADD MSTORE PUSH32 0x437265617465323A204661696C6564206F6E206465706C6F7900000000000000 PUSH1 0x44 DUP3 ADD MSTORE PUSH1 0x64 ADD PUSH2 0x792 JUMP JUMPDEST DUP2 MLOAD ISZERO PUSH2 0x2820 JUMPI DUP2 MLOAD DUP1 DUP4 PUSH1 0x20 ADD REVERT JUMPDEST DUP1 PUSH1 0x40 MLOAD PUSH3 0x461BCD PUSH1 0xE5 SHL DUP2 MSTORE PUSH1 0x4 ADD PUSH2 0x792 SWAP2 SWAP1 PUSH2 0x2CA2 JUMP JUMPDEST PUSH1 0x1 PUSH1 0x1 PUSH1 0xE0 SHL SUB NOT DUP2 AND DUP2 EQ PUSH2 0xEF7 JUMPI PUSH1 0x0 DUP1 REVERT JUMPDEST PUSH1 0x0 PUSH1 0x20 DUP3 DUP5 SUB SLT ISZERO PUSH2 0x2862 JUMPI PUSH1 0x0 DUP1 REVERT JUMPDEST DUP2 CALLDATALOAD PUSH2 0x177C DUP2 PUSH2 0x283A JUMP JUMPDEST PUSH4 0x4E487B71 PUSH1 0xE0 SHL PUSH1 0x0 MSTORE PUSH1 0x41 PUSH1 0x4 MSTORE PUSH1 0x24 PUSH1 0x0 REVERT JUMPDEST PUSH1 0x40 MLOAD PUSH1 0x1F DUP3 ADD PUSH1 0x1F NOT AND DUP2 ADD PUSH1 0x1 PUSH1 0x1 PUSH1 0x40 SHL SUB DUP2 GT DUP3 DUP3 LT OR ISZERO PUSH2 0x28AB JUMPI PUSH2 0x28AB PUSH2 0x286D JUMP JUMPDEST PUSH1 0x40 MSTORE SWAP2 SWAP1 POP JUMP JUMPDEST PUSH1 0x0 PUSH1 0x1 PUSH1 0x1 PUSH1 0x40 SHL SUB DUP3 GT ISZERO PUSH2 0x28CC JUMPI PUSH2 0x28CC PUSH2 0x286D JUMP JUMPDEST POP PUSH1 0x1F ADD PUSH1 0x1F NOT AND PUSH1 0x20 ADD SWAP1 JUMP JUMPDEST PUSH1 0x0 DUP3 PUSH1 0x1F DUP4 ADD SLT PUSH2 0x28EB JUMPI PUSH1 0x0 DUP1 REVERT JUMPDEST DUP2 CALLDATALOAD PUSH2 0x28FE PUSH2 0x28F9 DUP3 PUSH2 0x28B3 JUMP JUMPDEST PUSH2 0x2883 JUMP JUMPDEST DUP2 DUP2 MSTORE DUP5 PUSH1 0x20 DUP4 DUP7 ADD ADD GT ISZERO PUSH2 0x2913 JUMPI PUSH1 0x0 DUP1 REVERT JUMPDEST DUP2 PUSH1 0x20 DUP6 ADD PUSH1 0x20 DUP4 ADD CALLDATACOPY PUSH1 0x0 SWAP2 DUP2 ADD PUSH1 0x20 ADD SWAP2 SWAP1 SWAP2 MSTORE SWAP4 SWAP3 POP POP POP JUMP JUMPDEST PUSH1 0x0 DUP1 PUSH1 0x40 DUP4 DUP6 SUB SLT ISZERO PUSH2 0x2943 JUMPI PUSH1 0x0 DUP1 REVERT JUMPDEST DUP3 CALLDATALOAD SWAP2 POP PUSH1 0x20 DUP4 ADD CALLDATALOAD PUSH1 0x1 PUSH1 0x1 PUSH1 0x40 SHL SUB DUP2 GT ISZERO PUSH2 0x2960 JUMPI PUSH1 0x0 DUP1 REVERT JUMPDEST PUSH2 0x296C DUP6 DUP3 DUP7 ADD PUSH2 0x28DA JUMP JUMPDEST SWAP2 POP POP SWAP3 POP SWAP3 SWAP1 POP JUMP JUMPDEST PUSH1 0x0 PUSH1 0x1 PUSH1 0x1 PUSH1 0x40 SHL SUB DUP3 GT ISZERO PUSH2 0x298F JUMPI PUSH2 0x298F PUSH2 0x286D JUMP JUMPDEST POP PUSH1 0x5 SHL PUSH1 0x20 ADD SWAP1 JUMP JUMPDEST PUSH1 0x0 DUP3 PUSH1 0x1F DUP4 ADD SLT PUSH2 0x29AA JUMPI PUSH1 0x0 DUP1 REVERT JUMPDEST DUP2 CALLDATALOAD PUSH1 0x20 PUSH2 0x29BA PUSH2 0x28F9 DUP4 PUSH2 0x2976 JUMP JUMPDEST DUP3 DUP2 MSTORE PUSH1 0x5 SWAP3 SWAP1 SWAP3 SHL DUP5 ADD DUP2 ADD SWAP2 DUP2 DUP2 ADD SWAP1 DUP7 DUP5 GT ISZERO PUSH2 0x29D9 JUMPI PUSH1 0x0 DUP1 REVERT JUMPDEST DUP3 DUP7 ADD JUMPDEST DUP5 DUP2 LT ISZERO PUSH2 0x29F4 JUMPI DUP1 CALLDATALOAD DUP4 MSTORE SWAP2 DUP4 ADD SWAP2 DUP4 ADD PUSH2 0x29DD JUMP JUMPDEST POP SWAP7 SWAP6 POP POP POP POP POP POP JUMP JUMPDEST DUP1 CALLDATALOAD PUSH1 0x1 PUSH1 0x1 PUSH1 0xA0 SHL SUB DUP2 AND DUP2 EQ PUSH2 0x1A70 JUMPI PUSH1 0x0 DUP1 REVERT JUMPDEST PUSH1 0x0 DUP3 PUSH1 0x1F DUP4 ADD SLT PUSH2 0x2A27 JUMPI PUSH1 0x0 DUP1 REVERT JUMPDEST DUP2 CALLDATALOAD PUSH1 0x20 PUSH2 0x2A37 PUSH2 0x28F9 DUP4 PUSH2 0x2976 JUMP JUMPDEST DUP3 DUP2 MSTORE PUSH1 0x5 SWAP3 SWAP1 SWAP3 SHL DUP5 ADD DUP2 ADD SWAP2 DUP2 DUP2 ADD SWAP1 DUP7 DUP5 GT ISZERO PUSH2 0x2A56 JUMPI PUSH1 0x0 DUP1 REVERT JUMPDEST DUP3 DUP7 ADD JUMPDEST DUP5 DUP2 LT ISZERO PUSH2 0x29F4 JUMPI DUP1 CALLDATALOAD PUSH1 0x1 PUSH1 0x1 PUSH1 0x40 SHL SUB DUP2 GT ISZERO PUSH2 0x2A79 JUMPI PUSH1 0x0 DUP1 DUP2 REVERT JUMPDEST PUSH2 0x2A87 DUP10 DUP7 DUP4 DUP12 ADD ADD PUSH2 0x28DA JUMP JUMPDEST DUP5 MSTORE POP SWAP2 DUP4 ADD SWAP2 DUP4 ADD PUSH2 0x2A5A JUMP JUMPDEST PUSH1 0x0 DUP1 PUSH1 0x0 DUP1 PUSH1 0x80 DUP6 DUP8 SUB SLT ISZERO PUSH2 0x2AAB JUMPI PUSH1 0x0 DUP1 REVERT JUMPDEST DUP5 CALLDATALOAD PUSH1 0x1 PUSH1 0x1 PUSH1 0x40 SHL SUB DUP1 DUP3 GT ISZERO PUSH2 0x2AC2 JUMPI PUSH1 0x0 DUP1 REVERT JUMPDEST PUSH2 0x2ACE DUP9 DUP4 DUP10 ADD PUSH2 0x2999 JUMP JUMPDEST SWAP6 POP PUSH1 0x20 SWAP2 POP DUP2 DUP8 ADD CALLDATALOAD DUP2 DUP2 GT ISZERO PUSH2 0x2AE5 JUMPI PUSH1 0x0 DUP1 REVERT JUMPDEST DUP8 ADD PUSH1 0x1F DUP2 ADD DUP10 SGT PUSH2 0x2AF6 JUMPI PUSH1 0x0 DUP1 REVERT JUMPDEST DUP1 CALLDATALOAD PUSH2 0x2B04 PUSH2 0x28F9 DUP3 PUSH2 0x2976 JUMP JUMPDEST DUP2 DUP2 MSTORE PUSH1 0x5 SWAP2 SWAP1 SWAP2 SHL DUP3 ADD DUP5 ADD SWAP1 DUP5 DUP2 ADD SWAP1 DUP12 DUP4 GT ISZERO PUSH2 0x2B23 JUMPI PUSH1 0x0 DUP1 REVERT JUMPDEST SWAP3 DUP6 ADD SWAP3 JUMPDEST DUP3 DUP5 LT ISZERO PUSH2 0x2B48 JUMPI PUSH2 0x2B39 DUP5 PUSH2 0x29FF JUMP JUMPDEST DUP3 MSTORE SWAP3 DUP6 ADD SWAP3 SWAP1 DUP6 ADD SWAP1 PUSH2 0x2B28 JUMP JUMPDEST SWAP8 POP POP POP POP PUSH1 0x40 DUP8 ADD CALLDATALOAD SWAP2 POP DUP1 DUP3 GT ISZERO PUSH2 0x2B61 JUMPI PUSH1 0x0 DUP1 REVERT JUMPDEST PUSH2 0x2B6D DUP9 DUP4 DUP10 ADD PUSH2 0x2999 JUMP JUMPDEST SWAP4 POP PUSH1 0x60 DUP8 ADD CALLDATALOAD SWAP2 POP DUP1 DUP3 GT ISZERO PUSH2 0x2B83 JUMPI PUSH1 0x0 DUP1 REVERT JUMPDEST POP PUSH2 0x2B90 DUP8 DUP3 DUP9 ADD PUSH2 0x2A16 JUMP JUMPDEST SWAP2 POP POP SWAP3 SWAP6 SWAP2 SWAP5 POP SWAP3 POP JUMP JUMPDEST PUSH1 0x0 JUMPDEST DUP4 DUP2 LT ISZERO PUSH2 0x2BB7 JUMPI DUP2 DUP2 ADD MLOAD DUP4 DUP3 ADD MSTORE PUSH1 0x20 ADD PUSH2 0x2B9F JUMP JUMPDEST POP POP PUSH1 0x0 SWAP2 ADD MSTORE JUMP JUMPDEST PUSH1 0x0 DUP2 MLOAD DUP1 DUP5 MSTORE PUSH2 0x2BD8 DUP2 PUSH1 0x20 DUP7 ADD PUSH1 0x20 DUP7 ADD PUSH2 0x2B9C JUMP JUMPDEST PUSH1 0x1F ADD PUSH1 0x1F NOT AND SWAP3 SWAP1 SWAP3 ADD PUSH1 0x20 ADD SWAP3 SWAP2 POP POP JUMP JUMPDEST PUSH1 0x0 PUSH1 0x20 DUP1 DUP4 ADD DUP2 DUP5 MSTORE DUP1 DUP6 MLOAD DUP1 DUP4 MSTORE PUSH1 0x40 DUP7 ADD SWAP2 POP PUSH1 0x40 DUP2 PUSH1 0x5 SHL DUP8 ADD ADD SWAP3 POP DUP4 DUP8 ADD PUSH1 0x0 JUMPDEST DUP3 DUP2 LT ISZERO PUSH2 0x2C41 JUMPI PUSH1 0x3F NOT DUP9 DUP7 SUB ADD DUP5 MSTORE PUSH2 0x2C2F DUP6 DUP4 MLOAD PUSH2 0x2BC0 JUMP JUMPDEST SWAP5 POP SWAP3 DUP6 ADD SWAP3 SWAP1 DUP6 ADD SWAP1 PUSH1 0x1 ADD PUSH2 0x2C13 JUMP JUMPDEST POP SWAP3 SWAP8 SWAP7 POP POP POP POP POP POP POP JUMP JUMPDEST PUSH1 0x0 DUP1 PUSH1 0x0 DUP1 PUSH1 0x80 DUP6 DUP8 SUB SLT ISZERO PUSH2 0x2C64 JUMPI PUSH1 0x0 DUP1 REVERT JUMPDEST DUP5 CALLDATALOAD SWAP4 POP PUSH2 0x2C74 PUSH1 0x20 DUP7 ADD PUSH2 0x29FF JUMP JUMPDEST SWAP3 POP PUSH1 0x40 DUP6 ADD CALLDATALOAD SWAP2 POP PUSH1 0x60 DUP6 ADD CALLDATALOAD PUSH1 0x1 PUSH1 0x1 PUSH1 0x40 SHL SUB DUP2 GT ISZERO PUSH2 0x2C96 JUMPI PUSH1 0x0 DUP1 REVERT JUMPDEST PUSH2 0x2B90 DUP8 DUP3 DUP9 ADD PUSH2 0x28DA JUMP JUMPDEST PUSH1 0x20 DUP2 MSTORE PUSH1 0x0 PUSH2 0x177C PUSH1 0x20 DUP4 ADD DUP5 PUSH2 0x2BC0 JUMP JUMPDEST PUSH1 0x0 PUSH1 0x20 DUP3 DUP5 SUB SLT ISZERO PUSH2 0x2CC7 JUMPI PUSH1 0x0 DUP1 REVERT JUMPDEST POP CALLDATALOAD SWAP2 SWAP1 POP JUMP JUMPDEST PUSH1 0x0 DUP1 PUSH1 0x20 DUP4 DUP6 SUB SLT ISZERO PUSH2 0x2CE1 JUMPI PUSH1 0x0 DUP1 REVERT JUMPDEST DUP3 CALLDATALOAD PUSH1 0x1 PUSH1 0x1 PUSH1 0x40 SHL SUB DUP1 DUP3 GT ISZERO PUSH2 0x2CF8 JUMPI PUSH1 0x0 DUP1 REVERT JUMPDEST DUP2 DUP6 ADD SWAP2 POP DUP6 PUSH1 0x1F DUP4 ADD SLT PUSH2 0x2D0C JUMPI PUSH1 0x0 DUP1 REVERT JUMPDEST DUP2 CALLDATALOAD DUP2 DUP2 GT ISZERO PUSH2 0x2D1B JUMPI PUSH1 0x0 DUP1 REVERT JUMPDEST DUP7 PUSH1 0x20 DUP3 PUSH1 0x5 SHL DUP6 ADD ADD GT ISZERO PUSH2 0x2D30 JUMPI PUSH1 0x0 DUP1 REVERT JUMPDEST PUSH1 0x20 SWAP3 SWAP1 SWAP3 ADD SWAP7 SWAP2 SWAP6 POP SWAP1 SWAP4 POP POP POP POP JUMP JUMPDEST PUSH1 0x0 DUP1 PUSH1 0x40 DUP4 DUP6 SUB SLT ISZERO PUSH2 0x2D55 JUMPI PUSH1 0x0 DUP1 REVERT JUMPDEST DUP3 CALLDATALOAD PUSH1 0x1 PUSH1 0x1 PUSH1 0x40 SHL SUB DUP1 DUP3 GT ISZERO PUSH2 0x2D6C JUMPI PUSH1 0x0 DUP1 REVERT JUMPDEST PUSH2 0x2D78 DUP7 DUP4 DUP8 ADD PUSH2 0x2999 JUMP JUMPDEST SWAP4 POP PUSH1 0x20 DUP6 ADD CALLDATALOAD SWAP2 POP DUP1 DUP3 GT ISZERO PUSH2 0x2D8E JUMPI PUSH1 0x0 DUP1 REVERT JUMPDEST POP PUSH2 0x296C DUP6 DUP3 DUP7 ADD PUSH2 0x2A16 JUMP JUMPDEST PUSH1 0x0 PUSH1 0x20 DUP3 DUP5 SUB SLT ISZERO PUSH2 0x2DAD JUMPI PUSH1 0x0 DUP1 REVERT JUMPDEST DUP2 CALLDATALOAD PUSH1 0x1 PUSH1 0x1 PUSH1 0x40 SHL SUB DUP2 GT ISZERO PUSH2 0x2DC3 JUMPI PUSH1 0x0 DUP1 REVERT JUMPDEST PUSH2 0xB80 DUP5 DUP3 DUP6 ADD PUSH2 0x2999 JUMP JUMPDEST PUSH1 0x0 PUSH1 0x20 DUP3 DUP5 SUB SLT ISZERO PUSH2 0x2DE1 JUMPI PUSH1 0x0 DUP1 REVERT JUMPDEST PUSH2 0x177C DUP3 PUSH2 0x29FF JUMP JUMPDEST DUP1 MLOAD PUSH1 0x20 DUP3 ADD MLOAD PUSH1 0x1 PUSH1 0x1 PUSH1 0x60 SHL SUB NOT DUP1 DUP3 AND SWAP3 SWAP2 SWAP1 PUSH1 0x14 DUP4 LT ISZERO PUSH2 0x2E19 JUMPI DUP1 DUP2 DUP5 PUSH1 0x14 SUB PUSH1 0x3 SHL SHL DUP4 AND AND SWAP4 POP JUMPDEST POP POP POP SWAP2 SWAP1 POP JUMP JUMPDEST PUSH1 0x1 DUP1 PUSH1 0xA0 SHL SUB DUP6 AND DUP2 MSTORE DUP4 PUSH1 0x20 DUP3 ADD MSTORE DUP3 PUSH1 0x40 DUP3 ADD MSTORE PUSH1 0x80 PUSH1 0x60 DUP3 ADD MSTORE PUSH1 0x0 PUSH2 0x21BA PUSH1 0x80 DUP4 ADD DUP5 PUSH2 0x2BC0 JUMP JUMPDEST PUSH1 0x0 PUSH1 0x20 DUP3 DUP5 SUB SLT ISZERO PUSH2 0x2E60 JUMPI PUSH1 0x0 DUP1 REVERT JUMPDEST DUP2 MLOAD PUSH1 0x1 PUSH1 0x1 PUSH1 0x40 SHL SUB DUP2 GT ISZERO PUSH2 0x2E76 JUMPI PUSH1 0x0 DUP1 REVERT JUMPDEST DUP3 ADD PUSH1 0x1F DUP2 ADD DUP5 SGT PUSH2 0x2E87 JUMPI PUSH1 0x0 DUP1 REVERT JUMPDEST DUP1 MLOAD PUSH2 0x2E95 PUSH2 0x28F9 DUP3 PUSH2 0x28B3 JUMP JUMPDEST DUP2 DUP2 MSTORE DUP6 PUSH1 0x20 DUP4 DUP6 ADD ADD GT ISZERO PUSH2 0x2EAA JUMPI PUSH1 0x0 DUP1 REVERT JUMPDEST PUSH2 0x2499 DUP3 PUSH1 0x20 DUP4 ADD PUSH1 0x20 DUP7 ADD PUSH2 0x2B9C JUMP JUMPDEST PUSH1 0x40 DUP2 MSTORE PUSH1 0x0 PUSH2 0x2ECE PUSH1 0x40 DUP4 ADD DUP6 PUSH2 0x2BC0 JUMP JUMPDEST DUP3 DUP2 SUB PUSH1 0x20 DUP5 ADD MSTORE PUSH2 0x2499 DUP2 DUP6 PUSH2 0x2BC0 JUMP JUMPDEST DUP4 DUP6 DUP3 CALLDATACOPY PUSH1 0x60 SWAP3 SWAP1 SWAP3 SHL PUSH1 0x1 PUSH1 0x1 PUSH1 0x60 SHL SUB NOT AND SWAP2 SWAP1 SWAP3 ADD SWAP1 DUP2 MSTORE PUSH1 0x14 DUP2 ADD SWAP2 SWAP1 SWAP2 MSTORE PUSH1 0x34 ADD SWAP2 SWAP1 POP JUMP JUMPDEST PUSH1 0x0 DUP3 MLOAD PUSH2 0x2F1D DUP2 DUP5 PUSH1 0x20 DUP8 ADD PUSH2 0x2B9C JUMP JUMPDEST SWAP2 SWAP1 SWAP2 ADD SWAP3 SWAP2 POP POP JUMP JUMPDEST DUP3 DUP2 MSTORE PUSH1 0x40 PUSH1 0x20 DUP3 ADD MSTORE PUSH1 0x0 PUSH2 0xB80 PUSH1 0x40 DUP4 ADD DUP5 PUSH2 0x2BC0 JUMP JUMPDEST PUSH1 0x0 PUSH1 0x20 DUP3 DUP5 SUB SLT ISZERO PUSH2 0x2F52 JUMPI PUSH1 0x0 DUP1 REVERT JUMPDEST POP MLOAD SWAP2 SWAP1 POP JUMP JUMPDEST PUSH4 0x4E487B71 PUSH1 0xE0 SHL PUSH1 0x0 MSTORE PUSH1 0x21 PUSH1 0x4 MSTORE PUSH1 0x24 PUSH1 0x0 REVERT JUMPDEST PUSH1 0x40 DUP2 MSTORE PUSH1 0x0 PUSH2 0x2F82 PUSH1 0x40 DUP4 ADD DUP5 PUSH2 0x2BC0 JUMP JUMPDEST DUP3 DUP2 SUB PUSH1 0x20 SWAP4 DUP5 ADD MSTORE PUSH1 0x0 DUP2 MSTORE SWAP2 SWAP1 SWAP2 ADD SWAP3 SWAP2 POP POP JUMP JUMPDEST PUSH4 0x4E487B71 PUSH1 0xE0 SHL PUSH1 0x0 MSTORE PUSH1 0x32 PUSH1 0x4 MSTORE PUSH1 0x24 PUSH1 0x0 REVERT JUMPDEST PUSH1 0x0 DUP1 DUP4 CALLDATALOAD PUSH1 0x1E NOT DUP5 CALLDATASIZE SUB ADD DUP2 SLT PUSH2 0x2FC6 JUMPI PUSH1 0x0 DUP1 REVERT JUMPDEST DUP4 ADD DUP1 CALLDATALOAD SWAP2 POP PUSH1 0x1 PUSH1 0x1 PUSH1 0x40 SHL SUB DUP3 GT ISZERO PUSH2 0x2FE0 JUMPI PUSH1 0x0 DUP1 REVERT JUMPDEST PUSH1 0x20 ADD SWAP2 POP CALLDATASIZE DUP2 SWAP1 SUB DUP3 SGT ISZERO PUSH2 0x17C1 JUMPI PUSH1 0x0 DUP1 REVERT JUMPDEST DUP2 DUP4 DUP3 CALLDATACOPY PUSH1 0x0 SWAP2 ADD SWAP1 DUP2 MSTORE SWAP2 SWAP1 POP JUMP JUMPDEST PUSH1 0x1 DUP2 DUP2 SHR SWAP1 DUP3 AND DUP1 PUSH2 0x3019 JUMPI PUSH1 0x7F DUP3 AND SWAP2 POP JUMPDEST PUSH1 0x20 DUP3 LT DUP2 SUB PUSH2 0x1347 JUMPI PUSH4 0x4E487B71 PUSH1 0xE0 SHL PUSH1 0x0 MSTORE PUSH1 0x22 PUSH1 0x4 MSTORE PUSH1 0x24 PUSH1 0x0 REVERT JUMPDEST DUP1 MLOAD PUSH1 0x20 DUP1 DUP4 ADD MLOAD SWAP2 SWAP1 DUP2 LT ISZERO PUSH2 0x1347 JUMPI PUSH1 0x0 NOT PUSH1 0x20 SWAP2 SWAP1 SWAP2 SUB PUSH1 0x3 SHL SHL AND SWAP2 SWAP1 POP JUMP JUMPDEST PUSH1 0x1 PUSH1 0x1 PUSH1 0xA0 SHL SUB DUP8 DUP2 AND DUP3 MSTORE DUP7 DUP2 AND PUSH1 0x20 DUP4 ADD MSTORE DUP6 AND PUSH1 0x40 DUP3 ADD MSTORE PUSH1 0x60 DUP2 ADD DUP5 SWAP1 MSTORE PUSH1 0xA0 PUSH1 0x80 DUP3 ADD DUP2 SWAP1 MSTORE DUP2 ADD DUP3 SWAP1 MSTORE PUSH1 0x0 DUP3 DUP5 PUSH1 0xC0 DUP5 ADD CALLDATACOPY PUSH1 0x0 PUSH1 0xC0 DUP5 DUP5 ADD ADD MSTORE PUSH1 0xC0 PUSH1 0x1F NOT PUSH1 0x1F DUP6 ADD AND DUP4 ADD ADD SWAP1 POP SWAP8 SWAP7 POP POP POP POP POP POP POP JUMP JUMPDEST PUSH1 0x0 PUSH1 0x20 DUP3 DUP5 SUB SLT ISZERO PUSH2 0x30CC JUMPI PUSH1 0x0 DUP1 REVERT JUMPDEST DUP2 MLOAD PUSH2 0x177C DUP2 PUSH2 0x283A JUMP JUMPDEST PUSH1 0x0 PUSH12 0xFFFFFFFFFFFFFFFFFFFFFFFF NOT DUP1 DUP10 PUSH1 0x60 SHL AND DUP4 MSTORE DUP1 DUP9 PUSH1 0x60 SHL AND PUSH1 0x14 DUP5 ADD MSTORE DUP1 DUP8 PUSH1 0x60 SHL AND PUSH1 0x28 DUP5 ADD MSTORE POP DUP5 PUSH1 0x3C DUP4 ADD MSTORE DUP3 DUP5 PUSH1 0x5C DUP5 ADD CALLDATACOPY POP PUSH1 0x0 SWAP2 ADD PUSH1 0x5C ADD SWAP1 DUP2 MSTORE SWAP6 SWAP5 POP POP POP POP POP JUMP JUMPDEST PUSH4 0x4E487B71 PUSH1 0xE0 SHL PUSH1 0x0 MSTORE PUSH1 0x11 PUSH1 0x4 MSTORE PUSH1 0x24 PUSH1 0x0 REVERT JUMPDEST DUP1 DUP3 ADD DUP1 DUP3 GT ISZERO PUSH2 0x848 JUMPI PUSH2 0x848 PUSH2 0x3127 JUMP JUMPDEST PUSH1 0x1F DUP3 GT ISZERO PUSH2 0xEF4 JUMPI PUSH1 0x0 DUP2 DUP2 MSTORE PUSH1 0x20 DUP2 KECCAK256 PUSH1 0x1F DUP6 ADD PUSH1 0x5 SHR DUP2 ADD PUSH1 0x20 DUP7 LT ISZERO PUSH2 0x3177 JUMPI POP DUP1 JUMPDEST PUSH1 0x1F DUP6 ADD PUSH1 0x5 SHR DUP3 ADD SWAP2 POP JUMPDEST DUP2 DUP2 LT ISZERO PUSH2 0x3196 JUMPI DUP3 DUP2 SSTORE PUSH1 0x1 ADD PUSH2 0x3183 JUMP JUMPDEST POP POP POP POP POP POP JUMP JUMPDEST DUP2 MLOAD PUSH1 0x1 PUSH1 0x1 PUSH1 0x40 SHL SUB DUP2 GT ISZERO PUSH2 0x31B7 JUMPI PUSH2 0x31B7 PUSH2 0x286D JUMP JUMPDEST PUSH2 0x31CB DUP2 PUSH2 0x31C5 DUP5 SLOAD PUSH2 0x3005 JUMP JUMPDEST DUP5 PUSH2 0x3150 JUMP JUMPDEST PUSH1 0x20 DUP1 PUSH1 0x1F DUP4 GT PUSH1 0x1 DUP2 EQ PUSH2 0x3200 JUMPI PUSH1 0x0 DUP5 ISZERO PUSH2 0x31E8 JUMPI POP DUP6 DUP4 ADD MLOAD JUMPDEST PUSH1 0x0 NOT PUSH1 0x3 DUP7 SWAP1 SHL SHR NOT AND PUSH1 0x1 DUP6 SWAP1 SHL OR DUP6 SSTORE PUSH2 0x3196 JUMP JUMPDEST PUSH1 0x0 DUP6 DUP2 MSTORE PUSH1 0x20 DUP2 KECCAK256 PUSH1 0x1F NOT DUP7 AND SWAP2 JUMPDEST DUP3 DUP2 LT ISZERO PUSH2 0x322F JUMPI DUP9 DUP7 ADD MLOAD DUP3 SSTORE SWAP5 DUP5 ADD SWAP5 PUSH1 0x1 SWAP1 SWAP2 ADD SWAP1 DUP5 ADD PUSH2 0x3210 JUMP JUMPDEST POP DUP6 DUP3 LT ISZERO PUSH2 0x324D JUMPI DUP8 DUP6 ADD MLOAD PUSH1 0x0 NOT PUSH1 0x3 DUP9 SWAP1 SHL PUSH1 0xF8 AND SHR NOT AND DUP2 SSTORE JUMPDEST POP POP POP POP POP PUSH1 0x1 SWAP1 DUP2 SHL ADD SWAP1 SSTORE POP JUMP JUMPDEST DUP1 MLOAD PUSH1 0x20 DUP3 ADD MLOAD PUSH1 0x1 PUSH1 0x1 PUSH1 0xE0 SHL SUB NOT DUP1 DUP3 AND SWAP3 SWAP2 SWAP1 PUSH1 0x4 DUP4 LT ISZERO PUSH2 0x2E19 JUMPI PUSH1 0x4 SWAP3 SWAP1 SWAP3 SUB PUSH1 0x3 SHL DUP3 SWAP1 SHL AND AND SWAP3 SWAP2 POP POP JUMP JUMPDEST DUP2 DUP2 SUB DUP2 DUP2 GT ISZERO PUSH2 0x848 JUMPI PUSH2 0x848 PUSH2 0x3127 JUMP INVALID SWAP13 EXTCODESIZE 0xA6 DUP15 0xB5 PUSH21 0x2B8E3961AEA0AFC7371A71BF433C8A67A831803B64 0xC0 PUSH5 0xA178C29C47 SDIV 0x22 SWAP5 SWAP2 0xD3 PUSH6 0xFB5434052E12 LOG3 DUP7 0xD6 PUSH24 0x1D976BEA61070A8C694E8AFFEA3DA2646970667358221220 GAS 0xEF EXTCODECOPY 0xA8 KECCAK256 RETURN PUSH10 0x2934D2B6CB89557C1AF0 PUSH28 0x17BCF51AA369BB790A151CE30DE664736F6C63430008130033000000 "},"methodIdentifiers":{"RENOUNCE_OWNERSHIP_CONFIRMATION_DELAY()":"ead3fbdf","RENOUNCE_OWNERSHIP_CONFIRMATION_PERIOD()":"01bfba61","VERSION()":"ffa1ad74","acceptOwnership()":"79ba5097","batchCalls(bytes[])":"6963d438","execute(uint256,address,uint256,bytes)":"44c028fe","executeBatch(uint256[],address[],uint256[],bytes[])":"31858452","getData(bytes32)":"54f6127f","getDataBatch(bytes32[])":"dedff9c6","isValidSignature(bytes32,bytes)":"1626ba7e","owner()":"8da5cb5b","pendingOwner()":"e30c3978","renounceOwnership()":"715018a6","setData(bytes32,bytes)":"7f23690c","setDataBatch(bytes32[],bytes[])":"97902421","supportsInterface(bytes4)":"01ffc9a7","transferOwnership(address)":"f2fde38b","universalReceiver(bytes32,bytes)":"6bb56a14"}}}}}