{
  "_format": "hh-sol-artifact-1",
  "contractName": "LSP8Mock",
  "sourceName": "contracts/LSP8.sol",
  "abi": [
    {
      "inputs": [
        {
          "internalType": "string",
          "name": "name",
          "type": "string"
        },
        {
          "internalType": "string",
          "name": "symbol",
          "type": "string"
        },
        {
          "internalType": "address",
          "name": "newOwner",
          "type": "address"
        }
      ],
      "stateMutability": "nonpayable",
      "type": "constructor"
    },
    {
      "inputs": [],
      "name": "ERC725Y_DataKeysValuesEmptyArray",
      "type": "error"
    },
    {
      "inputs": [],
      "name": "ERC725Y_DataKeysValuesLengthMismatch",
      "type": "error"
    },
    {
      "inputs": [],
      "name": "ERC725Y_MsgValueDisallowed",
      "type": "error"
    },
    {
      "inputs": [
        {
          "internalType": "bytes",
          "name": "storedData",
          "type": "bytes"
        }
      ],
      "name": "InvalidExtensionAddress",
      "type": "error"
    },
    {
      "inputs": [
        {
          "internalType": "bytes",
          "name": "data",
          "type": "bytes"
        }
      ],
      "name": "InvalidFunctionSelector",
      "type": "error"
    },
    {
      "inputs": [],
      "name": "LSP4TokenNameNotEditable",
      "type": "error"
    },
    {
      "inputs": [],
      "name": "LSP4TokenSymbolNotEditable",
      "type": "error"
    },
    {
      "inputs": [],
      "name": "LSP4TokenTypeNotEditable",
      "type": "error"
    },
    {
      "inputs": [
        {
          "internalType": "uint256",
          "name": "callIndex",
          "type": "uint256"
        }
      ],
      "name": "LSP8BatchCallFailed",
      "type": "error"
    },
    {
      "inputs": [],
      "name": "LSP8CannotSendToAddressZero",
      "type": "error"
    },
    {
      "inputs": [],
      "name": "LSP8CannotSendToSelf",
      "type": "error"
    },
    {
      "inputs": [],
      "name": "LSP8CannotUseAddressZeroAsOperator",
      "type": "error"
    },
    {
      "inputs": [],
      "name": "LSP8InvalidTransferBatch",
      "type": "error"
    },
    {
      "inputs": [
        {
          "internalType": "bytes32",
          "name": "tokenId",
          "type": "bytes32"
        }
      ],
      "name": "LSP8NonExistentTokenId",
      "type": "error"
    },
    {
      "inputs": [
        {
          "internalType": "address",
          "name": "operator",
          "type": "address"
        },
        {
          "internalType": "bytes32",
          "name": "tokenId",
          "type": "bytes32"
        }
      ],
      "name": "LSP8NonExistingOperator",
      "type": "error"
    },
    {
      "inputs": [
        {
          "internalType": "bytes32",
          "name": "tokenId",
          "type": "bytes32"
        },
        {
          "internalType": "address",
          "name": "caller",
          "type": "address"
        }
      ],
      "name": "LSP8NotTokenOperator",
      "type": "error"
    },
    {
      "inputs": [
        {
          "internalType": "address",
          "name": "tokenOwner",
          "type": "address"
        },
        {
          "internalType": "bytes32",
          "name": "tokenId",
          "type": "bytes32"
        },
        {
          "internalType": "address",
          "name": "caller",
          "type": "address"
        }
      ],
      "name": "LSP8NotTokenOwner",
      "type": "error"
    },
    {
      "inputs": [
        {
          "internalType": "address",
          "name": "tokenReceiver",
          "type": "address"
        }
      ],
      "name": "LSP8NotifyTokenReceiverContractMissingLSP1Interface",
      "type": "error"
    },
    {
      "inputs": [
        {
          "internalType": "address",
          "name": "tokenReceiver",
          "type": "address"
        }
      ],
      "name": "LSP8NotifyTokenReceiverIsEOA",
      "type": "error"
    },
    {
      "inputs": [
        {
          "internalType": "address",
          "name": "operator",
          "type": "address"
        },
        {
          "internalType": "bytes32",
          "name": "tokenId",
          "type": "bytes32"
        }
      ],
      "name": "LSP8OperatorAlreadyAuthorized",
      "type": "error"
    },
    {
      "inputs": [],
      "name": "LSP8TokenContractCannotHoldValue",
      "type": "error"
    },
    {
      "inputs": [
        {
          "internalType": "bytes32",
          "name": "tokenId",
          "type": "bytes32"
        }
      ],
      "name": "LSP8TokenIdAlreadyMinted",
      "type": "error"
    },
    {
      "inputs": [],
      "name": "LSP8TokenIdFormatNotEditable",
      "type": "error"
    },
    {
      "inputs": [],
      "name": "LSP8TokenIdsDataEmptyArray",
      "type": "error"
    },
    {
      "inputs": [],
      "name": "LSP8TokenIdsDataLengthMismatch",
      "type": "error"
    },
    {
      "inputs": [],
      "name": "LSP8TokenOwnerCannotBeOperator",
      "type": "error"
    },
    {
      "inputs": [
        {
          "internalType": "bytes4",
          "name": "functionSelector",
          "type": "bytes4"
        }
      ],
      "name": "NoExtensionFoundForFunctionSelector",
      "type": "error"
    },
    {
      "inputs": [
        {
          "internalType": "address",
          "name": "callerAddress",
          "type": "address"
        }
      ],
      "name": "OwnableCallerNotTheOwner",
      "type": "error"
    },
    {
      "inputs": [],
      "name": "OwnableCannotSetZeroAddressAsOwner",
      "type": "error"
    },
    {
      "anonymous": false,
      "inputs": [
        {
          "indexed": true,
          "internalType": "bytes32",
          "name": "dataKey",
          "type": "bytes32"
        },
        {
          "indexed": false,
          "internalType": "bytes",
          "name": "dataValue",
          "type": "bytes"
        }
      ],
      "name": "DataChanged",
      "type": "event"
    },
    {
      "anonymous": false,
      "inputs": [
        {
          "indexed": true,
          "internalType": "address",
          "name": "operator",
          "type": "address"
        },
        {
          "indexed": true,
          "internalType": "address",
          "name": "tokenOwner",
          "type": "address"
        },
        {
          "indexed": true,
          "internalType": "bytes32",
          "name": "tokenId",
          "type": "bytes32"
        },
        {
          "indexed": false,
          "internalType": "bytes",
          "name": "operatorNotificationData",
          "type": "bytes"
        }
      ],
      "name": "OperatorAuthorizationChanged",
      "type": "event"
    },
    {
      "anonymous": false,
      "inputs": [
        {
          "indexed": true,
          "internalType": "address",
          "name": "operator",
          "type": "address"
        },
        {
          "indexed": true,
          "internalType": "address",
          "name": "tokenOwner",
          "type": "address"
        },
        {
          "indexed": true,
          "internalType": "bytes32",
          "name": "tokenId",
          "type": "bytes32"
        },
        {
          "indexed": false,
          "internalType": "bool",
          "name": "notified",
          "type": "bool"
        },
        {
          "indexed": false,
          "internalType": "bytes",
          "name": "operatorNotificationData",
          "type": "bytes"
        }
      ],
      "name": "OperatorRevoked",
      "type": "event"
    },
    {
      "anonymous": false,
      "inputs": [
        {
          "indexed": true,
          "internalType": "address",
          "name": "previousOwner",
          "type": "address"
        },
        {
          "indexed": true,
          "internalType": "address",
          "name": "newOwner",
          "type": "address"
        }
      ],
      "name": "OwnershipTransferred",
      "type": "event"
    },
    {
      "anonymous": false,
      "inputs": [
        {
          "indexed": true,
          "internalType": "bytes32",
          "name": "tokenId",
          "type": "bytes32"
        },
        {
          "indexed": true,
          "internalType": "bytes32",
          "name": "dataKey",
          "type": "bytes32"
        },
        {
          "indexed": false,
          "internalType": "bytes",
          "name": "dataValue",
          "type": "bytes"
        }
      ],
      "name": "TokenIdDataChanged",
      "type": "event"
    },
    {
      "anonymous": false,
      "inputs": [
        {
          "indexed": false,
          "internalType": "address",
          "name": "operator",
          "type": "address"
        },
        {
          "indexed": true,
          "internalType": "address",
          "name": "from",
          "type": "address"
        },
        {
          "indexed": true,
          "internalType": "address",
          "name": "to",
          "type": "address"
        },
        {
          "indexed": true,
          "internalType": "bytes32",
          "name": "tokenId",
          "type": "bytes32"
        },
        {
          "indexed": false,
          "internalType": "bool",
          "name": "force",
          "type": "bool"
        },
        {
          "indexed": false,
          "internalType": "bytes",
          "name": "data",
          "type": "bytes"
        }
      ],
      "name": "Transfer",
      "type": "event"
    },
    {
      "stateMutability": "payable",
      "type": "fallback"
    },
    {
      "inputs": [
        {
          "internalType": "address",
          "name": "operator",
          "type": "address"
        },
        {
          "internalType": "bytes32",
          "name": "tokenId",
          "type": "bytes32"
        },
        {
          "internalType": "bytes",
          "name": "operatorNotificationData",
          "type": "bytes"
        }
      ],
      "name": "authorizeOperator",
      "outputs": [],
      "stateMutability": "nonpayable",
      "type": "function"
    },
    {
      "inputs": [
        {
          "internalType": "address",
          "name": "tokenOwner",
          "type": "address"
        }
      ],
      "name": "balanceOf",
      "outputs": [
        {
          "internalType": "uint256",
          "name": "",
          "type": "uint256"
        }
      ],
      "stateMutability": "view",
      "type": "function"
    },
    {
      "inputs": [
        {
          "internalType": "bytes[]",
          "name": "data",
          "type": "bytes[]"
        }
      ],
      "name": "batchCalls",
      "outputs": [
        {
          "internalType": "bytes[]",
          "name": "results",
          "type": "bytes[]"
        }
      ],
      "stateMutability": "nonpayable",
      "type": "function"
    },
    {
      "inputs": [
        {
          "internalType": "bytes32",
          "name": "dataKey",
          "type": "bytes32"
        }
      ],
      "name": "getData",
      "outputs": [
        {
          "internalType": "bytes",
          "name": "dataValue",
          "type": "bytes"
        }
      ],
      "stateMutability": "view",
      "type": "function"
    },
    {
      "inputs": [
        {
          "internalType": "bytes32[]",
          "name": "dataKeys",
          "type": "bytes32[]"
        }
      ],
      "name": "getDataBatch",
      "outputs": [
        {
          "internalType": "bytes[]",
          "name": "dataValues",
          "type": "bytes[]"
        }
      ],
      "stateMutability": "view",
      "type": "function"
    },
    {
      "inputs": [
        {
          "internalType": "bytes32[]",
          "name": "tokenIds",
          "type": "bytes32[]"
        },
        {
          "internalType": "bytes32[]",
          "name": "dataKeys",
          "type": "bytes32[]"
        }
      ],
      "name": "getDataBatchForTokenIds",
      "outputs": [
        {
          "internalType": "bytes[]",
          "name": "dataValues",
          "type": "bytes[]"
        }
      ],
      "stateMutability": "view",
      "type": "function"
    },
    {
      "inputs": [
        {
          "internalType": "bytes32",
          "name": "tokenId",
          "type": "bytes32"
        },
        {
          "internalType": "bytes32",
          "name": "dataKey",
          "type": "bytes32"
        }
      ],
      "name": "getDataForTokenId",
      "outputs": [
        {
          "internalType": "bytes",
          "name": "dataValue",
          "type": "bytes"
        }
      ],
      "stateMutability": "view",
      "type": "function"
    },
    {
      "inputs": [
        {
          "internalType": "bytes32",
          "name": "tokenId",
          "type": "bytes32"
        }
      ],
      "name": "getOperatorsOf",
      "outputs": [
        {
          "internalType": "address[]",
          "name": "",
          "type": "address[]"
        }
      ],
      "stateMutability": "view",
      "type": "function"
    },
    {
      "inputs": [
        {
          "internalType": "address",
          "name": "operator",
          "type": "address"
        },
        {
          "internalType": "bytes32",
          "name": "tokenId",
          "type": "bytes32"
        }
      ],
      "name": "isOperatorFor",
      "outputs": [
        {
          "internalType": "bool",
          "name": "",
          "type": "bool"
        }
      ],
      "stateMutability": "view",
      "type": "function"
    },
    {
      "inputs": [
        {
          "internalType": "address",
          "name": "to",
          "type": "address"
        },
        {
          "internalType": "uint256",
          "name": "amount",
          "type": "uint256"
        }
      ],
      "name": "mint",
      "outputs": [],
      "stateMutability": "nonpayable",
      "type": "function"
    },
    {
      "inputs": [],
      "name": "owner",
      "outputs": [
        {
          "internalType": "address",
          "name": "",
          "type": "address"
        }
      ],
      "stateMutability": "view",
      "type": "function"
    },
    {
      "inputs": [],
      "name": "renounceOwnership",
      "outputs": [],
      "stateMutability": "nonpayable",
      "type": "function"
    },
    {
      "inputs": [
        {
          "internalType": "address",
          "name": "operator",
          "type": "address"
        },
        {
          "internalType": "bytes32",
          "name": "tokenId",
          "type": "bytes32"
        },
        {
          "internalType": "bool",
          "name": "notify",
          "type": "bool"
        },
        {
          "internalType": "bytes",
          "name": "operatorNotificationData",
          "type": "bytes"
        }
      ],
      "name": "revokeOperator",
      "outputs": [],
      "stateMutability": "nonpayable",
      "type": "function"
    },
    {
      "inputs": [
        {
          "internalType": "bytes32",
          "name": "dataKey",
          "type": "bytes32"
        },
        {
          "internalType": "bytes",
          "name": "dataValue",
          "type": "bytes"
        }
      ],
      "name": "setData",
      "outputs": [],
      "stateMutability": "payable",
      "type": "function"
    },
    {
      "inputs": [
        {
          "internalType": "bytes32[]",
          "name": "dataKeys",
          "type": "bytes32[]"
        },
        {
          "internalType": "bytes[]",
          "name": "dataValues",
          "type": "bytes[]"
        }
      ],
      "name": "setDataBatch",
      "outputs": [],
      "stateMutability": "payable",
      "type": "function"
    },
    {
      "inputs": [
        {
          "internalType": "bytes32[]",
          "name": "tokenIds",
          "type": "bytes32[]"
        },
        {
          "internalType": "bytes32[]",
          "name": "dataKeys",
          "type": "bytes32[]"
        },
        {
          "internalType": "bytes[]",
          "name": "dataValues",
          "type": "bytes[]"
        }
      ],
      "name": "setDataBatchForTokenIds",
      "outputs": [],
      "stateMutability": "nonpayable",
      "type": "function"
    },
    {
      "inputs": [
        {
          "internalType": "bytes32",
          "name": "tokenId",
          "type": "bytes32"
        },
        {
          "internalType": "bytes32",
          "name": "dataKey",
          "type": "bytes32"
        },
        {
          "internalType": "bytes",
          "name": "dataValue",
          "type": "bytes"
        }
      ],
      "name": "setDataForTokenId",
      "outputs": [],
      "stateMutability": "nonpayable",
      "type": "function"
    },
    {
      "inputs": [
        {
          "internalType": "bytes4",
          "name": "interfaceId",
          "type": "bytes4"
        }
      ],
      "name": "supportsInterface",
      "outputs": [
        {
          "internalType": "bool",
          "name": "",
          "type": "bool"
        }
      ],
      "stateMutability": "view",
      "type": "function"
    },
    {
      "inputs": [
        {
          "internalType": "address",
          "name": "tokenOwner",
          "type": "address"
        }
      ],
      "name": "tokenIdsOf",
      "outputs": [
        {
          "internalType": "bytes32[]",
          "name": "",
          "type": "bytes32[]"
        }
      ],
      "stateMutability": "view",
      "type": "function"
    },
    {
      "inputs": [
        {
          "internalType": "bytes32",
          "name": "tokenId",
          "type": "bytes32"
        }
      ],
      "name": "tokenOwnerOf",
      "outputs": [
        {
          "internalType": "address",
          "name": "",
          "type": "address"
        }
      ],
      "stateMutability": "view",
      "type": "function"
    },
    {
      "inputs": [],
      "name": "totalSupply",
      "outputs": [
        {
          "internalType": "uint256",
          "name": "",
          "type": "uint256"
        }
      ],
      "stateMutability": "view",
      "type": "function"
    },
    {
      "inputs": [
        {
          "internalType": "address",
          "name": "from",
          "type": "address"
        },
        {
          "internalType": "address",
          "name": "to",
          "type": "address"
        },
        {
          "internalType": "bytes32",
          "name": "tokenId",
          "type": "bytes32"
        },
        {
          "internalType": "bool",
          "name": "force",
          "type": "bool"
        },
        {
          "internalType": "bytes",
          "name": "data",
          "type": "bytes"
        }
      ],
      "name": "transfer",
      "outputs": [],
      "stateMutability": "nonpayable",
      "type": "function"
    },
    {
      "inputs": [
        {
          "internalType": "address[]",
          "name": "from",
          "type": "address[]"
        },
        {
          "internalType": "address[]",
          "name": "to",
          "type": "address[]"
        },
        {
          "internalType": "bytes32[]",
          "name": "tokenId",
          "type": "bytes32[]"
        },
        {
          "internalType": "bool[]",
          "name": "force",
          "type": "bool[]"
        },
        {
          "internalType": "bytes[]",
          "name": "data",
          "type": "bytes[]"
        }
      ],
      "name": "transferBatch",
      "outputs": [],
      "stateMutability": "nonpayable",
      "type": "function"
    },
    {
      "inputs": [
        {
          "internalType": "address",
          "name": "newOwner",
          "type": "address"
        }
      ],
      "name": "transferOwnership",
      "outputs": [],
      "stateMutability": "nonpayable",
      "type": "function"
    },
    {
      "stateMutability": "payable",
      "type": "receive"
    }
  ],
  "bytecode": "0x608060405260006007553480156200001657600080fd5b50604051620031d4380380620031d4833981016040819052620000399162000424565b8282826001600084848484816001600160a01b0381166200006d576040516306b620db60e21b815260040160405180910390fd5b6200007881620001bd565b506040805180820190915260048152632936598960e21b6020820152620000c1907feafec4d89fa9619884b60000a4d96624a38f7ac2d8d9a604ecf07c12c77e480c906200022b565b620000ed7fdeba1e292f8ba88238e10ab3c7f88bd4be4fac56cad5194b6ecceaf653468af1856200022b565b620001197f2f0a68ab07768e01943a599e73362a0e17a63a72e94dd2e384d2c1d4db932756846200022b565b604080516020810183905262000162917fe0261fa95db2eb3b5439bd033cda66d56b96f92f243a8228fd87550ed7bdfdb3910160408051601f198184030181529190526200022b565b50506040805160208101859052620001af93507ff675e9361af1c1664c1868cfa3eb97672d6b1a513aa5b81dec34c9ee330e818d92500160408051601f1981840301815291905262000284565b505050505050505062000641565b6000546001600160a01b038281169116146200022857600080546040516001600160a01b03808516939216917f8be0079c531659141344cd1fd0a4f28419497f9722a3daafe3b4186f6b6457e091a3600080546001600160a01b0319166001600160a01b0383161790555b50565b600082815260016020526040902062000245828262000540565b50817fece574603820d07bc9b91f2a932baadf4628aabcb8afba49776529c14a6104b2826040516200027891906200060c565b60405180910390a25050565b62000290828262000294565b5050565b7f2145e1d6d074577dc71ef54c3807742b41b053a9352ae6b491331509acb9750f8201620002d5576040516385c169bd60e01b815260040160405180910390fd5b7fd0f59754f88971fe6bc5a6618cc9d5f1e859c58d16b22d1c7b2d3e2b246cd8aa82016200031657604051630eceab6760e31b815260040160405180910390fd5b7f1fd9e056a24d14c4abc642fcc325992a946906d0dbc57dd70278aaf12842024d82016200022b57604051634ef6d7fb60e01b815260040160405180910390fd5b634e487b7160e01b600052604160045260246000fd5b60005b838110156200038a57818101518382015260200162000370565b50506000910152565b600082601f830112620003a557600080fd5b81516001600160401b0380821115620003c257620003c262000357565b604051601f8301601f19908116603f01168101908282118183101715620003ed57620003ed62000357565b816040528381528660208588010111156200040757600080fd5b6200041a8460208301602089016200036d565b9695505050505050565b6000806000606084860312156200043a57600080fd5b83516001600160401b03808211156200045257600080fd5b620004608783880162000393565b945060208601519150808211156200047757600080fd5b50620004868682870162000393565b604086015190935090506001600160a01b0381168114620004a657600080fd5b809150509250925092565b600181811c90821680620004c657607f821691505b602082108103620004e757634e487b7160e01b600052602260045260246000fd5b50919050565b601f8211156200053b57600081815260208120601f850160051c81016020861015620005165750805b601f850160051c820191505b81811015620005375782815560010162000522565b5050505b505050565b81516001600160401b038111156200055c576200055c62000357565b62000574816200056d8454620004b1565b84620004ed565b602080601f831160018114620005ac5760008415620005935750858301515b600019600386901b1c1916600185901b17855562000537565b600085815260208120601f198616915b82811015620005dd57888601518255948401946001909101908401620005bc565b5085821015620005fc5787850151600019600388901b60f8161c191681555b5050505050600190811b01905550565b60208152600082518060208401526200062d8160408501602087016200036d565b601f01601f19169190910160400192915050565b612b8380620006516000396000f3fe60806040526004361061014f5760003560e01c8063715018a6116100b6578063a3b261f21161006f578063a3b261f214610459578063be9f0e6f14610486578063d6c1407c146104a6578063db8c9663146104c6578063dedff9c6146104e6578063f2fde38b14610506576101aa565b8063715018a6146103c05780637e87632c146103d55780637f23690c146103f557806386a10ddd146104085780638da5cb5b146104285780639790242114610446576101aa565b806340c10f191161010857806340c10f19146102f157806349a6078d14610313578063511b69521461034057806354f6127f146103605780636963d4381461038057806370a08231146103a0576101aa565b806301ffc9a7146101eb57806316e023b31461022057806318160ddd1461024d5780631d26fce61461026c578063217b2270146102995780632a3654a4146102d1576101aa565b366101aa57346000036101915760405163e5099ee360e01b81526004016101889060208082526004908201526000604082015260600190565b60405180910390fd5b6040516330fa4a2160e11b815260040160405180910390fd5b600036606060048210156101d557828260405163e5099ee360e01b8152600401610188929190611e1d565b6101df8383610526565b80519350602001915050f35b3480156101f757600080fd5b5061020b610206366004611e4c565b61061c565b60405190151581526020015b60405180910390f35b34801561022c57600080fd5b5061024061023b366004611e76565b610650565b6040516102179190611ee8565b34801561025957600080fd5b506002545b604051908152602001610217565b34801561027857600080fd5b5061028c610287366004611fcf565b610663565b6040516102179190612032565b3480156102a557600080fd5b506102b96102b4366004612094565b610728565b6040516001600160a01b039091168152602001610217565b3480156102dd57600080fd5b5061020b6102ec3660046120c9565b610761565b3480156102fd57600080fd5b5061031161030c3660046120c9565b610776565b005b34801561031f57600080fd5b5061033361032e366004612094565b6107d3565b60405161021791906120f3565b34801561034c57600080fd5b5061031161035b3660046121c8565b6107f5565b34801561036c57600080fd5b5061024061037b366004612094565b610839565b34801561038c57600080fd5b5061028c61039b366004612240565b610844565b3480156103ac57600080fd5b5061025e6103bb3660046122b4565b610973565b3480156103cc57600080fd5b50610311610994565b3480156103e157600080fd5b506103116103f0366004612412565b6109a8565b6103116104033660046124d6565b610a97565b34801561041457600080fd5b50610311610423366004612512565b610acc565b34801561043457600080fd5b506000546001600160a01b03166102b9565b610311610454366004612568565b610c46565b34801561046557600080fd5b506104796104743660046122b4565b610d01565b60405161021791906125c1565b34801561049257600080fd5b506103116104a13660046125f9565b610d25565b3480156104b257600080fd5b506103116104c1366004612676565b610df0565b3480156104d257600080fd5b506103116104e13660046126af565b610e03565b3480156104f257600080fd5b5061028c610501366004612716565b610ed7565b34801561051257600080fd5b506103116105213660046122b4565b610f81565b6060600061053f6000356001600160e01b031916610fbc565b5090506001600160a01b0381166105775760405163bb370b2b60e01b81526001600160e01b0319600035166004820152602401610188565b600080826001600160a01b0316348787333460405160200161059c949392919061274a565b60408051601f19818403018152908290526105b691612775565b60006040518083038185875af1925050503d80600081146105f3576040519150601f19603f3d011682016040523d82523d6000602084013e6105f8565b606091505b5091509150811561060d579250610616915050565b80518060208301fd5b92915050565b60006001600160e01b03198216631d138b8360e11b148061064157506106418261103a565b8061061657506106168261105f565b606061065c8383611096565b9392505050565b606082516001600160401b0381111561067e5761067e611efb565b6040519080825280602002602001820160405280156106b157816020015b606081526020019060019003908161069c5790505b50905060005b8351811015610721576106fc8482815181106106d5576106d5612791565b60200260200101518483815181106106ef576106ef612791565b6020026020010151611096565b82828151811061070e5761070e612791565b60209081029190910101526001016106b7565b5092915050565b6000818152600360205260408120546001600160a01b03168061061657604051635747cd1b60e11b815260048101849052602401610188565b600061076c8261116d565b61065c83836111a5565b60005b818110156107ce5760016007600082825461079491906127bd565b925050819055506107bc8360075460001b6000604051806020016040528060008152506111e2565b806107c6816127d0565b915050610779565b505050565b60606107de8261116d565b600082815260056020526040902061061690611319565b6107ff33846111a5565b61082557604051631294d2a960e01b815260048101849052336024820152604401610188565b6108328585858585611326565b5050505050565b6060610616826114e2565b6060816001600160401b0381111561085e5761085e611efb565b60405190808252806020026020018201604052801561089157816020015b606081526020019060019003908161087c5790505b50905060005b8281101561072157600080308686858181106108b5576108b5612791565b90506020028101906108c791906127e9565b6040516108d5929190612836565b600060405180830381855af49150503d8060008114610910576040519150601f19603f3d011682016040523d82523d6000602084013e610915565b606091505b50915091508161094b5780511561092f5780518082602001fd5b60405163234eb81960e01b815260048101849052602401610188565b8084848151811061095e5761095e612791565b60209081029190910101525050600101610897565b6001600160a01b038116600090815260046020526040812061061690611584565b61099c61158e565b6109a660006115ca565b565b84518451811415806109bb575083518114155b806109c7575082518114155b806109d3575081518114155b156109f1576040516393a8311960e01b815260040160405180910390fd5b60005b81811015610a8e57610a86878281518110610a1157610a11612791565b6020026020010151878381518110610a2b57610a2b612791565b6020026020010151878481518110610a4557610a45612791565b6020026020010151878581518110610a5f57610a5f612791565b6020026020010151878681518110610a7957610a79612791565b60200260200101516107f5565b6001016109f4565b50505050505050565b610a9f61158e565b3415610abe5760405163f36ba73760e01b815260040160405180910390fd5b610ac88282611638565b5050565b6000610ad783610728565b90506001600160a01b0381163314610b1a57604051632d938f5160e11b81526001600160a01b038216600482015260248101849052336044820152606401610188565b6001600160a01b038416610b4157604051639577b8b360e01b815260040160405180910390fd5b836001600160a01b0316816001600160a01b031603610b73576040516344fed6b160e11b815260040160405180910390fd5b6000838152600560205260408120610b8b9086611682565b905080610bbd576040516314ec4d6d60e31b81526001600160a01b038616600482015260248101859052604401610188565b83826001600160a01b0316866001600160a01b03167f1b1b58aa2ec0cec2228b2d37124556d41f5a1f7b12f089171f896cc23667121586604051610c019190611ee8565b60405180910390a460003385600186604051602001610c239493929190612846565b6040516020818303038152906040529050610c3e8682611697565b505050505050565b610c4e61158e565b3415610c6d5760405163f36ba73760e01b815260040160405180910390fd5b8051825114610c8f57604051633bcc897960e01b815260040160405180910390fd5b8151600003610cb1576040516397da5f9560e01b815260040160405180910390fd5b60005b82518110156107ce57610cf9838281518110610cd257610cd2612791565b6020026020010151838381518110610cec57610cec612791565b6020026020010151611638565b600101610cb4565b6001600160a01b038116600090815260046020526040902060609061061690611319565b610d2d61158e565b81518351141580610d4057508051825114155b15610d5e576040516317d38eff60e11b815260040160405180910390fd5b8251600003610d80576040516380c9830560e01b815260040160405180910390fd5b60005b8351811015610dea57610de2848281518110610da157610da1612791565b6020026020010151848381518110610dbb57610dbb612791565b6020026020010151848481518110610dd557610dd5612791565b60200260200101516116c2565b600101610d83565b50505050565b610df861158e565b6107ce8383836116c2565b6000610e0e84610728565b90506001600160a01b0381163314610e5157604051632d938f5160e11b81526001600160a01b038216600482015260248101859052336044820152606401610188565b6001600160a01b038516610e7857604051639577b8b360e01b815260040160405180910390fd5b846001600160a01b0316816001600160a01b031603610eaa576040516344fed6b160e11b815260040160405180910390fd5b610eb78582868686611752565b82156108325760003385600085604051602001610c239493929190612846565b606081516001600160401b03811115610ef257610ef2611efb565b604051908082528060200260200182016040528015610f2557816020015b6060815260200190600190039081610f105790505b50905060005b8251811015610f7b57610f56838281518110610f4957610f49612791565b60200260200101516114e2565b828281518110610f6857610f68612791565b6020908102919091010152600101610f2b565b50919050565b610f8961158e565b6001600160a01b038116610fb0576040516306b620db60e21b815260040160405180910390fd5b610fb9816115ca565b50565b60008080610fe1696773c5a04a6d4300884b60b11b6001600160e01b031986166117f2565b90506000610fee826114e2565b905080516014141580156110025750805115155b1561102257806040516342bfe79f60e01b81526004016101889190611ee8565b61102b8161287f565b60601c95600195509350505050565b60006001600160e01b0319821663a918fa6b60e01b1480610616575061061682611846565b6000806110726301ffc9a760e01b610fbc565b5090506001600160a01b03811661108c5750600092915050565b61065c818461187b565b60606001600084846040516020016110b8929190918252602082015260400190565b60405160208183030381529060405280519060200120815260200190815260200160002080546110e7906128b6565b80601f0160208091040260200160405190810160405280929190818152602001828054611113906128b6565b80156111605780601f1061113557610100808354040283529160200191611160565b820191906000526020600020905b81548152906001019060200180831161114357829003601f168201915b5050505050905092915050565b6000818152600360205260409020546001600160a01b0316610fb957604051635747cd1b60e11b815260048101829052602401610188565b60006111b082610728565b6001600160a01b0316836001600160a01b0316148061065c5750600082815260056020526040902061065c9084611904565b6001600160a01b038416611209576040516324ecef4d60e01b815260040160405180910390fd5b6000838152600360205260409020546001600160a01b031615611242576040516334c7b51160e01b815260048101849052602401610188565b600260008154611251906127d0565b909155506001600160a01b03841660009081526004602052604090206112779084611926565b5060008381526003602052604080822080546001600160a01b0319166001600160a01b03881690811790915590518592907fb333c813a7426a7a11e2b190cad52c44119421594b47f6f32ace6d8c7207b2bf906112d9903390889088906128ea565b60405180910390a460003360008686856040516020016112fd95949392919061291f565b6040516020818303038152906040529050610832858483611932565b6060600061065c83611a3a565b836001600160a01b0316856001600160a01b03160361135857604051635d67d6c160e01b815260040160405180910390fd5b600061136384610728565b9050856001600160a01b0316816001600160a01b0316146113b157604051632d938f5160e11b81526001600160a01b0380831660048301526024820186905287166044820152606401610188565b6001600160a01b0385166113d8576040516324ecef4d60e01b815260040160405180910390fd5b6113e184610728565b90506113ed8685611a95565b6001600160a01b038616600090815260046020526040902061140f9085611aed565b506001600160a01b03851660009081526004602052604090206114329085611926565b506000848152600360205260409081902080546001600160a01b0319166001600160a01b0388811691821790925591518692918916907fb333c813a7426a7a11e2b190cad52c44119421594b47f6f32ace6d8c7207b2bf90611499903390899089906128ea565b60405180910390a4600033878787866040516020016114bc95949392919061291f565b60405160208183030381529060405290506114d78782611af9565b610a8e868583611932565b60008181526001602052604090208054606091906114ff906128b6565b80601f016020809104026020016040519081016040528092919081815260200182805461152b906128b6565b80156115785780601f1061154d57610100808354040283529160200191611578565b820191906000526020600020905b81548152906001019060200180831161155b57829003601f168201915b50505050509050919050565b6000610616825490565b336115a16000546001600160a01b031690565b6001600160a01b0316146109a65760405163bf1169c560e01b8152336004820152602401610188565b6000546001600160a01b03828116911614610fb957600080546040516001600160a01b03808516939216917f8be0079c531659141344cd1fd0a4f28419497f9722a3daafe3b4186f6b6457e091a3600080546001600160a01b0383166001600160a01b031990911617905550565b7f098a16c9e50e3e99b3e797305c146898d294e5aec55a47e213cb3611ccf17e73820161167857604051631b32400560e11b815260040160405180910390fd5b610ac88282611b24565b600061065c836001600160a01b038416611b2e565b610ac8827f8a1c15a8799f71b547e08e2bcb2e85257e81b0a07eee2ce6712549eef1f0097083611b7d565b806001600085856040516020016116e3929190918252602082015260400190565b604051602081830303815290604052805190602001208152602001908152602001600020908161171391906129a0565b5081837fa6e4251f855f750545fe414f120db91c76b88def14d120969e5bb2d3f05debbb836040516117459190611ee8565b60405180910390a3505050565b600083815260056020526040812061176a9087611bca565b90508061179c576040516312a8c6a360e21b81526001600160a01b038716600482015260248101859052604401610188565b83856001600160a01b0316876001600160a01b03167fc78cd419d6136f9f1c1c6aec1d3fae098cffaf8bc86314a8f2685e32fe574e3c86866040516117e2929190612a5f565b60405180910390a4505050505050565b604080516001600160b01b0319841660208201526000602a82018190526001600160601b03198416602c8301529182910160405160208183030381529060405290508061183e90612a7a565b949350505050565b60006001600160e01b031982166318a6a9a560e21b148061061657506301ffc9a760e01b6001600160e01b0319831614610616565b604080516001600160e01b03198316602480830191909152825180830390910181526044909101909152602080820180516001600160e01b03166301ffc9a760e01b178152825160009392849283928392918391908a617530fa92503d915060005190508280156118ed575060208210155b80156118f95750600081115b979650505050505050565b6001600160a01b0381166000908152600183016020526040812054151561065c565b600061065c8383611b2e565b61194383631aed5a8560e21b61187b565b156119dd57604051631aed5a8560e21b81526001600160a01b03841690636bb56a1490611996907f0b084a55ebf70fd3c06fd755269dac2212c4d3f0f4d09079780bfa50c1b2984d908590600401612a9e565b6000604051808303816000875af11580156119b5573d6000803e3d6000fd5b505050506040513d6000823e601f3d908101601f19168201604052610dea9190810190612ab7565b816107ce576001600160a01b0383163b15611a1657604051634349776d60e01b81526001600160a01b0384166004820152602401610188565b604051630317313760e01b81526001600160a01b0384166004820152602401610188565b60608160000180548060200260200160405190810160405280929190818152602001828054801561157857602002820191906000526020600020905b815481526020019060010190808311611a765750505050509050919050565b600081815260056020526040812090611aad82611584565b90506000805b82811015610c3e57611ac6846000611bdf565b9150611ae5828787600060405180602001604052806000815250611752565b600101611ab3565b600061065c8383611beb565b610ac8827fb23eae7e6d1564b295b4c3e3be402d9a2f0776c57bdf365903496f6fa481ab0083611b7d565b610ac88282611cde565b6000818152600183016020526040812054611b7557508154600181810184556000848152602080822090930184905584548482528286019093526040902091909155610616565b506000610616565b611b976001600160a01b038416631aed5a8560e21b61187b565b156107ce57604051631aed5a8560e21b81526001600160a01b03841690636bb56a14906119969085908590600401612a9e565b600061065c836001600160a01b038416611beb565b600061065c8383611df3565b60008181526001830160205260408120548015611cd4576000611c0f600183612b24565b8554909150600090611c2390600190612b24565b9050818114611c88576000866000018281548110611c4357611c43612791565b9060005260206000200154905080876000018481548110611c6657611c66612791565b6000918252602080832090910192909255918252600188019052604090208390555b8554869080611c9957611c99612b37565b600190038181906000526020600020016000905590558560010160008681526020019081526020016000206000905560019350505050610616565b6000915050610616565b7f2145e1d6d074577dc71ef54c3807742b41b053a9352ae6b491331509acb9750f8201611d1e576040516385c169bd60e01b815260040160405180910390fd5b7fd0f59754f88971fe6bc5a6618cc9d5f1e859c58d16b22d1c7b2d3e2b246cd8aa8201611d5e57604051630eceab6760e31b815260040160405180910390fd5b7f1fd9e056a24d14c4abc642fcc325992a946906d0dbc57dd70278aaf12842024d8201611d9e57604051634ef6d7fb60e01b815260040160405180910390fd5b6000828152600160205260409020611db682826129a0565b50817fece574603820d07bc9b91f2a932baadf4628aabcb8afba49776529c14a6104b282604051611de79190611ee8565b60405180910390a25050565b6000826000018281548110611e0a57611e0a612791565b9060005260206000200154905092915050565b60208152816020820152818360408301376000818301604090810191909152601f909201601f19160101919050565b600060208284031215611e5e57600080fd5b81356001600160e01b03198116811461065c57600080fd5b60008060408385031215611e8957600080fd5b50508035926020909101359150565b60005b83811015611eb3578181015183820152602001611e9b565b50506000910152565b60008151808452611ed4816020860160208601611e98565b601f01601f19169290920160200192915050565b60208152600061065c6020830184611ebc565b634e487b7160e01b600052604160045260246000fd5b604051601f8201601f191681016001600160401b0381118282101715611f3957611f39611efb565b604052919050565b60006001600160401b03821115611f5a57611f5a611efb565b5060051b60200190565b600082601f830112611f7557600080fd5b81356020611f8a611f8583611f41565b611f11565b82815260059290921b84018101918181019086841115611fa957600080fd5b8286015b84811015611fc45780358352918301918301611fad565b509695505050505050565b60008060408385031215611fe257600080fd5b82356001600160401b0380821115611ff957600080fd5b61200586838701611f64565b9350602085013591508082111561201b57600080fd5b5061202885828601611f64565b9150509250929050565b6000602080830181845280855180835260408601915060408160051b870101925083870160005b8281101561208757603f19888603018452612075858351611ebc565b94509285019290850190600101612059565b5092979650505050505050565b6000602082840312156120a657600080fd5b5035919050565b80356001600160a01b03811681146120c457600080fd5b919050565b600080604083850312156120dc57600080fd5b6120e5836120ad565b946020939093013593505050565b6020808252825182820181905260009190848201906040850190845b818110156121345783516001600160a01b03168352928401929184019160010161210f565b50909695505050505050565b803580151581146120c457600080fd5b60006001600160401b0382111561216957612169611efb565b50601f01601f191660200190565b600082601f83011261218857600080fd5b8135612196611f8582612150565b8181528460208386010111156121ab57600080fd5b816020850160208301376000918101602001919091529392505050565b600080600080600060a086880312156121e057600080fd5b6121e9866120ad565b94506121f7602087016120ad565b93506040860135925061220c60608701612140565b915060808601356001600160401b0381111561222757600080fd5b61223388828901612177565b9150509295509295909350565b6000806020838503121561225357600080fd5b82356001600160401b038082111561226a57600080fd5b818501915085601f83011261227e57600080fd5b81358181111561228d57600080fd5b8660208260051b85010111156122a257600080fd5b60209290920196919550909350505050565b6000602082840312156122c657600080fd5b61065c826120ad565b600082601f8301126122e057600080fd5b813560206122f0611f8583611f41565b82815260059290921b8401810191818101908684111561230f57600080fd5b8286015b84811015611fc457612324816120ad565b8352918301918301612313565b600082601f83011261234257600080fd5b81356020612352611f8583611f41565b82815260059290921b8401810191818101908684111561237157600080fd5b8286015b84811015611fc45761238681612140565b8352918301918301612375565b600082601f8301126123a457600080fd5b813560206123b4611f8583611f41565b82815260059290921b840181019181810190868411156123d357600080fd5b8286015b84811015611fc45780356001600160401b038111156123f65760008081fd5b6124048986838b0101612177565b8452509183019183016123d7565b600080600080600060a0868803121561242a57600080fd5b85356001600160401b038082111561244157600080fd5b61244d89838a016122cf565b9650602088013591508082111561246357600080fd5b61246f89838a016122cf565b9550604088013591508082111561248557600080fd5b61249189838a01611f64565b945060608801359150808211156124a757600080fd5b6124b389838a01612331565b935060808801359150808211156124c957600080fd5b5061223388828901612393565b600080604083850312156124e957600080fd5b8235915060208301356001600160401b0381111561250657600080fd5b61202885828601612177565b60008060006060848603121561252757600080fd5b612530846120ad565b92506020840135915060408401356001600160401b0381111561255257600080fd5b61255e86828701612177565b9150509250925092565b6000806040838503121561257b57600080fd5b82356001600160401b038082111561259257600080fd5b61259e86838701611f64565b935060208501359150808211156125b457600080fd5b5061202885828601612393565b6020808252825182820181905260009190848201906040850190845b81811015612134578351835292840192918401916001016125dd565b60008060006060848603121561260e57600080fd5b83356001600160401b038082111561262557600080fd5b61263187838801611f64565b9450602086013591508082111561264757600080fd5b61265387838801611f64565b9350604086013591508082111561266957600080fd5b5061255e86828701612393565b60008060006060848603121561268b57600080fd5b833592506020840135915060408401356001600160401b0381111561255257600080fd5b600080600080608085870312156126c557600080fd5b6126ce856120ad565b9350602085013592506126e360408601612140565b915060608501356001600160401b038111156126fe57600080fd5b61270a87828801612177565b91505092959194509250565b60006020828403121561272857600080fd5b81356001600160401b0381111561273e57600080fd5b61183e84828501611f64565b8385823760609290921b6001600160601b031916919092019081526014810191909152603401919050565b60008251612787818460208701611e98565b9190910192915050565b634e487b7160e01b600052603260045260246000fd5b634e487b7160e01b600052601160045260246000fd5b80820180821115610616576106166127a7565b6000600182016127e2576127e26127a7565b5060010190565b6000808335601e1984360301811261280057600080fd5b8301803591506001600160401b0382111561281a57600080fd5b60200191503681900382131561282f57600080fd5b9250929050565b8183823760009101908152919050565b60018060a01b038516815283602082015282151560408201526080606082015260006128756080830184611ebc565b9695505050505050565b805160208201516001600160601b031980821692919060148310156128ae5780818460140360031b1b83161693505b505050919050565b600181811c908216806128ca57607f821691505b602082108103610f7b57634e487b7160e01b600052602260045260246000fd5b6001600160a01b0384168152821515602082015260606040820181905260009061291690830184611ebc565b95945050505050565b6001600160a01b0386811682528581166020830152841660408201526060810183905260a0608082018190526000906118f990830184611ebc565b601f8211156107ce57600081815260208120601f850160051c810160208610156129815750805b601f850160051c820191505b81811015610c3e5782815560010161298d565b81516001600160401b038111156129b9576129b9611efb565b6129cd816129c784546128b6565b8461295a565b602080601f831160018114612a0257600084156129ea5750858301515b600019600386901b1c1916600185901b178555610c3e565b600085815260208120601f198616915b82811015612a3157888601518255948401946001909101908401612a12565b5085821015612a4f5787850151600019600388901b60f8161c191681555b5050505050600190811b01905550565b821515815260406020820152600061183e6040830184611ebc565b80516020808301519190811015610f7b5760001960209190910360031b1b16919050565b82815260406020820152600061183e6040830184611ebc565b600060208284031215612ac957600080fd5b81516001600160401b03811115612adf57600080fd5b8201601f81018413612af057600080fd5b8051612afe611f8582612150565b818152856020838501011115612b1357600080fd5b612916826020830160208601611e98565b81810381811115610616576106166127a7565b634e487b7160e01b600052603160045260246000fdfea2646970667358221220326118056efc85674bd89f3a85ae280ad39f87bee9e4d338d83dc218ed6b509664736f6c63430008130033",
  "linkReferences": {},
  "deployedLinkReferences": {}
}