{
  "_format": "hh-sol-artifact-1",
  "contractName": "LSP0ERC725Account",
  "sourceName": "contracts/UP.sol",
  "abi": [
    {
      "inputs": [
        {
          "internalType": "address",
          "name": "initialOwner",
          "type": "address"
        }
      ],
      "stateMutability": "payable",
      "type": "constructor"
    },
    {
      "inputs": [],
      "name": "ERC725X_ContractDeploymentFailed",
      "type": "error"
    },
    {
      "inputs": [],
      "name": "ERC725X_CreateOperationsRequireEmptyRecipientAddress",
      "type": "error"
    },
    {
      "inputs": [],
      "name": "ERC725X_ExecuteParametersEmptyArray",
      "type": "error"
    },
    {
      "inputs": [],
      "name": "ERC725X_ExecuteParametersLengthMismatch",
      "type": "error"
    },
    {
      "inputs": [
        {
          "internalType": "uint256",
          "name": "balance",
          "type": "uint256"
        },
        {
          "internalType": "uint256",
          "name": "value",
          "type": "uint256"
        }
      ],
      "name": "ERC725X_InsufficientBalance",
      "type": "error"
    },
    {
      "inputs": [],
      "name": "ERC725X_MsgValueDisallowedInDelegateCall",
      "type": "error"
    },
    {
      "inputs": [],
      "name": "ERC725X_MsgValueDisallowedInStaticCall",
      "type": "error"
    },
    {
      "inputs": [],
      "name": "ERC725X_NoContractBytecodeProvided",
      "type": "error"
    },
    {
      "inputs": [
        {
          "internalType": "uint256",
          "name": "operationTypeProvided",
          "type": "uint256"
        }
      ],
      "name": "ERC725X_UnknownOperationType",
      "type": "error"
    },
    {
      "inputs": [],
      "name": "ERC725Y_DataKeysValuesEmptyArray",
      "type": "error"
    },
    {
      "inputs": [],
      "name": "ERC725Y_DataKeysValuesLengthMismatch",
      "type": "error"
    },
    {
      "inputs": [
        {
          "internalType": "address",
          "name": "caller",
          "type": "address"
        }
      ],
      "name": "LSP14CallerNotPendingOwner",
      "type": "error"
    },
    {
      "inputs": [],
      "name": "LSP14CannotTransferOwnershipToSelf",
      "type": "error"
    },
    {
      "inputs": [],
      "name": "LSP14MustAcceptOwnershipInSeparateTransaction",
      "type": "error"
    },
    {
      "inputs": [
        {
          "internalType": "uint256",
          "name": "renounceOwnershipStart",
          "type": "uint256"
        },
        {
          "internalType": "uint256",
          "name": "renounceOwnershipEnd",
          "type": "uint256"
        }
      ],
      "name": "LSP14NotInRenounceOwnershipInterval",
      "type": "error"
    },
    {
      "inputs": [
        {
          "internalType": "bool",
          "name": "postCall",
          "type": "bool"
        },
        {
          "internalType": "bytes4",
          "name": "returnedStatus",
          "type": "bytes4"
        }
      ],
      "name": "LSP20CallVerificationFailed",
      "type": "error"
    },
    {
      "inputs": [
        {
          "internalType": "bool",
          "name": "postCall",
          "type": "bool"
        }
      ],
      "name": "LSP20CallingVerifierFailed",
      "type": "error"
    },
    {
      "inputs": [
        {
          "internalType": "address",
          "name": "logicVerifier",
          "type": "address"
        }
      ],
      "name": "LSP20EOACannotVerifyCall",
      "type": "error"
    },
    {
      "inputs": [
        {
          "internalType": "bytes4",
          "name": "functionSelector",
          "type": "bytes4"
        }
      ],
      "name": "NoExtensionFoundForFunctionSelector",
      "type": "error"
    },
    {
      "anonymous": false,
      "inputs": [
        {
          "indexed": true,
          "internalType": "uint256",
          "name": "operationType",
          "type": "uint256"
        },
        {
          "indexed": true,
          "internalType": "address",
          "name": "contractAddress",
          "type": "address"
        },
        {
          "indexed": false,
          "internalType": "uint256",
          "name": "value",
          "type": "uint256"
        },
        {
          "indexed": true,
          "internalType": "bytes32",
          "name": "salt",
          "type": "bytes32"
        }
      ],
      "name": "ContractCreated",
      "type": "event"
    },
    {
      "anonymous": false,
      "inputs": [
        {
          "indexed": true,
          "internalType": "bytes32",
          "name": "dataKey",
          "type": "bytes32"
        },
        {
          "indexed": false,
          "internalType": "bytes",
          "name": "dataValue",
          "type": "bytes"
        }
      ],
      "name": "DataChanged",
      "type": "event"
    },
    {
      "anonymous": false,
      "inputs": [
        {
          "indexed": true,
          "internalType": "uint256",
          "name": "operationType",
          "type": "uint256"
        },
        {
          "indexed": true,
          "internalType": "address",
          "name": "target",
          "type": "address"
        },
        {
          "indexed": false,
          "internalType": "uint256",
          "name": "value",
          "type": "uint256"
        },
        {
          "indexed": true,
          "internalType": "bytes4",
          "name": "selector",
          "type": "bytes4"
        }
      ],
      "name": "Executed",
      "type": "event"
    },
    {
      "anonymous": false,
      "inputs": [],
      "name": "OwnershipRenounced",
      "type": "event"
    },
    {
      "anonymous": false,
      "inputs": [
        {
          "indexed": true,
          "internalType": "address",
          "name": "previousOwner",
          "type": "address"
        },
        {
          "indexed": true,
          "internalType": "address",
          "name": "newOwner",
          "type": "address"
        }
      ],
      "name": "OwnershipTransferStarted",
      "type": "event"
    },
    {
      "anonymous": false,
      "inputs": [
        {
          "indexed": true,
          "internalType": "address",
          "name": "previousOwner",
          "type": "address"
        },
        {
          "indexed": true,
          "internalType": "address",
          "name": "newOwner",
          "type": "address"
        }
      ],
      "name": "OwnershipTransferred",
      "type": "event"
    },
    {
      "anonymous": false,
      "inputs": [],
      "name": "RenounceOwnershipStarted",
      "type": "event"
    },
    {
      "anonymous": false,
      "inputs": [
        {
          "indexed": true,
          "internalType": "address",
          "name": "from",
          "type": "address"
        },
        {
          "indexed": true,
          "internalType": "uint256",
          "name": "value",
          "type": "uint256"
        },
        {
          "indexed": true,
          "internalType": "bytes32",
          "name": "typeId",
          "type": "bytes32"
        },
        {
          "indexed": false,
          "internalType": "bytes",
          "name": "receivedData",
          "type": "bytes"
        },
        {
          "indexed": false,
          "internalType": "bytes",
          "name": "returnedValue",
          "type": "bytes"
        }
      ],
      "name": "UniversalReceiver",
      "type": "event"
    },
    {
      "stateMutability": "payable",
      "type": "fallback"
    },
    {
      "inputs": [],
      "name": "RENOUNCE_OWNERSHIP_CONFIRMATION_DELAY",
      "outputs": [
        {
          "internalType": "uint256",
          "name": "",
          "type": "uint256"
        }
      ],
      "stateMutability": "view",
      "type": "function"
    },
    {
      "inputs": [],
      "name": "RENOUNCE_OWNERSHIP_CONFIRMATION_PERIOD",
      "outputs": [
        {
          "internalType": "uint256",
          "name": "",
          "type": "uint256"
        }
      ],
      "stateMutability": "view",
      "type": "function"
    },
    {
      "inputs": [],
      "name": "VERSION",
      "outputs": [
        {
          "internalType": "string",
          "name": "",
          "type": "string"
        }
      ],
      "stateMutability": "view",
      "type": "function"
    },
    {
      "inputs": [],
      "name": "acceptOwnership",
      "outputs": [],
      "stateMutability": "nonpayable",
      "type": "function"
    },
    {
      "inputs": [
        {
          "internalType": "bytes[]",
          "name": "data",
          "type": "bytes[]"
        }
      ],
      "name": "batchCalls",
      "outputs": [
        {
          "internalType": "bytes[]",
          "name": "results",
          "type": "bytes[]"
        }
      ],
      "stateMutability": "nonpayable",
      "type": "function"
    },
    {
      "inputs": [
        {
          "internalType": "uint256",
          "name": "operationType",
          "type": "uint256"
        },
        {
          "internalType": "address",
          "name": "target",
          "type": "address"
        },
        {
          "internalType": "uint256",
          "name": "value",
          "type": "uint256"
        },
        {
          "internalType": "bytes",
          "name": "data",
          "type": "bytes"
        }
      ],
      "name": "execute",
      "outputs": [
        {
          "internalType": "bytes",
          "name": "",
          "type": "bytes"
        }
      ],
      "stateMutability": "payable",
      "type": "function"
    },
    {
      "inputs": [
        {
          "internalType": "uint256[]",
          "name": "operationsType",
          "type": "uint256[]"
        },
        {
          "internalType": "address[]",
          "name": "targets",
          "type": "address[]"
        },
        {
          "internalType": "uint256[]",
          "name": "values",
          "type": "uint256[]"
        },
        {
          "internalType": "bytes[]",
          "name": "datas",
          "type": "bytes[]"
        }
      ],
      "name": "executeBatch",
      "outputs": [
        {
          "internalType": "bytes[]",
          "name": "",
          "type": "bytes[]"
        }
      ],
      "stateMutability": "payable",
      "type": "function"
    },
    {
      "inputs": [
        {
          "internalType": "bytes32",
          "name": "dataKey",
          "type": "bytes32"
        }
      ],
      "name": "getData",
      "outputs": [
        {
          "internalType": "bytes",
          "name": "dataValue",
          "type": "bytes"
        }
      ],
      "stateMutability": "view",
      "type": "function"
    },
    {
      "inputs": [
        {
          "internalType": "bytes32[]",
          "name": "dataKeys",
          "type": "bytes32[]"
        }
      ],
      "name": "getDataBatch",
      "outputs": [
        {
          "internalType": "bytes[]",
          "name": "dataValues",
          "type": "bytes[]"
        }
      ],
      "stateMutability": "view",
      "type": "function"
    },
    {
      "inputs": [
        {
          "internalType": "bytes32",
          "name": "dataHash",
          "type": "bytes32"
        },
        {
          "internalType": "bytes",
          "name": "signature",
          "type": "bytes"
        }
      ],
      "name": "isValidSignature",
      "outputs": [
        {
          "internalType": "bytes4",
          "name": "returnedStatus",
          "type": "bytes4"
        }
      ],
      "stateMutability": "view",
      "type": "function"
    },
    {
      "inputs": [],
      "name": "owner",
      "outputs": [
        {
          "internalType": "address",
          "name": "",
          "type": "address"
        }
      ],
      "stateMutability": "view",
      "type": "function"
    },
    {
      "inputs": [],
      "name": "pendingOwner",
      "outputs": [
        {
          "internalType": "address",
          "name": "",
          "type": "address"
        }
      ],
      "stateMutability": "view",
      "type": "function"
    },
    {
      "inputs": [],
      "name": "renounceOwnership",
      "outputs": [],
      "stateMutability": "nonpayable",
      "type": "function"
    },
    {
      "inputs": [
        {
          "internalType": "bytes32",
          "name": "dataKey",
          "type": "bytes32"
        },
        {
          "internalType": "bytes",
          "name": "dataValue",
          "type": "bytes"
        }
      ],
      "name": "setData",
      "outputs": [],
      "stateMutability": "payable",
      "type": "function"
    },
    {
      "inputs": [
        {
          "internalType": "bytes32[]",
          "name": "dataKeys",
          "type": "bytes32[]"
        },
        {
          "internalType": "bytes[]",
          "name": "dataValues",
          "type": "bytes[]"
        }
      ],
      "name": "setDataBatch",
      "outputs": [],
      "stateMutability": "payable",
      "type": "function"
    },
    {
      "inputs": [
        {
          "internalType": "bytes4",
          "name": "interfaceId",
          "type": "bytes4"
        }
      ],
      "name": "supportsInterface",
      "outputs": [
        {
          "internalType": "bool",
          "name": "",
          "type": "bool"
        }
      ],
      "stateMutability": "view",
      "type": "function"
    },
    {
      "inputs": [
        {
          "internalType": "address",
          "name": "pendingNewOwner",
          "type": "address"
        }
      ],
      "name": "transferOwnership",
      "outputs": [],
      "stateMutability": "nonpayable",
      "type": "function"
    },
    {
      "inputs": [
        {
          "internalType": "bytes32",
          "name": "typeId",
          "type": "bytes32"
        },
        {
          "internalType": "bytes",
          "name": "receivedData",
          "type": "bytes"
        }
      ],
      "name": "universalReceiver",
      "outputs": [
        {
          "internalType": "bytes",
          "name": "returnedValues",
          "type": "bytes"
        }
      ],
      "stateMutability": "payable",
      "type": "function"
    },
    {
      "stateMutability": "payable",
      "type": "receive"
    }
  ],
  "bytecode": "0x6080604052604051620034883803806200348883398101604081905262000026916200012d565b3415620000ad577f9c4705229491d365fb5434052e12a386d6771d976bea61070a8c694e8affea3d60001b34336001600160a01b03167f9c3ba68eb5742b8e3961aea0afc7371a71bf433c8a67a831803b64c064a178c2604051620000a4906040808252600090820181905260606020830181905282015260800190565b60405180910390a45b620000b881620000bf565b506200015f565b6000546001600160a01b038281169116146200012a57600080546040516001600160a01b03808516939216917f8be0079c531659141344cd1fd0a4f28419497f9722a3daafe3b4186f6b6457e091a3600080546001600160a01b0319166001600160a01b0383161790555b50565b6000602082840312156200014057600080fd5b81516001600160a01b03811681146200015857600080fd5b9392505050565b613319806200016f6000396000f3fe60806040526004361061010d5760003560e01c806379ba509711610095578063dedff9c611610064578063dedff9c614610380578063e30c3978146103a0578063ead3fbdf146101da578063f2fde38b146103be578063ffa1ad74146103de57610146565b806379ba5097146103135780637f23690c146103285780638da5cb5b1461033b578063979024211461036d57610146565b806344c028fe116100dc57806344c028fe1461028b57806354f6127f146102ab5780636963d438146102cb5780636bb56a14146102eb578063715018a6146102fe57610146565b806301bfba61146101da57806301ffc9a7146102025780631626ba7e14610232578063318584521461026b57610146565b36610146573415610144576101426000805160206132c483398151915260001b60405180602001604052806000815250610410565b505b005b600036606060048210156101c25734156101ad576101ab6000805160206132c483398151915260001b84848080601f01602080910402602001604051908101604052809392919081815260200183838082843760009201919091525061041092505050565b505b506040805160208101909152600081526101cf565b6101cc838361069d565b90505b915050805190602001f35b3480156101e657600080fd5b506101ef60c881565b6040519081526020015b60405180910390f35b34801561020e57600080fd5b5061022261021d366004612850565b61084e565b60405190151581526020016101f9565b34801561023e57600080fd5b5061025261024d366004612930565b6108ee565b6040516001600160e01b031990911681526020016101f9565b61027e610279366004612a95565b610aa0565b6040516101f99190612bec565b61029e610299366004612c4e565b610b88565b6040516101f99190612ca2565b3480156102b757600080fd5b5061029e6102c6366004612cb5565b610c47565b3480156102d757600080fd5b5061027e6102e6366004612cce565b610c52565b61029e6102f9366004612930565b610410565b34801561030a57600080fd5b50610144610dad565b34801561031f57600080fd5b50610144610efa565b610144610336366004612930565b611067565b34801561034757600080fd5b506000546001600160a01b03165b6040516001600160a01b0390911681526020016101f9565b61014461037b366004612d42565b611126565b34801561038c57600080fd5b5061027e61039b366004612d9b565b6112a3565b3480156103ac57600080fd5b506003546001600160a01b0316610355565b3480156103ca57600080fd5b506101446103d9366004612dcf565b61134d565b3480156103ea57600080fd5b5061029e604051806040016040528060068152602001650302e31342e360d41b81525081565b6060341580159061042f57506000805160206132c48339815191528314155b15610488576104866000805160206132c483398151915260001b6000368080601f01602080910402602001604051908101604052809392919081815260200183838082843760009201919091525061041092505050565b505b60006104b37f0cfc51aec37c55a4d0b1a65c6255c4bf2fbdf6277f3cc0730c45b828b6db8b476114f9565b9050606060148251106105645760006104cb83612dea565b60601c90506104e181635122dded60e11b61159b565b1561056257604051635122dded60e11b81526001600160a01b0382169063a245bbda9061051890339034908b908b90600401612e21565b6000604051808303816000875af1158015610537573d6000803e3d6000fd5b505050506040513d6000823e601f3d908101601f1916820160405261055f9190810190612e4e565b91505b505b600061057d690cfc51aec37c55a4d0b160b01b87611624565b9050600061058a826114f9565b90506060601482511061063b5760006105a283612dea565b60601c90506105b881635122dded60e11b61159b565b1561063957604051635122dded60e11b81526001600160a01b0382169063a245bbda906105ef90339034908e908e90600401612e21565b6000604051808303816000875af115801561060e573d6000803e3d6000fd5b505050506040513d6000823e601f3d908101601f191682016040526106369190810190612e4e565b91505b505b838160405160200161064e929190612ebb565b60405160208183030381529060405295508734336001600160a01b03166000805160206132a48339815191528a8a60405161068a929190612ebb565b60405180910390a4505050505092915050565b60606000806106b76000356001600160e01b031916611670565b91509150346000141580156106ca575080155b15610722576107206000805160206132c483398151915260001b86868080601f01602080910402602001604051908101604052809392919081815260200183838082843760009201919091525061041092505050565b505b6000356001600160e01b03191615801561074357506001600160a01b038216155b15610761576040518060200160405280600081525092505050610848565b6001600160a01b03821661079b5760405163bb370b2b60e01b81526001600160e01b03196000351660048201526024015b60405180910390fd5b600080836001600160a01b0316836107b45760006107b6565b345b888833346040516020016107cd9493929190612ee0565b60408051601f19818403018152908290526107e791612f0b565b60006040518083038185875af1925050503d8060008114610824576040519150601f19603f3d011682016040523d82523d6000602084013e610829565b606091505b5091509150811561083f57935061084892505050565b80518060208301fd5b92915050565b60006001600160e01b03198216630b135d3f60e11b148061087f57506001600160e01b031982166324871b3d60e01b145b8061089a57506001600160e01b03198216631aed5a8560e21b145b806108b557506001600160e01b031982166394be599960e01b145b806108d057506001600160e01b03198216631a0eb6a560e01b145b806108df57506108df82611720565b80610848575061084882611745565b6000806109036000546001600160a01b031690565b90506001600160a01b0381163b15610a2057600080826001600160a01b0316631626ba7e60e01b878760405160240161093d929190612f27565b60408051601f198184030181529181526020820180516001600160e01b03166001600160e01b031990941693909317909252905161097b9190612f0b565b600060405180830381855afa9150503d80600081146109b6576040519150601f19603f3d011682016040523d82523d6000602084013e6109bb565b606091505b509150915060008280156109d0575081516020145b80156109f757508151630b135d3f60e11b906109f59084016020908101908501612f40565b145b905080610a0c576001600160e01b0319610a15565b630b135d3f60e11b5b945050505050610848565b600080610a2d8686611783565b90925090506000816004811115610a4657610a46612f59565b14610a5f57506001600160e01b03199250610848915050565b826001600160a01b0316826001600160a01b031614610a86576001600160e01b0319610a8f565b630b135d3f60e11b5b9350505050610848565b5092915050565b60603415610b07576040516001600160e01b03196000351660208201526000805160206132c483398151915290349033906000805160206132a48339815191529060240160408051601f1981840301815290829052610afe91612f6f565b60405180910390a45b6000546001600160a01b031633819003610b2f57610b27868686866117c8565b915050610b80565b6000610b3a82611925565b90506000610b4a888888886117c8565b90508115610b7b57610b7b8382604051602001610b679190612bec565b604051602081830303815290604052611a75565b925050505b949350505050565b60603415610bef576040516001600160e01b03196000351660208201526000805160206132c483398151915290349033906000805160206132a48339815191529060240160408051601f1981840301815290829052610be691612f6f565b60405180910390a45b6000546001600160a01b031633819003610c0f57610b2786868686611b92565b6000610c1a82611925565b90506000610c2a88888888611b92565b90508115610b7b57610b7b8382604051602001610b679190612ca2565b6060610848826114f9565b6060816001600160401b03811115610c6c57610c6c61286d565b604051908082528060200260200182016040528015610c9f57816020015b6060815260200190600190039081610c8a5790505b50905060005b82811015610a995760008030868685818110610cc357610cc3612f99565b9050602002810190610cd59190612faf565b604051610ce3929190612ff5565b600060405180830381855af49150503d8060008114610d1e576040519150601f19603f3d011682016040523d82523d6000602084013e610d23565b606091505b509150915081610d8557805115610d3d5780518082602001fd5b60405162461bcd60e51b815260206004820152601960248201527f4c5350303a20626174636843616c6c73207265766572746564000000000000006044820152606401610792565b80848481518110610d9857610d98612f99565b60209081029190910101525050600101610ca5565b6000546001600160a01b031633819003610e50576000546001600160a01b0316610dd5611c9d565b6000546001600160a01b0316610e4c57604080516001600160a01b0384166020820152600091810191909152610e4c907fa4e59c931d14f7c8a7a35027f92ee40b5f2886b9fdcdb78f30bc5ecce5a2f814906060015b60408051601f198184030181529190526001600160a01b0384169190611d90565b5050565b6000610e5b82611925565b90506000610e716000546001600160a01b031690565b9050610e7b611c9d565b6000546001600160a01b0316610ed557604080516001600160a01b0385166020820152600091810191909152610ed5907fa4e59c931d14f7c8a7a35027f92ee40b5f2886b9fdcdb78f30bc5ecce5a2f81490606001610e2b565b8115610ef457610ef48360405180602001604052806000815250611a75565b50505b50565b600354600160a01b900460ff1615610f2557604051635758dd0760e01b815260040160405180910390fd5b600080546003546001600160a01b0391821692911690338214610f7057610f4b82611925565b9050610f5682611e24565b600380546001600160a01b03191690556000600255610f78565b610f78611e92565b604080516001600160a01b038086166020830152841691810191909152610fe0907fa4e59c931d14f7c8a7a35027f92ee40b5f2886b9fdcdb78f30bc5ecce5a2f814906060015b60408051601f198184030181529190526001600160a01b0386169190611d90565b604080516001600160a01b038086166020830152841691810191909152611048907fceca317f109c43507871523e82dc2a3cc64dfa18f12da0b6db14f6e23f995538906060015b60408051601f198184030181529190526001600160a01b0385169190611d90565b8015610ef457610ef48260405180602001604052806000815250611a75565b34156110cc576040516001600160e01b03196000351660208201526000805160206132c483398151915290349033906000805160206132a48339815191529060240160408051601f19818403018152908290526110c391612f6f565b60405180910390a45b6000546001600160a01b0316338190036110ea57610ef48383611edf565b60006110f582611925565b90506111018484611edf565b8015611120576111208260405180602001604052806000815250611a75565b50505050565b341561118b576040516001600160e01b03196000351660208201526000805160206132c483398151915290349033906000805160206132a48339815191529060240160408051601f198184030181529082905261118291612f6f565b60405180910390a45b80518251146111ad57604051633bcc897960e01b815260040160405180910390fd5b81516000036111cf576040516397da5f9560e01b815260040160405180910390fd5b6000546001600160a01b0316338190036112335760005b83518110156111205761122b84828151811061120457611204612f99565b602002602001015184838151811061121e5761121e612f99565b6020026020010151611edf565b6001016111e6565b600061123e82611925565b905060005b84518110156112835761127b85828151811061126157611261612f99565b602002602001015185838151811061121e5761121e612f99565b600101611243565b508015611120576111208260405180602001604052806000815250611a75565b606081516001600160401b038111156112be576112be61286d565b6040519080825280602002602001820160405280156112f157816020015b60608152602001906001900390816112dc5790505b50905060005b82518110156113475761132283828151811061131557611315612f99565b60200260200101516114f9565b82828151811061133457611334612f99565b60209081029190910101526001016112f7565b50919050565b6000546001600160a01b031633819003611419576003805460ff60a01b1916600160a01b17905561137d82611f34565b816001600160a01b0316816001600160a01b03167f38d16b8cac22d99fc7c124b9cd0de2d3fa1faef420bfe791d8c362d765e2270060405160405180910390a3604080516001600160a01b038084166020830152841691810191909152611408907fe17117c9d2665d1dbeb479ed8058bbebde3c50ac50e2e65619f60006caac692690606001611027565b6003805460ff60a01b191690555050565b600061142482611925565b6003805460ff60a01b1916600160a01b179055905061144283611f34565b826001600160a01b0316826001600160a01b03167f38d16b8cac22d99fc7c124b9cd0de2d3fa1faef420bfe791d8c362d765e2270060405160405180910390a3604080516001600160a01b0380851660208301528516918101919091526114cd907fe17117c9d2665d1dbeb479ed8058bbebde3c50ac50e2e65619f60006caac692690606001610fbf565b6003805460ff60a01b191690558015610ef457610ef48260405180602001604052806000815250611a75565b600081815260016020526040902080546060919061151690613005565b80601f016020809104026020016040519081016040528092919081815260200182805461154290613005565b801561158f5780601f106115645761010080835404028352916020019161158f565b820191906000526020600020905b81548152906001019060200180831161157257829003601f168201915b50505050509050919050565b604080516001600160e01b03198316602480830191909152825180830390910181526044909101909152602080820180516001600160e01b03166301ffc9a760e01b178152825160009392849283928392918391908a617530fa92503d9150600051905082801561160d575060208210155b80156116195750600081115b979650505050505050565b604080516001600160b01b0319841660208201526000602a82018190526001600160601b03198416602c83015291829101604051602081830303815290604052905080610b8090613039565b60008080611695696773c5a04a6d4300884b60b11b6001600160e01b03198616611624565b905060006116a2826114f9565b90506014815110156116bb575060009485945092505050565b805160150361170857806014815181106116d7576116d7612f99565b01602001516001600160f81b031916600160f81b03611708576116f981612dea565b60601c95600195509350505050565b61171181612dea565b60601c95600095509350505050565b60006001600160e01b0319821663a918fa6b60e01b1480610848575061084882611f84565b6000806117586301ffc9a760e01b611670565b5090506001600160a01b0381166117725750600092915050565b61177c818461159b565b9392505050565b60008082516041036117b95760208301516040840151606085015160001a6117ad87828585611fa9565b945094505050506117c1565b506000905060025b9250929050565b6060835185511415806117e95750825184511415806117e957508151835114155b1561180757604051633ff55f4d60e01b815260040160405180910390fd5b84516000036118295760405163e9ad2b5f60e01b815260040160405180910390fd5b600085516001600160401b038111156118445761184461286d565b60405190808252806020026020018201604052801561187757816020015b60608152602001906001900390816118625790505b50905060005b865181101561191b576118f687828151811061189b5761189b612f99565b60200260200101518783815181106118b5576118b5612f99565b60200260200101518784815181106118cf576118cf612f99565b60200260200101518785815181106118e9576118e9612f99565b6020026020010151611b92565b82828151811061190857611908612f99565b602090810291909101015260010161187d565b5095945050505050565b6000816001600160a01b03163b60000361195d57604051630c39230160e01b81526001600160a01b0383166004820152602401610792565b6040516337a4a3c560e21b81526001600160a01b0383169063de928f1490611994903390309082903490600090369060040161305d565b6020604051808303816000875af19250505080156119cf575060408051601f3d908101601f191682019092526119cc918101906130ba565b60015b611a0e573d8080156119fd576040519150601f19603f3d011682016040523d82523d6000602084013e611a02565b606091505b5061134760008261206d565b6001600160e81b0319811662de928f60e81b14611a5157604051639d6741e360e01b8152600060048201526001600160e01b031982166024820152604401610792565b8060031a60f81b6001600160f81b031916600160f81b14915050919050565b919050565b816001600160a01b031663d3fc45d333303334600036604051602001611aa0969594939291906130d7565b60405160208183030381529060405280519060200120836040518363ffffffff1660e01b8152600401611ad4929190612f27565b6020604051808303816000875af1925050508015611b0f575060408051601f3d908101601f19168201909252611b0c918101906130ba565b60015b611b4e573d808015611b3d576040519150601f19603f3d011682016040523d82523d6000602084013e611b42565b606091505b50610ef460018261206d565b6001600160e01b0319811663d3fc45d360e01b14610ef457604051639d6741e360e01b8152600160048201526001600160e01b031982166024820152604401610792565b606084611bab57611ba484848461209a565b9050610b80565b60018503611be5576001600160a01b03841615611bdb57604051631820c12560e11b815260040160405180910390fd5b611ba483836121c4565b60028503611c1f576001600160a01b03841615611c1557604051631820c12560e11b815260040160405180910390fd5b611ba483836122c0565b60038503611c50578215611c46576040516339795e3560e11b815260040160405180910390fd5b611ba484836123a5565b60048503611c81578215611c7757604051635ac8313560e01b815260040160405180910390fd5b611ba484836124a2565b604051631d60ecef60e21b815260048101869052602401610792565b6002544390600090611cb19060c89061313d565b90506000611cc060c88361313d565b905080831180611cd05750600254155b15611d18576002839055600380546001600160a01b03191690556040517f81b7f830f1f0084db6497c486cbe6974c86488dcc4e3738eab94ab6d6b1653e790600090a1505050565b81831015611d4357604051630d8404a160e11b81526004810183905260248101829052604401610792565b611d4d6000611e24565b60006002819055600380546001600160a01b03191690556040517fd1f66c3d2bc1993a86be5e3d33709d98f0442381befcedd29f578b9b2506b1ce9190a1505050565b611daa6001600160a01b038416631aed5a8560e21b61159b565b15610ef457604051631aed5a8560e21b81526001600160a01b03841690636bb56a1490611ddd9085908590600401612f27565b6000604051808303816000875af1158015611dfc573d6000803e3d6000fd5b505050506040513d6000823e601f3d908101601f191682016040526111209190810190612e4e565b6000546001600160a01b03828116911614610ef757600080546040516001600160a01b03808516939216917f8be0079c531659141344cd1fd0a4f28419497f9722a3daafe3b4186f6b6457e091a3600080546001600160a01b0383166001600160a01b031990911617905550565b6003546001600160a01b03163314611ebf576040516308a3c8a560e31b8152336004820152602401610792565b611ec833611e24565b600380546001600160a01b03191690556000600255565b6000828152600160205260409020611ef7828261319e565b50817fece574603820d07bc9b91f2a932baadf4628aabcb8afba49776529c14a6104b282604051611f289190612ca2565b60405180910390a25050565b306001600160a01b03821603611f5d57604051631c0a54df60e31b815260040160405180910390fd5b600380546001600160a01b0319166001600160a01b03929092169190911790556000600255565b60006001600160e01b031982166318a6a9a560e21b1480610848575061084882612553565b6000807f7fffffffffffffffffffffffffffffff5d576e7357a4501ddfe92f46681b20a0831115611fe05750600090506003612064565b6040805160008082526020820180845289905260ff881692820192909252606081018690526080810185905260019060a0016020604051602081039080840390855afa158015612034573d6000803e3d6000fd5b5050604051601f1901519150506001600160a01b03811661205d57600060019250925050612064565b9150600090505b94509492505050565b80511561207d5780518082602001fd5b604051638c6a8ae360e01b81528215156004820152602401610792565b6060824710156120c6576040516301bf351f60e31b815247600482015260248101849052604401610792565b6120cf8261325d565b6001600160e01b031916846001600160a01b031660007f4810874456b8e6487bd861375cf6abd8e1c8bb5858c8ce36a86a04dabfac199e8660405161211691815260200190565b60405180910390a4600080856001600160a01b0316858560405161213a9190612f0b565b60006040518083038185875af1925050503d8060008114612177576040519150601f19603f3d011682016040523d82523d6000602084013e61217c565b606091505b50915091506121ba82826040518060400160405280601681526020017522a9219b991aac1d102ab735b737bbb71022b93937b960511b815250612588565b9695505050505050565b6060824710156121f0576040516301bf351f60e31b815247600482015260248101849052604401610792565b81516000036122125760405163b81cd8d960e01b815260040160405180910390fd5b600082516020840185f090506001600160a01b03811661224557604051630b07489b60e01b815260040160405180910390fd5b6000801b816001600160a01b031660017fa1fb700aaee2ae4a2ff6f91ce7eba292f89c2f5488b8ec4c5c5c8150692595c38760405161228691815260200190565b60405180910390a46040516001600160601b0319606083901b16602082015260340160405160208183030381529060405291505092915050565b606081516000036122e45760405163b81cd8d960e01b815260040160405180910390fd5b60006122fd83602085516122f89190613290565b6125a1565b9050600061231a846000602087516123159190613290565b6125ff565b9050600061232986848461270c565b905082816001600160a01b031660027fa1fb700aaee2ae4a2ff6f91ce7eba292f89c2f5488b8ec4c5c5c8150692595c38960405161236991815260200190565b60405180910390a46040516001600160601b0319606083901b166020820152603401604051602081830303815290604052935050505092915050565b60606123b08261325d565b6001600160e01b031916836001600160a01b031660037f4810874456b8e6487bd861375cf6abd8e1c8bb5858c8ce36a86a04dabfac199e60006040516123f891815260200190565b60405180910390a4600080846001600160a01b03168460405161241b9190612f0b565b600060405180830381855afa9150503d8060008114612456576040519150601f19603f3d011682016040523d82523d6000602084013e61245b565b606091505b509150915061249982826040518060400160405280601681526020017522a9219b991aac1d102ab735b737bbb71022b93937b960511b815250612588565b95945050505050565b60606124ad8261325d565b6001600160e01b031916836001600160a01b031660047f4810874456b8e6487bd861375cf6abd8e1c8bb5858c8ce36a86a04dabfac199e60006040516124f591815260200190565b60405180910390a4600080846001600160a01b0316846040516125189190612f0b565b600060405180830381855af49150503d8060008114612456576040519150601f19603f3d011682016040523d82523d6000602084013e61245b565b60006001600160e01b03198216631d516b2b60e21b148061084857506301ffc9a760e01b6001600160e01b0319831614610848565b6060831561259757508161177c565b61177c8383612810565b60006125ae82602061313d565b835110156125f65760405162461bcd60e51b8152602060048201526015602482015274746f427974657333325f6f75744f66426f756e647360581b6044820152606401610792565b50016020015190565b60608161260d81601f61313d565b101561264c5760405162461bcd60e51b815260206004820152600e60248201526d736c6963655f6f766572666c6f7760901b6044820152606401610792565b612656828461313d565b8451101561269a5760405162461bcd60e51b8152602060048201526011602482015270736c6963655f6f75744f66426f756e647360781b6044820152606401610792565b6060821580156126b95760405191506000825260208201604052612703565b6040519150601f8416801560200281840101858101878315602002848b0101015b818310156126f25780518352602092830192016126da565b5050858452601f01601f1916604052505b50949350505050565b60008347101561275e5760405162461bcd60e51b815260206004820152601d60248201527f437265617465323a20696e73756666696369656e742062616c616e63650000006044820152606401610792565b81516000036127af5760405162461bcd60e51b815260206004820181905260248201527f437265617465323a2062797465636f6465206c656e677468206973207a65726f6044820152606401610792565b8282516020840186f590506001600160a01b03811661177c5760405162461bcd60e51b815260206004820152601960248201527f437265617465323a204661696c6564206f6e206465706c6f79000000000000006044820152606401610792565b8151156128205781518083602001fd5b8060405162461bcd60e51b81526004016107929190612ca2565b6001600160e01b031981168114610ef757600080fd5b60006020828403121561286257600080fd5b813561177c8161283a565b634e487b7160e01b600052604160045260246000fd5b604051601f8201601f191681016001600160401b03811182821017156128ab576128ab61286d565b604052919050565b60006001600160401b038211156128cc576128cc61286d565b50601f01601f191660200190565b600082601f8301126128eb57600080fd5b81356128fe6128f9826128b3565b612883565b81815284602083860101111561291357600080fd5b816020850160208301376000918101602001919091529392505050565b6000806040838503121561294357600080fd5b8235915060208301356001600160401b0381111561296057600080fd5b61296c858286016128da565b9150509250929050565b60006001600160401b0382111561298f5761298f61286d565b5060051b60200190565b600082601f8301126129aa57600080fd5b813560206129ba6128f983612976565b82815260059290921b840181019181810190868411156129d957600080fd5b8286015b848110156129f457803583529183019183016129dd565b509695505050505050565b80356001600160a01b0381168114611a7057600080fd5b600082601f830112612a2757600080fd5b81356020612a376128f983612976565b82815260059290921b84018101918181019086841115612a5657600080fd5b8286015b848110156129f45780356001600160401b03811115612a795760008081fd5b612a878986838b01016128da565b845250918301918301612a5a565b60008060008060808587031215612aab57600080fd5b84356001600160401b0380821115612ac257600080fd5b612ace88838901612999565b9550602091508187013581811115612ae557600080fd5b8701601f81018913612af657600080fd5b8035612b046128f982612976565b81815260059190911b8201840190848101908b831115612b2357600080fd5b928501925b82841015612b4857612b39846129ff565b82529285019290850190612b28565b97505050506040870135915080821115612b6157600080fd5b612b6d88838901612999565b93506060870135915080821115612b8357600080fd5b50612b9087828801612a16565b91505092959194509250565b60005b83811015612bb7578181015183820152602001612b9f565b50506000910152565b60008151808452612bd8816020860160208601612b9c565b601f01601f19169290920160200192915050565b6000602080830181845280855180835260408601915060408160051b870101925083870160005b82811015612c4157603f19888603018452612c2f858351612bc0565b94509285019290850190600101612c13565b5092979650505050505050565b60008060008060808587031215612c6457600080fd5b84359350612c74602086016129ff565b92506040850135915060608501356001600160401b03811115612c9657600080fd5b612b90878288016128da565b60208152600061177c6020830184612bc0565b600060208284031215612cc757600080fd5b5035919050565b60008060208385031215612ce157600080fd5b82356001600160401b0380821115612cf857600080fd5b818501915085601f830112612d0c57600080fd5b813581811115612d1b57600080fd5b8660208260051b8501011115612d3057600080fd5b60209290920196919550909350505050565b60008060408385031215612d5557600080fd5b82356001600160401b0380821115612d6c57600080fd5b612d7886838701612999565b93506020850135915080821115612d8e57600080fd5b5061296c85828601612a16565b600060208284031215612dad57600080fd5b81356001600160401b03811115612dc357600080fd5b610b8084828501612999565b600060208284031215612de157600080fd5b61177c826129ff565b805160208201516001600160601b03198082169291906014831015612e195780818460140360031b1b83161693505b505050919050565b60018060a01b03851681528360208201528260408201526080606082015260006121ba6080830184612bc0565b600060208284031215612e6057600080fd5b81516001600160401b03811115612e7657600080fd5b8201601f81018413612e8757600080fd5b8051612e956128f9826128b3565b818152856020838501011115612eaa57600080fd5b612499826020830160208601612b9c565b604081526000612ece6040830185612bc0565b82810360208401526124998185612bc0565b8385823760609290921b6001600160601b031916919092019081526014810191909152603401919050565b60008251612f1d818460208701612b9c565b9190910192915050565b828152604060208201526000610b806040830184612bc0565b600060208284031215612f5257600080fd5b5051919050565b634e487b7160e01b600052602160045260246000fd5b604081526000612f826040830184612bc0565b828103602093840152600081529190910192915050565b634e487b7160e01b600052603260045260246000fd5b6000808335601e19843603018112612fc657600080fd5b8301803591506001600160401b03821115612fe057600080fd5b6020019150368190038213156117c157600080fd5b8183823760009101908152919050565b600181811c9082168061301957607f821691505b60208210810361134757634e487b7160e01b600052602260045260246000fd5b805160208083015191908110156113475760001960209190910360031b1b16919050565b6001600160a01b0387811682528681166020830152851660408201526060810184905260a06080820181905281018290526000828460c0840137600060c0848401015260c0601f19601f8501168301019050979650505050505050565b6000602082840312156130cc57600080fd5b815161177c8161283a565b60006bffffffffffffffffffffffff19808960601b168352808860601b166014840152808760601b1660288401525084603c8301528284605c8401375060009101605c0190815295945050505050565b634e487b7160e01b600052601160045260246000fd5b8082018082111561084857610848613127565b601f821115610ef457600081815260208120601f850160051c810160208610156131775750805b601f850160051c820191505b8181101561319657828155600101613183565b505050505050565b81516001600160401b038111156131b7576131b761286d565b6131cb816131c58454613005565b84613150565b602080601f83116001811461320057600084156131e85750858301515b600019600386901b1c1916600185901b178555613196565b600085815260208120601f198616915b8281101561322f57888601518255948401946001909101908401613210565b508582101561324d5787850151600019600388901b60f8161c191681555b5050505050600190811b01905550565b805160208201516001600160e01b03198082169291906004831015612e195760049290920360031b82901b161692915050565b818103818111156108485761084861312756fe9c3ba68eb5742b8e3961aea0afc7371a71bf433c8a67a831803b64c064a178c29c4705229491d365fb5434052e12a386d6771d976bea61070a8c694e8affea3da26469706673582212205aef3ca820f3692934d2b6cb89557c1af07b17bcf51aa369bb790a151ce30de664736f6c63430008130033",
  "linkReferences": {},
  "deployedLinkReferences": {}
}